{"contracts/Profile.sol":{"Profile":{"abi":[{"inputs":[{"internalType":"string","name":"_name","type":"string"},{"internalType":"string","name":"_description","type":"string"},{"internalType":"string","name":"_pictureLink","type":"string"}],"stateMutability":"nonpayable","type":"constructor"},{"anonymous":false,"inputs":[{"indexed":true,"internalType":"address","name":"owner","type":"address"},{"indexed":true,"internalType":"address","name":"approved","type":"address"},{"indexed":true,"internalType":"uint256","name":"tokenId","type":"uint256"}],"name":"Approval","type":"event"},{"anonymous":false,"inputs":[{"indexed":true,"internalType":"address","name":"owner","type":"address"},{"indexed":true,"internalType":"address","name":"operator","type":"address"},{"indexed":false,"internalType":"bool","name":"approved","type":"bool"}],"name":"ApprovalForAll","type":"event"},{"anonymous":false,"inputs":[{"indexed":false,"internalType":"uint256","name":"_fromTokenId","type":"uint256"},{"indexed":false,"internalType":"uint256","name":"_toTokenId","type":"uint256"}],"name":"BatchMetadataUpdate","type":"event"},{"anonymous":false,"inputs":[{"indexed":true,"internalType":"address","name":"_approvingProfile","type":"address"},{"indexed":true,"internalType":"address","name":"_approvedProfile","type":"address"}],"name":"ConnectionApproved","type":"event"},{"anonymous":false,"inputs":[{"indexed":true,"internalType":"address","name":"_proposingProfile","type":"address"},{"indexed":true,"internalType":"address","name":"_proposedProfile","type":"address"}],"name":"ConnectionProposed","type":"event"},{"anonymous":false,"inputs":[{"indexed":false,"internalType":"uint256","name":"_tokenId","type":"uint256"}],"name":"MetadataUpdate","type":"event"},{"anonymous":false,"inputs":[{"indexed":true,"internalType":"address","name":"_newOwner","type":"address"}],"name":"OwnerAdded","type":"event"},{"anonymous":false,"inputs":[{"indexed":true,"internalType":"address","name":"_ownerToRemove","type":"address"}],"name":"OwnerRemoved","type":"event"},{"anonymous":false,"inputs":[{"indexed":true,"internalType":"address","name":"previousOwner","type":"address"},{"indexed":true,"internalType":"address","name":"newOwner","type":"address"}],"name":"OwnershipTransferred","type":"event"},{"anonymous":false,"inputs":[{"indexed":true,"internalType":"address","name":"_owner","type":"address"},{"indexed":true,"internalType":"uint256","name":"_tokenId","type":"uint256"},{"indexed":false,"internalType":"string","name":"_contentCID","type":"string"}],"name":"PostMinted","type":"event"},{"anonymous":false,"inputs":[{"indexed":true,"internalType":"address","name":"_owner","type":"address"},{"indexed":true,"internalType":"uint256","name":"_tokenId","type":"uint256"}],"name":"PostRemoved","type":"event"},{"anonymous":false,"inputs":[{"indexed":false,"internalType":"string","name":"_name","type":"string"},{"indexed":false,"internalType":"string","name":"_description","type":"string"},{"indexed":false,"internalType":"string","name":"_pictureLink","type":"string"}],"name":"ProfileUpdated","type":"event"},{"anonymous":false,"inputs":[{"indexed":true,"internalType":"address","name":"_owner","type":"address"},{"indexed":false,"internalType":"string","name":"_name","type":"string"},{"indexed":false,"internalType":"string","name":"_description","type":"string"},{"indexed":false,"internalType":"string","name":"_pictureLink","type":"string"}],"name":"ShowProfile","type":"event"},{"anonymous":false,"inputs":[{"indexed":true,"internalType":"address","name":"from","type":"address"},{"indexed":true,"internalType":"address","name":"to","type":"address"},{"indexed":true,"internalType":"uint256","name":"tokenId","type":"uint256"}],"name":"Transfer","type":"event"},{"inputs":[{"internalType":"address","name":"_newOwner","type":"address"}],"name":"addOwner","outputs":[],"stateMutability":"nonpayable","type":"function"},{"inputs":[{"internalType":"address","name":"to","type":"address"},{"internalType":"uint256","name":"tokenId","type":"uint256"}],"name":"approve","outputs":[],"stateMutability":"nonpayable","type":"function"},{"inputs":[{"internalType":"address","name":"owner","type":"address"}],"name":"balanceOf","outputs":[{"internalType":"uint256","name":"","type":"uint256"}],"stateMutability":"view","type":"function"},{"inputs":[{"internalType":"uint256","name":"tokenId","type":"uint256"}],"name":"burn","outputs":[],"stateMutability":"nonpayable","type":"function"},{"inputs":[{"internalType":"address","name":"_proposingProfile","type":"address"}],"name":"externalProposeConnect","outputs":[],"stateMutability":"nonpayable","type":"function"},{"inputs":[{"internalType":"uint256","name":"tokenId","type":"uint256"}],"name":"getApproved","outputs":[{"internalType":"address","name":"","type":"address"}],"stateMutability":"view","type":"function"},{"inputs":[{"internalType":"address","name":"owner","type":"address"},{"internalType":"address","name":"operator","type":"address"}],"name":"isApprovedForAll","outputs":[{"internalType":"bool","name":"","type":"bool"}],"stateMutability":"view","type":"function"},{"inputs":[{"internalType":"address","name":"","type":"address"}],"name":"isOwner","outputs":[{"internalType":"bool","name":"","type":"bool"}],"stateMutability":"view","type":"function"},{"inputs":[{"internalType":"address","name":"_profile","type":"address"}],"name":"isProposedConnection","outputs":[{"internalType":"bool","name":"","type":"bool"}],"stateMutability":"view","type":"function"},{"inputs":[],"name":"listPosts","outputs":[{"internalType":"string[]","name":"","type":"string[]"}],"stateMutability":"view","type":"function"},{"inputs":[],"name":"listProposedConnections","outputs":[{"internalType":"address[]","name":"","type":"address[]"}],"stateMutability":"view","type":"function"},{"inputs":[{"internalType":"string","name":"_contentCID","type":"string"}],"name":"mintpostNFT","outputs":[],"stateMutability":"nonpayable","type":"function"},{"inputs":[],"name":"name","outputs":[{"internalType":"string","name":"","type":"string"}],"stateMutability":"view","type":"function"},{"inputs":[{"internalType":"address","name":"","type":"address"},{"internalType":"address","name":"","type":"address"},{"internalType":"uint256","name":"","type":"uint256"},{"internalType":"bytes","name":"","type":"bytes"}],"name":"onERC721Received","outputs":[{"internalType":"bytes4","name":"","type":"bytes4"}],"stateMutability":"nonpayable","type":"function"},{"inputs":[],"name":"owner","outputs":[{"internalType":"address","name":"","type":"address"}],"stateMutability":"view","type":"function"},{"inputs":[{"internalType":"uint256","name":"tokenId","type":"uint256"}],"name":"ownerOf","outputs":[{"internalType":"address","name":"","type":"address"}],"stateMutability":"view","type":"function"},{"inputs":[{"internalType":"uint256","name":"","type":"uint256"}],"name":"owners","outputs":[{"internalType":"address","name":"","type":"address"}],"stateMutability":"view","type":"function"},{"inputs":[{"internalType":"uint256","name":"","type":"uint256"}],"name":"postToCID","outputs":[{"internalType":"string","name":"","type":"string"}],"stateMutability":"view","type":"function"},{"inputs":[{"internalType":"uint256","name":"","type":"uint256"}],"name":"posts","outputs":[{"internalType":"uint256","name":"","type":"uint256"}],"stateMutability":"view","type":"function"},{"inputs":[],"name":"profileDescription","outputs":[{"internalType":"string","name":"","type":"string"}],"stateMutability":"view","type":"function"},{"inputs":[],"name":"profileName","outputs":[{"internalType":"string","name":"","type":"string"}],"stateMutability":"view","type":"function"},{"inputs":[],"name":"profilePictureLink","outputs":[{"internalType":"string","name":"","type":"string"}],"stateMutability":"view","type":"function"},{"inputs":[{"internalType":"address","name":"_otherProfile","type":"address"}],"name":"proposeConnect","outputs":[],"stateMutability":"nonpayable","type":"function"},{"inputs":[{"internalType":"address","name":"_ownerToRemove","type":"address"}],"name":"removeOwner","outputs":[],"stateMutability":"nonpayable","type":"function"},{"inputs":[{"internalType":"uint256","name":"_tokenId","type":"uint256"}],"name":"removePost","outputs":[],"stateMutability":"nonpayable","type":"function"},{"inputs":[],"name":"renounceOwnership","outputs":[],"stateMutability":"nonpayable","type":"function"},{"inputs":[{"internalType":"address","name":"from","type":"address"},{"internalType":"address","name":"to","type":"address"},{"internalType":"uint256","name":"tokenId","type":"uint256"}],"name":"safeTransferFrom","outputs":[],"stateMutability":"nonpayable","type":"function"},{"inputs":[{"internalType":"address","name":"from","type":"address"},{"internalType":"address","name":"to","type":"address"},{"internalType":"uint256","name":"tokenId","type":"uint256"},{"internalType":"bytes","name":"data","type":"bytes"}],"name":"safeTransferFrom","outputs":[],"stateMutability":"nonpayable","type":"function"},{"inputs":[{"internalType":"address","name":"operator","type":"address"},{"internalType":"bool","name":"approved","type":"bool"}],"name":"setApprovalForAll","outputs":[],"stateMutability":"nonpayable","type":"function"},{"inputs":[{"internalType":"bytes4","name":"interfaceId","type":"bytes4"}],"name":"supportsInterface","outputs":[{"internalType":"bool","name":"","type":"bool"}],"stateMutability":"view","type":"function"},{"inputs":[],"name":"symbol","outputs":[{"internalType":"string","name":"","type":"string"}],"stateMutability":"view","type":"function"},{"inputs":[{"internalType":"uint256","name":"tokenId","type":"uint256"}],"name":"tokenURI","outputs":[{"internalType":"string","name":"","type":"string"}],"stateMutability":"view","type":"function"},{"inputs":[{"internalType":"address","name":"from","type":"address"},{"internalType":"address","name":"to","type":"address"},{"internalType":"uint256","name":"tokenId","type":"uint256"}],"name":"transferFrom","outputs":[],"stateMutability":"nonpayable","type":"function"},{"inputs":[{"internalType":"address","name":"newOwner","type":"address"}],"name":"transferOwnership","outputs":[],"stateMutability":"nonpayable","type":"function"},{"inputs":[{"internalType":"string","name":"_name","type":"string"},{"internalType":"string","name":"_description","type":"string"},{"internalType":"string","name":"_pictureLink","type":"string"}],"name":"updateProfile","outputs":[],"stateMutability":"nonpayable","type":"function"}],"evm":{"bytecode":{"linkReferences":{},"object":"60806040523480156200001157600080fd5b506040516200532f3803806200532f833981810160405281019062000037919062000444565b6040518060400160405280600781526020017f50726f66696c65000000000000000000000000000000000000000000000000008152506040518060400160405280600381526020017f50524600000000000000000000000000000000000000000000000000000000008152508160009081620000b4919062000748565b508060019081620000c6919062000748565b505050620000e9620000dd620001e360201b60201c565b620001eb60201b60201c565b8260089081620000fa919062000748565b5081600990816200010c919062000748565b5080600a90816200011e919062000748565b50600d339080600181540180825580915050600190039060005260206000200160009091909190916101000a81548173ffffffffffffffffffffffffffffffffffffffff021916908373ffffffffffffffffffffffffffffffffffffffff1602179055506001600e60003373ffffffffffffffffffffffffffffffffffffffff1673ffffffffffffffffffffffffffffffffffffffff16815260200190815260200160002060006101000a81548160ff0219169083151502179055505050506200082f565b600033905090565b6000600760009054906101000a900473ffffffffffffffffffffffffffffffffffffffff16905081600760006101000a81548173ffffffffffffffffffffffffffffffffffffffff021916908373ffffffffffffffffffffffffffffffffffffffff1602179055508173ffffffffffffffffffffffffffffffffffffffff168173ffffffffffffffffffffffffffffffffffffffff167f8be0079c531659141344cd1fd0a4f28419497f9722a3daafe3b4186f6b6457e060405160405180910390a35050565b6000604051905090565b600080fd5b600080fd5b600080fd5b600080fd5b6000601f19601f8301169050919050565b7f4e487b7100000000000000000000000000000000000000000000000000000000600052604160045260246000fd5b6200031a82620002cf565b810181811067ffffffffffffffff821117156200033c576200033b620002e0565b5b80604052505050565b600062000351620002b1565b90506200035f82826200030f565b919050565b600067ffffffffffffffff821115620003825762000381620002e0565b5b6200038d82620002cf565b9050602081019050919050565b60005b83811015620003ba5780820151818401526020810190506200039d565b60008484015250505050565b6000620003dd620003d78462000364565b62000345565b905082815260208101848484011115620003fc57620003fb620002ca565b5b620004098482856200039a565b509392505050565b600082601f830112620004295762000428620002c5565b5b81516200043b848260208601620003c6565b91505092915050565b60008060006060848603121562000460576200045f620002bb565b5b600084015167ffffffffffffffff811115620004815762000480620002c0565b5b6200048f8682870162000411565b935050602084015167ffffffffffffffff811115620004b357620004b2620002c0565b5b620004c18682870162000411565b925050604084015167ffffffffffffffff811115620004e557620004e4620002c0565b5b620004f38682870162000411565b9150509250925092565b600081519050919050565b7f4e487b7100000000000000000000000000000000000000000000000000000000600052602260045260246000fd5b600060028204905060018216806200055057607f821691505b60208210810362000566576200056562000508565b5b50919050565b60008190508160005260206000209050919050565b60006020601f8301049050919050565b600082821b905092915050565b600060088302620005d07fffffffffffffffffffffffffffffffffffffffffffffffffffffffffffffffff8262000591565b620005dc868362000591565b95508019841693508086168417925050509392505050565b6000819050919050565b6000819050919050565b600062000629620006236200061d84620005f4565b620005fe565b620005f4565b9050919050565b6000819050919050565b620006458362000608565b6200065d620006548262000630565b8484546200059e565b825550505050565b600090565b6200067462000665565b620006818184846200063a565b505050565b5b81811015620006a9576200069d6000826200066a565b60018101905062000687565b5050565b601f821115620006f857620006c2816200056c565b620006cd8462000581565b81016020851015620006dd578190505b620006f5620006ec8562000581565b83018262000686565b50505b505050565b600082821c905092915050565b60006200071d60001984600802620006fd565b1980831691505092915050565b60006200073883836200070a565b9150826002028217905092915050565b6200075382620004fd565b67ffffffffffffffff8111156200076f576200076e620002e0565b5b6200077b825462000537565b62000788828285620006ad565b600060209050601f831160018114620007c05760008415620007ab578287015190505b620007b785826200072a565b86555062000827565b601f198416620007d0866200056c565b60005b82811015620007fa57848901518255600182019150602085019450602081019050620007d3565b868310156200081a578489015162000816601f8916826200070a565b8355505b6001600288020188555050505b505050505050565b614af0806200083f6000396000f3fe608060405234801561001057600080fd5b50600436106102115760003560e01c806342966c68116101255780638fe55bd8116100ad578063b88d4fde1161007c578063b88d4fde14610622578063c5da76041461063e578063c87b56dd1461065c578063e985e9c51461068c578063f2fde38b146106bc57610211565b80638fe55bd81461059a57806395d89b41146105ca578063a22cb465146105e8578063a3e398111461060457610211565b806370a08231116100f457806370a0823114610508578063715018a61461053857806375da616b1461054257806378fd967f1461055e5780638da5cb5b1461057c57610211565b806342966c68146104845780634939bd5e146104a05780636352211e146104bc5780637065cb48146104ec57610211565b80631105a5eb116101a8578063173825d911610177578063173825d9146103e257806323b872dd146103fe578063256dd92e1461041a5780632f54bf6e1461043857806342842e0e1461046857610211565b80631105a5eb1461035e57806313ee616f1461037a578063150b7a02146103965780631721ed48146103c657610211565b8063081812fc116101e4578063081812fc146102c4578063095ea7b3146102f45780630b1e7f83146103105780630fc88d841461034057610211565b806301ffc9a714610216578063025e7c271461024657806306fdde031461027657806307f3c85c14610294575b600080fd5b610230600480360381019061022b91906132f0565b6106d8565b60405161023d9190613338565b60405180910390f35b610260600480360381019061025b9190613389565b6106ea565b60405161026d91906133f7565b60405180910390f35b61027e610729565b60405161028b91906134a2565b60405180910390f35b6102ae60048036038101906102a991906134f0565b6107bb565b6040516102bb9190613338565b60405180910390f35b6102de60048036038101906102d99190613389565b610811565b6040516102eb91906133f7565b60405180910390f35b61030e6004803603810190610309919061351d565b610857565b005b61032a60048036038101906103259190613389565b61096e565b604051610337919061356c565b60405180910390f35b610348610992565b6040516103559190613645565b60405180910390f35b6103786004803603810190610373919061379c565b610a20565b005b610394600480360381019061038f9190613843565b610ae1565b005b6103b060048036038101906103ab919061392d565b610c3d565b6040516103bd91906139bf565b60405180910390f35b6103e060048036038101906103db9190613389565b610c51565b005b6103fc60048036038101906103f791906134f0565b610e14565b005b610418600480360381019061041391906139da565b61115c565b005b6104226111bc565b60405161042f9190613b39565b60405180910390f35b610452600480360381019061044d91906134f0565b611318565b60405161045f9190613338565b60405180910390f35b610482600480360381019061047d91906139da565b611338565b005b61049e60048036038101906104999190613389565b611358565b005b6104ba60048036038101906104b591906134f0565b6113b4565b005b6104d660048036038101906104d19190613389565b6114c5565b6040516104e391906133f7565b60405180910390f35b610506600480360381019061050191906134f0565b61154b565b005b610522600480360381019061051d91906134f0565b611765565b60405161052f919061356c565b60405180910390f35b61054061181c565b005b61055c600480360381019061055791906134f0565b611830565b005b610566611960565b60405161057391906134a2565b60405180910390f35b6105846119ee565b60405161059191906133f7565b60405180910390f35b6105b460048036038101906105af9190613389565b611a18565b6040516105c191906134a2565b60405180910390f35b6105d2611ab8565b6040516105df91906134a2565b60405180910390f35b61060260048036038101906105fd9190613b87565b611b4a565b005b61060c611b60565b60405161061991906134a2565b60405180910390f35b61063c6004803603810190610637919061392d565b611bee565b005b610646611c50565b60405161065391906134a2565b60405180910390f35b61067660048036038101906106719190613389565b611cde565b60405161068391906134a2565b60405180910390f35b6106a660048036038101906106a19190613bc7565b611cf0565b6040516106b39190613338565b60405180910390f35b6106d660048036038101906106d191906134f0565b611d84565b005b60006106e382611e07565b9050919050565b600d81815481106106fa57600080fd5b906000526020600020016000915054906101000a900473ffffffffffffffffffffffffffffffffffffffff1681565b60606000805461073890613c36565b80601f016020809104026020016040519081016040528092919081815260200182805461076490613c36565b80156107b15780601f10610786576101008083540402835291602001916107b1565b820191906000526020600020905b81548152906001019060200180831161079457829003601f168201915b5050505050905090565b6000601260008373ffffffffffffffffffffffffffffffffffffffff1673ffffffffffffffffffffffffffffffffffffffff16815260200190815260200160002060009054906101000a900460ff169050919050565b600061081c82611e68565b6004600083815260200190815260200160002060009054906101000a900473ffffffffffffffffffffffffffffffffffffffff169050919050565b6000610862826114c5565b90508073ffffffffffffffffffffffffffffffffffffffff168373ffffffffffffffffffffffffffffffffffffffff16036108d2576040517f08c379a00000000000000000000000000000000000000000000000000000000081526004016108c990613cd9565b60405180910390fd5b8073ffffffffffffffffffffffffffffffffffffffff166108f1611eb3565b73ffffffffffffffffffffffffffffffffffffffff161480610920575061091f8161091a611eb3565b611cf0565b5b61095f576040517f08c379a000000000000000000000000000000000000000000000000000000000815260040161095690613d6b565b60405180910390fd5b6109698383611ebb565b505050565b600f818154811061097e57600080fd5b906000526020600020016000915090505481565b60606011805480602002602001604051908101604052809291908181526020018280548015610a1657602002820191906000526020600020905b8160009054906101000a900473ffffffffffffffffffffffffffffffffffffffff1673ffffffffffffffffffffffffffffffffffffffff16815260200190600101908083116109cc575b5050505050905090565b600e60003373ffffffffffffffffffffffffffffffffffffffff1673ffffffffffffffffffffffffffffffffffffffff16815260200190815260200160002060009054906101000a900460ff16610aac576040517f08c379a0000000000000000000000000000000000000000000000000000000008152600401610aa390613dd7565b60405180910390fd5b8260089081610abb9190613fa3565b508160099081610acb9190613fa3565b5080600a9081610adb9190613fa3565b50505050565b600e60003373ffffffffffffffffffffffffffffffffffffffff1673ffffffffffffffffffffffffffffffffffffffff16815260200190815260200160002060009054906101000a900460ff16610b6d576040517f08c379a0000000000000000000000000000000000000000000000000000000008152600401610b6490613dd7565b60405180910390fd5b6000600b549050600b6000815480929190610b87906140a4565b9190505550610b963082611f74565b610ba08183611f92565b600f81908060018154018082558091505060019003906000526020600020016000909190919091505581601060008381526020019081526020016000209081610be99190613fa3565b50803073ffffffffffffffffffffffffffffffffffffffff167f9803f64fe126387888e61306d4629bf805f93b605de9beea8b40f6239f511a5f84604051610c3191906134a2565b60405180910390a35050565b600063150b7a0260e01b9050949350505050565b600e60003373ffffffffffffffffffffffffffffffffffffffff1673ffffffffffffffffffffffffffffffffffffffff16815260200190815260200160002060009054906101000a900460ff16610cdd576040517f08c379a0000000000000000000000000000000000000000000000000000000008152600401610cd490613dd7565b60405180910390fd5b610ce681612036565b60005b600f80549050811015610dad5781600f8281548110610d0b57610d0a6140ec565b5b906000526020600020015403610d9a57600f6001600f80549050610d2f919061411b565b81548110610d4057610d3f6140ec565b5b9060005260206000200154600f8281548110610d5f57610d5e6140ec565b5b9060005260206000200181905550600f805480610d7f57610d7e61414f565b5b60019003818190600052602060002001600090559055610dad565b8080610da5906140a4565b915050610ce9565b50601060008281526020019081526020016000206000610dcd9190613227565b803073ffffffffffffffffffffffffffffffffffffffff167fdf6442cc5b2ef43ec842be835a7e513c277ba2671e5d89ecb1f88bc12a6d539760405160405180910390a350565b600e60003373ffffffffffffffffffffffffffffffffffffffff1673ffffffffffffffffffffffffffffffffffffffff16815260200190815260200160002060009054906101000a900460ff16610ea0576040517f08c379a0000000000000000000000000000000000000000000000000000000008152600401610e9790613dd7565b60405180910390fd5b600e60008273ffffffffffffffffffffffffffffffffffffffff1673ffffffffffffffffffffffffffffffffffffffff16815260200190815260200160002060009054906101000a900460ff16610f2c576040517f08c379a0000000000000000000000000000000000000000000000000000000008152600401610f23906141ca565b60405180910390fd5b6001600d8054905011610f74576040517f08c379a0000000000000000000000000000000000000000000000000000000008152600401610f6b90614236565b60405180910390fd5b6000600e60008373ffffffffffffffffffffffffffffffffffffffff1673ffffffffffffffffffffffffffffffffffffffff16815260200190815260200160002060006101000a81548160ff02191690831515021790555060005b600d80549050811015611158578173ffffffffffffffffffffffffffffffffffffffff16600d8281548110611007576110066140ec565b5b9060005260206000200160009054906101000a900473ffffffffffffffffffffffffffffffffffffffff1673ffffffffffffffffffffffffffffffffffffffff160361114557600d6001600d80549050611061919061411b565b81548110611072576110716140ec565b5b9060005260206000200160009054906101000a900473ffffffffffffffffffffffffffffffffffffffff16600d82815481106110b1576110b06140ec565b5b9060005260206000200160006101000a81548173ffffffffffffffffffffffffffffffffffffffff021916908373ffffffffffffffffffffffffffffffffffffffff160217905550600d80548061110b5761110a61414f565b5b6001900381819060005260206000200160006101000a81549073ffffffffffffffffffffffffffffffffffffffff02191690559055611158565b8080611150906140a4565b915050610fcf565b5050565b61116d611167611eb3565b82612042565b6111ac576040517f08c379a00000000000000000000000000000000000000000000000000000000081526004016111a3906142c8565b60405180910390fd5b6111b78383836120d7565b505050565b60606000600f8054905067ffffffffffffffff8111156111df576111de613671565b5b60405190808252806020026020018201604052801561121257816020015b60608152602001906001900390816111fd5790505b50905060005b600f805490508110156113105760106000600f838154811061123d5761123c6140ec565b5b90600052602060002001548152602001908152602001600020805461126190613c36565b80601f016020809104026020016040519081016040528092919081815260200182805461128d90613c36565b80156112da5780601f106112af576101008083540402835291602001916112da565b820191906000526020600020905b8154815290600101906020018083116112bd57829003601f168201915b50505050508282815181106112f2576112f16140ec565b5b60200260200101819052508080611308906140a4565b915050611218565b508091505090565b600e6020528060005260406000206000915054906101000a900460ff1681565b61135383838360405180602001604052806000815250611bee565b505050565b611369611363611eb3565b82612042565b6113a8576040517f08c379a000000000000000000000000000000000000000000000000000000000815260040161139f906142c8565b60405180910390fd5b6113b181612036565b50565b6113bd816107bb565b156113fd576040517f08c379a00000000000000000000000000000000000000000000000000000000081526004016113f490614334565b60405180910390fd5b8073ffffffffffffffffffffffffffffffffffffffff166375da616b306040518263ffffffff1660e01b815260040161143691906133f7565b600060405180830381600087803b15801561145057600080fd5b505af1158015611464573d6000803e3d6000fd5b505050508073ffffffffffffffffffffffffffffffffffffffff163073ffffffffffffffffffffffffffffffffffffffff167feb43d45051fbe432e688fda6ae7dfb8f51cab0caf2bec0b4429fc7af0d2a2b2760405160405180910390a350565b6000806114d1836123d0565b9050600073ffffffffffffffffffffffffffffffffffffffff168173ffffffffffffffffffffffffffffffffffffffff1603611542576040517f08c379a0000000000000000000000000000000000000000000000000000000008152600401611539906143a0565b60405180910390fd5b80915050919050565b600e60003373ffffffffffffffffffffffffffffffffffffffff1673ffffffffffffffffffffffffffffffffffffffff16815260200190815260200160002060009054906101000a900460ff166115d7576040517f08c379a00000000000000000000000000000000000000000000000000000000081526004016115ce90613dd7565b60405180910390fd5b600e60008273ffffffffffffffffffffffffffffffffffffffff1673ffffffffffffffffffffffffffffffffffffffff16815260200190815260200160002060009054906101000a900460ff1615611664576040517f08c379a000000000000000000000000000000000000000000000000000000000815260040161165b9061440c565b60405180910390fd5b600d819080600181540180825580915050600190039060005260206000200160009091909190916101000a81548173ffffffffffffffffffffffffffffffffffffffff021916908373ffffffffffffffffffffffffffffffffffffffff1602179055506001600e60008373ffffffffffffffffffffffffffffffffffffffff1673ffffffffffffffffffffffffffffffffffffffff16815260200190815260200160002060006101000a81548160ff0219169083151502179055508073ffffffffffffffffffffffffffffffffffffffff167f994a936646fe87ffe4f1e469d3d6aa417d6b855598397f323de5b449f765f0c360405160405180910390a250565b60008073ffffffffffffffffffffffffffffffffffffffff168273ffffffffffffffffffffffffffffffffffffffff16036117d5576040517f08c379a00000000000000000000000000000000000000000000000000000000081526004016117cc9061449e565b60405180910390fd5b600360008373ffffffffffffffffffffffffffffffffffffffff1673ffffffffffffffffffffffffffffffffffffffff168152602001908152602001600020549050919050565b61182461240d565b61182e600061248b565b565b600c6000815480929190611843906140a4565b91905055506001601260008373ffffffffffffffffffffffffffffffffffffffff1673ffffffffffffffffffffffffffffffffffffffff16815260200190815260200160002060006101000a81548160ff0219169083151502179055506011819080600181540180825580915050600190039060005260206000200160009091909190916101000a81548173ffffffffffffffffffffffffffffffffffffffff021916908373ffffffffffffffffffffffffffffffffffffffff1602179055503073ffffffffffffffffffffffffffffffffffffffff168173ffffffffffffffffffffffffffffffffffffffff167feb43d45051fbe432e688fda6ae7dfb8f51cab0caf2bec0b4429fc7af0d2a2b2760405160405180910390a350565b600a805461196d90613c36565b80601f016020809104026020016040519081016040528092919081815260200182805461199990613c36565b80156119e65780601f106119bb576101008083540402835291602001916119e6565b820191906000526020600020905b8154815290600101906020018083116119c957829003601f168201915b505050505081565b6000600760009054906101000a900473ffffffffffffffffffffffffffffffffffffffff16905090565b60106020528060005260406000206000915090508054611a3790613c36565b80601f0160208091040260200160405190810160405280929190818152602001828054611a6390613c36565b8015611ab05780601f10611a8557610100808354040283529160200191611ab0565b820191906000526020600020905b815481529060010190602001808311611a9357829003601f168201915b505050505081565b606060018054611ac790613c36565b80601f0160208091040260200160405190810160405280929190818152602001828054611af390613c36565b8015611b405780601f10611b1557610100808354040283529160200191611b40565b820191906000526020600020905b815481529060010190602001808311611b2357829003601f168201915b5050505050905090565b611b5c611b55611eb3565b8383612551565b5050565b60098054611b6d90613c36565b80601f0160208091040260200160405190810160405280929190818152602001828054611b9990613c36565b8015611be65780601f10611bbb57610100808354040283529160200191611be6565b820191906000526020600020905b815481529060010190602001808311611bc957829003601f168201915b505050505081565b611bff611bf9611eb3565b83612042565b611c3e576040517f08c379a0000000000000000000000000000000000000000000000000000000008152600401611c35906142c8565b60405180910390fd5b611c4a848484846126bd565b50505050565b60088054611c5d90613c36565b80601f0160208091040260200160405190810160405280929190818152602001828054611c8990613c36565b8015611cd65780601f10611cab57610100808354040283529160200191611cd6565b820191906000526020600020905b815481529060010190602001808311611cb957829003601f168201915b505050505081565b6060611ce982612719565b9050919050565b6000600560008473ffffffffffffffffffffffffffffffffffffffff1673ffffffffffffffffffffffffffffffffffffffff16815260200190815260200160002060008373ffffffffffffffffffffffffffffffffffffffff1673ffffffffffffffffffffffffffffffffffffffff16815260200190815260200160002060009054906101000a900460ff16905092915050565b611d8c61240d565b600073ffffffffffffffffffffffffffffffffffffffff168173ffffffffffffffffffffffffffffffffffffffff1603611dfb576040517f08c379a0000000000000000000000000000000000000000000000000000000008152600401611df290614530565b60405180910390fd5b611e048161248b565b50565b6000634906490660e01b7bffffffffffffffffffffffffffffffffffffffffffffffffffffffff1916827bffffffffffffffffffffffffffffffffffffffffffffffffffffffff19161480611e615750611e608261282b565b5b9050919050565b611e718161290d565b611eb0576040517f08c379a0000000000000000000000000000000000000000000000000000000008152600401611ea7906143a0565b60405180910390fd5b50565b600033905090565b816004600083815260200190815260200160002060006101000a81548173ffffffffffffffffffffffffffffffffffffffff021916908373ffffffffffffffffffffffffffffffffffffffff160217905550808273ffffffffffffffffffffffffffffffffffffffff16611f2e836114c5565b73ffffffffffffffffffffffffffffffffffffffff167f8c5be1e5ebec7d5bd14f71427d1e84f3dd0314c0f7b2291e5b200ac8c7c3b92560405160405180910390a45050565b611f8e82826040518060200160405280600081525061294e565b5050565b611f9b8261290d565b611fda576040517f08c379a0000000000000000000000000000000000000000000000000000000008152600401611fd1906145c2565b60405180910390fd5b80600660008481526020019081526020016000209081611ffa9190613fa3565b507ff8e1a15aba9398e019f0b49df1a4fde98ee17ae345cb5f6b5e2c27f5033e8ce78260405161202a919061356c565b60405180910390a15050565b61203f816129a9565b50565b60008061204e836114c5565b90508073ffffffffffffffffffffffffffffffffffffffff168473ffffffffffffffffffffffffffffffffffffffff161480612090575061208f8185611cf0565b5b806120ce57508373ffffffffffffffffffffffffffffffffffffffff166120b684610811565b73ffffffffffffffffffffffffffffffffffffffff16145b91505092915050565b8273ffffffffffffffffffffffffffffffffffffffff166120f7826114c5565b73ffffffffffffffffffffffffffffffffffffffff161461214d576040517f08c379a000000000000000000000000000000000000000000000000000000000815260040161214490614654565b60405180910390fd5b600073ffffffffffffffffffffffffffffffffffffffff168273ffffffffffffffffffffffffffffffffffffffff16036121bc576040517f08c379a00000000000000000000000000000000000000000000000000000000081526004016121b3906146e6565b60405180910390fd5b6121c983838360016129fc565b8273ffffffffffffffffffffffffffffffffffffffff166121e9826114c5565b73ffffffffffffffffffffffffffffffffffffffff161461223f576040517f08c379a000000000000000000000000000000000000000000000000000000000815260040161223690614654565b60405180910390fd5b6004600082815260200190815260200160002060006101000a81549073ffffffffffffffffffffffffffffffffffffffff02191690556001600360008573ffffffffffffffffffffffffffffffffffffffff1673ffffffffffffffffffffffffffffffffffffffff168152602001908152602001600020600082825403925050819055506001600360008473ffffffffffffffffffffffffffffffffffffffff1673ffffffffffffffffffffffffffffffffffffffff16815260200190815260200160002060008282540192505081905550816002600083815260200190815260200160002060006101000a81548173ffffffffffffffffffffffffffffffffffffffff021916908373ffffffffffffffffffffffffffffffffffffffff160217905550808273ffffffffffffffffffffffffffffffffffffffff168473ffffffffffffffffffffffffffffffffffffffff167fddf252ad1be2c89b69c2b068fc378daa952ba7f163c4a11628f55a4df523b3ef60405160405180910390a46123cb8383836001612a02565b505050565b60006002600083815260200190815260200160002060009054906101000a900473ffffffffffffffffffffffffffffffffffffffff169050919050565b612415611eb3565b73ffffffffffffffffffffffffffffffffffffffff166124336119ee565b73ffffffffffffffffffffffffffffffffffffffff1614612489576040517f08c379a000000000000000000000000000000000000000000000000000000000815260040161248090614752565b60405180910390fd5b565b6000600760009054906101000a900473ffffffffffffffffffffffffffffffffffffffff16905081600760006101000a81548173ffffffffffffffffffffffffffffffffffffffff021916908373ffffffffffffffffffffffffffffffffffffffff1602179055508173ffffffffffffffffffffffffffffffffffffffff168173ffffffffffffffffffffffffffffffffffffffff167f8be0079c531659141344cd1fd0a4f28419497f9722a3daafe3b4186f6b6457e060405160405180910390a35050565b8173ffffffffffffffffffffffffffffffffffffffff168373ffffffffffffffffffffffffffffffffffffffff16036125bf576040517f08c379a00000000000000000000000000000000000000000000000000000000081526004016125b6906147be565b60405180910390fd5b80600560008573ffffffffffffffffffffffffffffffffffffffff1673ffffffffffffffffffffffffffffffffffffffff16815260200190815260200160002060008473ffffffffffffffffffffffffffffffffffffffff1673ffffffffffffffffffffffffffffffffffffffff16815260200190815260200160002060006101000a81548160ff0219169083151502179055508173ffffffffffffffffffffffffffffffffffffffff168373ffffffffffffffffffffffffffffffffffffffff167f17307eab39ab6107e8899845ad3d59bd9653f200f220920489ca2b5937696c31836040516126b09190613338565b60405180910390a3505050565b6126c88484846120d7565b6126d484848484612a08565b612713576040517f08c379a000000000000000000000000000000000000000000000000000000000815260040161270a90614850565b60405180910390fd5b50505050565b606061272482611e68565b600060066000848152602001908152602001600020805461274490613c36565b80601f016020809104026020016040519081016040528092919081815260200182805461277090613c36565b80156127bd5780601f10612792576101008083540402835291602001916127bd565b820191906000526020600020905b8154815290600101906020018083116127a057829003601f168201915b5050505050905060006127ce612b8f565b905060008151036127e3578192505050612826565b6000825111156128185780826040516020016128009291906148ac565b60405160208183030381529060405292505050612826565b61282184612ba6565b925050505b919050565b60007f80ac58cd000000000000000000000000000000000000000000000000000000007bffffffffffffffffffffffffffffffffffffffffffffffffffffffff1916827bffffffffffffffffffffffffffffffffffffffffffffffffffffffff191614806128f657507f5b5e139f000000000000000000000000000000000000000000000000000000007bffffffffffffffffffffffffffffffffffffffffffffffffffffffff1916827bffffffffffffffffffffffffffffffffffffffffffffffffffffffff1916145b80612906575061290582612c0e565b5b9050919050565b60008073ffffffffffffffffffffffffffffffffffffffff1661292f836123d0565b73ffffffffffffffffffffffffffffffffffffffff1614159050919050565b6129588383612c78565b6129656000848484612a08565b6129a4576040517f08c379a000000000000000000000000000000000000000000000000000000000815260040161299b90614850565b60405180910390fd5b505050565b6129b281612e95565b60006006600083815260200190815260200160002080546129d290613c36565b9050146129f9576006600082815260200190815260200160002060006129f89190613227565b5b50565b50505050565b50505050565b6000612a298473ffffffffffffffffffffffffffffffffffffffff16612fe3565b15612b82578373ffffffffffffffffffffffffffffffffffffffff1663150b7a02612a52611eb3565b8786866040518563ffffffff1660e01b8152600401612a749493929190614925565b6020604051808303816000875af1925050508015612ab057506040513d601f19601f82011682018060405250810190612aad9190614986565b60015b612b32573d8060008114612ae0576040519150601f19603f3d011682016040523d82523d6000602084013e612ae5565b606091505b506000815103612b2a576040517f08c379a0000000000000000000000000000000000000000000000000000000008152600401612b2190614850565b60405180910390fd5b805181602001fd5b63150b7a0260e01b7bffffffffffffffffffffffffffffffffffffffffffffffffffffffff1916817bffffffffffffffffffffffffffffffffffffffffffffffffffffffff191614915050612b87565b600190505b949350505050565b606060405180602001604052806000815250905090565b6060612bb182611e68565b6000612bbb612b8f565b90506000815111612bdb5760405180602001604052806000815250612c06565b80612be584613006565b604051602001612bf69291906148ac565b6040516020818303038152906040525b915050919050565b60007f01ffc9a7000000000000000000000000000000000000000000000000000000007bffffffffffffffffffffffffffffffffffffffffffffffffffffffff1916827bffffffffffffffffffffffffffffffffffffffffffffffffffffffff1916149050919050565b600073ffffffffffffffffffffffffffffffffffffffff168273ffffffffffffffffffffffffffffffffffffffff1603612ce7576040517f08c379a0000000000000000000000000000000000000000000000000000000008152600401612cde906149ff565b60405180910390fd5b612cf08161290d565b15612d30576040517f08c379a0000000000000000000000000000000000000000000000000000000008152600401612d2790614a6b565b60405180910390fd5b612d3e6000838360016129fc565b612d478161290d565b15612d87576040517f08c379a0000000000000000000000000000000000000000000000000000000008152600401612d7e90614a6b565b60405180910390fd5b6001600360008473ffffffffffffffffffffffffffffffffffffffff1673ffffffffffffffffffffffffffffffffffffffff16815260200190815260200160002060008282540192505081905550816002600083815260200190815260200160002060006101000a81548173ffffffffffffffffffffffffffffffffffffffff021916908373ffffffffffffffffffffffffffffffffffffffff160217905550808273ffffffffffffffffffffffffffffffffffffffff16600073ffffffffffffffffffffffffffffffffffffffff167fddf252ad1be2c89b69c2b068fc378daa952ba7f163c4a11628f55a4df523b3ef60405160405180910390a4612e91600083836001612a02565b5050565b6000612ea0826114c5565b9050612eb08160008460016129fc565b612eb9826114c5565b90506004600083815260200190815260200160002060006101000a81549073ffffffffffffffffffffffffffffffffffffffff02191690556001600360008373ffffffffffffffffffffffffffffffffffffffff1673ffffffffffffffffffffffffffffffffffffffff168152602001908152602001600020600082825403925050819055506002600083815260200190815260200160002060006101000a81549073ffffffffffffffffffffffffffffffffffffffff021916905581600073ffffffffffffffffffffffffffffffffffffffff168273ffffffffffffffffffffffffffffffffffffffff167fddf252ad1be2c89b69c2b068fc378daa952ba7f163c4a11628f55a4df523b3ef60405160405180910390a4612fdf816000846001612a02565b5050565b6000808273ffffffffffffffffffffffffffffffffffffffff163b119050919050565b606060006001613015846130d4565b01905060008167ffffffffffffffff81111561303457613033613671565b5b6040519080825280601f01601f1916602001820160405280156130665781602001600182028036833780820191505090505b509050600082602001820190505b6001156130c9578080600190039150507f3031323334353637383961626364656600000000000000000000000000000000600a86061a8153600a85816130bd576130bc614a8b565b5b04945060008503613074575b819350505050919050565b600080600090507a184f03e93ff9f4daa797ed6e38ed64bf6a1f0100000000000000008310613132577a184f03e93ff9f4daa797ed6e38ed64bf6a1f010000000000000000838161312857613127614a8b565b5b0492506040810190505b6d04ee2d6d415b85acef8100000000831061316f576d04ee2d6d415b85acef8100000000838161316557613164614a8b565b5b0492506020810190505b662386f26fc10000831061319e57662386f26fc10000838161319457613193614a8b565b5b0492506010810190505b6305f5e10083106131c7576305f5e10083816131bd576131bc614a8b565b5b0492506008810190505b61271083106131ec5761271083816131e2576131e1614a8b565b5b0492506004810190505b6064831061320f576064838161320557613204614a8b565b5b0492506002810190505b600a831061321e576001810190505b80915050919050565b50805461323390613c36565b6000825580601f106132455750613264565b601f0160209004906000526020600020908101906132639190613267565b5b50565b5b80821115613280576000816000905550600101613268565b5090565b6000604051905090565b600080fd5b600080fd5b60007fffffffff0000000000000000000000000000000000000000000000000000000082169050919050565b6132cd81613298565b81146132d857600080fd5b50565b6000813590506132ea816132c4565b92915050565b6000602082840312156133065761330561328e565b5b6000613314848285016132db565b91505092915050565b60008115159050919050565b6133328161331d565b82525050565b600060208201905061334d6000830184613329565b92915050565b6000819050919050565b61336681613353565b811461337157600080fd5b50565b6000813590506133838161335d565b92915050565b60006020828403121561339f5761339e61328e565b5b60006133ad84828501613374565b91505092915050565b600073ffffffffffffffffffffffffffffffffffffffff82169050919050565b60006133e1826133b6565b9050919050565b6133f1816133d6565b82525050565b600060208201905061340c60008301846133e8565b92915050565b600081519050919050565b600082825260208201905092915050565b60005b8381101561344c578082015181840152602081019050613431565b60008484015250505050565b6000601f19601f8301169050919050565b600061347482613412565b61347e818561341d565b935061348e81856020860161342e565b61349781613458565b840191505092915050565b600060208201905081810360008301526134bc8184613469565b905092915050565b6134cd816133d6565b81146134d857600080fd5b50565b6000813590506134ea816134c4565b92915050565b6000602082840312156135065761350561328e565b5b6000613514848285016134db565b91505092915050565b600080604083850312156135345761353361328e565b5b6000613542858286016134db565b925050602061355385828601613374565b9150509250929050565b61356681613353565b82525050565b6000602082019050613581600083018461355d565b92915050565b600081519050919050565b600082825260208201905092915050565b6000819050602082019050919050565b6135bc816133d6565b82525050565b60006135ce83836135b3565b60208301905092915050565b6000602082019050919050565b60006135f282613587565b6135fc8185613592565b9350613607836135a3565b8060005b8381101561363857815161361f88826135c2565b975061362a836135da565b92505060018101905061360b565b5085935050505092915050565b6000602082019050818103600083015261365f81846135e7565b905092915050565b600080fd5b600080fd5b7f4e487b7100000000000000000000000000000000000000000000000000000000600052604160045260246000fd5b6136a982613458565b810181811067ffffffffffffffff821117156136c8576136c7613671565b5b80604052505050565b60006136db613284565b90506136e782826136a0565b919050565b600067ffffffffffffffff82111561370757613706613671565b5b61371082613458565b9050602081019050919050565b82818337600083830152505050565b600061373f61373a846136ec565b6136d1565b90508281526020810184848401111561375b5761375a61366c565b5b61376684828561371d565b509392505050565b600082601f83011261378357613782613667565b5b813561379384826020860161372c565b91505092915050565b6000806000606084860312156137b5576137b461328e565b5b600084013567ffffffffffffffff8111156137d3576137d2613293565b5b6137df8682870161376e565b935050602084013567ffffffffffffffff811115613800576137ff613293565b5b61380c8682870161376e565b925050604084013567ffffffffffffffff81111561382d5761382c613293565b5b6138398682870161376e565b9150509250925092565b6000602082840312156138595761385861328e565b5b600082013567ffffffffffffffff81111561387757613876613293565b5b6138838482850161376e565b91505092915050565b600067ffffffffffffffff8211156138a7576138a6613671565b5b6138b082613458565b9050602081019050919050565b60006138d06138cb8461388c565b6136d1565b9050828152602081018484840111156138ec576138eb61366c565b5b6138f784828561371d565b509392505050565b600082601f83011261391457613913613667565b5b81356139248482602086016138bd565b91505092915050565b600080600080608085870312156139475761394661328e565b5b6000613955878288016134db565b9450506020613966878288016134db565b935050604061397787828801613374565b925050606085013567ffffffffffffffff81111561399857613997613293565b5b6139a4878288016138ff565b91505092959194509250565b6139b981613298565b82525050565b60006020820190506139d460008301846139b0565b92915050565b6000806000606084860312156139f3576139f261328e565b5b6000613a01868287016134db565b9350506020613a12868287016134db565b9250506040613a2386828701613374565b9150509250925092565b600081519050919050565b600082825260208201905092915050565b6000819050602082019050919050565b600082825260208201905092915050565b6000613a7582613412565b613a7f8185613a59565b9350613a8f81856020860161342e565b613a9881613458565b840191505092915050565b6000613aaf8383613a6a565b905092915050565b6000602082019050919050565b6000613acf82613a2d565b613ad98185613a38565b935083602082028501613aeb85613a49565b8060005b85811015613b275784840389528151613b088582613aa3565b9450613b1383613ab7565b925060208a01995050600181019050613aef565b50829750879550505050505092915050565b60006020820190508181036000830152613b538184613ac4565b905092915050565b613b648161331d565b8114613b6f57600080fd5b50565b600081359050613b8181613b5b565b92915050565b60008060408385031215613b9e57613b9d61328e565b5b6000613bac858286016134db565b9250506020613bbd85828601613b72565b9150509250929050565b60008060408385031215613bde57613bdd61328e565b5b6000613bec858286016134db565b9250506020613bfd858286016134db565b9150509250929050565b7f4e487b7100000000000000000000000000000000000000000000000000000000600052602260045260246000fd5b60006002820490506001821680613c4e57607f821691505b602082108103613c6157613c60613c07565b5b50919050565b7f4552433732313a20617070726f76616c20746f2063757272656e74206f776e6560008201527f7200000000000000000000000000000000000000000000000000000000000000602082015250565b6000613cc360218361341d565b9150613cce82613c67565b604082019050919050565b60006020820190508181036000830152613cf281613cb6565b9050919050565b7f4552433732313a20617070726f76652063616c6c6572206973206e6f7420746f60008201527f6b656e206f776e6572206f7220617070726f76656420666f7220616c6c000000602082015250565b6000613d55603d8361341d565b9150613d6082613cf9565b604082019050919050565b60006020820190508181036000830152613d8481613d48565b9050919050565b7f4e6f7420616e206f776e65720000000000000000000000000000000000000000600082015250565b6000613dc1600c8361341d565b9150613dcc82613d8b565b602082019050919050565b60006020820190508181036000830152613df081613db4565b9050919050565b60008190508160005260206000209050919050565b60006020601f8301049050919050565b600082821b905092915050565b600060088302613e597fffffffffffffffffffffffffffffffffffffffffffffffffffffffffffffffff82613e1c565b613e638683613e1c565b95508019841693508086168417925050509392505050565b6000819050919050565b6000613ea0613e9b613e9684613353565b613e7b565b613353565b9050919050565b6000819050919050565b613eba83613e85565b613ece613ec682613ea7565b848454613e29565b825550505050565b600090565b613ee3613ed6565b613eee818484613eb1565b505050565b5b81811015613f1257613f07600082613edb565b600181019050613ef4565b5050565b601f821115613f5757613f2881613df7565b613f3184613e0c565b81016020851015613f40578190505b613f54613f4c85613e0c565b830182613ef3565b50505b505050565b600082821c905092915050565b6000613f7a60001984600802613f5c565b1980831691505092915050565b6000613f938383613f69565b9150826002028217905092915050565b613fac82613412565b67ffffffffffffffff811115613fc557613fc4613671565b5b613fcf8254613c36565b613fda828285613f16565b600060209050601f83116001811461400d5760008415613ffb578287015190505b6140058582613f87565b86555061406d565b601f19841661401b86613df7565b60005b828110156140435784890151825560018201915060208501945060208101905061401e565b86831015614060578489015161405c601f891682613f69565b8355505b6001600288020188555050505b505050505050565b7f4e487b7100000000000000000000000000000000000000000000000000000000600052601160045260246000fd5b60006140af82613353565b91507fffffffffffffffffffffffffffffffffffffffffffffffffffffffffffffffff82036140e1576140e0614075565b5b600182019050919050565b7f4e487b7100000000000000000000000000000000000000000000000000000000600052603260045260246000fd5b600061412682613353565b915061413183613353565b925082820390508181111561414957614148614075565b5b92915050565b7f4e487b7100000000000000000000000000000000000000000000000000000000600052603160045260246000fd5b7f41646472657373206973206e6f7420616e206f776e6572000000000000000000600082015250565b60006141b460178361341d565b91506141bf8261417e565b602082019050919050565b600060208201905081810360008301526141e3816141a7565b9050919050565b7f4174206c65617374206f6e65206f776e6572206d7573742072656d61696e0000600082015250565b6000614220601e8361341d565b915061422b826141ea565b602082019050919050565b6000602082019050818103600083015261424f81614213565b9050919050565b7f4552433732313a2063616c6c6572206973206e6f7420746f6b656e206f776e6560008201527f72206f7220617070726f76656400000000000000000000000000000000000000602082015250565b60006142b2602d8361341d565b91506142bd82614256565b604082019050919050565b600060208201905081810360008301526142e1816142a5565b9050919050565b7f436f6e6e656374696f6e20616c72656164792070726f706f7365640000000000600082015250565b600061431e601b8361341d565b9150614329826142e8565b602082019050919050565b6000602082019050818103600083015261434d81614311565b9050919050565b7f4552433732313a20696e76616c696420746f6b656e2049440000000000000000600082015250565b600061438a60188361341d565b915061439582614354565b602082019050919050565b600060208201905081810360008301526143b98161437d565b9050919050565b7f4164647265737320697320616c726561647920616e206f776e65720000000000600082015250565b60006143f6601b8361341d565b9150614401826143c0565b602082019050919050565b60006020820190508181036000830152614425816143e9565b9050919050565b7f4552433732313a2061646472657373207a65726f206973206e6f74206120766160008201527f6c6964206f776e65720000000000000000000000000000000000000000000000602082015250565b600061448860298361341d565b91506144938261442c565b604082019050919050565b600060208201905081810360008301526144b78161447b565b9050919050565b7f4f776e61626c653a206e6577206f776e657220697320746865207a65726f206160008201527f6464726573730000000000000000000000000000000000000000000000000000602082015250565b600061451a60268361341d565b9150614525826144be565b604082019050919050565b600060208201905081810360008301526145498161450d565b9050919050565b7f45524337323155524953746f726167653a2055524920736574206f66206e6f6e60008201527f6578697374656e7420746f6b656e000000000000000000000000000000000000602082015250565b60006145ac602e8361341d565b91506145b782614550565b604082019050919050565b600060208201905081810360008301526145db8161459f565b9050919050565b7f4552433732313a207472616e736665722066726f6d20696e636f72726563742060008201527f6f776e6572000000000000000000000000000000000000000000000000000000602082015250565b600061463e60258361341d565b9150614649826145e2565b604082019050919050565b6000602082019050818103600083015261466d81614631565b9050919050565b7f4552433732313a207472616e7366657220746f20746865207a65726f2061646460008201527f7265737300000000000000000000000000000000000000000000000000000000602082015250565b60006146d060248361341d565b91506146db82614674565b604082019050919050565b600060208201905081810360008301526146ff816146c3565b9050919050565b7f4f776e61626c653a2063616c6c6572206973206e6f7420746865206f776e6572600082015250565b600061473c60208361341d565b915061474782614706565b602082019050919050565b6000602082019050818103600083015261476b8161472f565b9050919050565b7f4552433732313a20617070726f766520746f2063616c6c657200000000000000600082015250565b60006147a860198361341d565b91506147b382614772565b602082019050919050565b600060208201905081810360008301526147d78161479b565b9050919050565b7f4552433732313a207472616e7366657220746f206e6f6e20455243373231526560008201527f63656976657220696d706c656d656e7465720000000000000000000000000000602082015250565b600061483a60328361341d565b9150614845826147de565b604082019050919050565b600060208201905081810360008301526148698161482d565b9050919050565b600081905092915050565b600061488682613412565b6148908185614870565b93506148a081856020860161342e565b80840191505092915050565b60006148b8828561487b565b91506148c4828461487b565b91508190509392505050565b600081519050919050565b600082825260208201905092915050565b60006148f7826148d0565b61490181856148db565b935061491181856020860161342e565b61491a81613458565b840191505092915050565b600060808201905061493a60008301876133e8565b61494760208301866133e8565b614954604083018561355d565b818103606083015261496681846148ec565b905095945050505050565b600081519050614980816132c4565b92915050565b60006020828403121561499c5761499b61328e565b5b60006149aa84828501614971565b91505092915050565b7f4552433732313a206d696e7420746f20746865207a65726f2061646472657373600082015250565b60006149e960208361341d565b91506149f4826149b3565b602082019050919050565b60006020820190508181036000830152614a18816149dc565b9050919050565b7f4552433732313a20746f6b656e20616c7265616479206d696e74656400000000600082015250565b6000614a55601c8361341d565b9150614a6082614a1f565b602082019050919050565b60006020820190508181036000830152614a8481614a48565b9050919050565b7f4e487b7100000000000000000000000000000000000000000000000000000000600052601260045260246000fdfea2646970667358221220039fa05f07057a8e3e30fda1e1e4d6eb72c3453089ac141c93c6cf5637e4d70664736f6c63430008120033","opcodes":"PUSH1 0x80 PUSH1 0x40 MSTORE CALLVALUE DUP1 ISZERO PUSH3 0x11 JUMPI PUSH1 0x0 DUP1 REVERT JUMPDEST POP PUSH1 0x40 MLOAD PUSH3 0x532F CODESIZE SUB DUP1 PUSH3 0x532F DUP4 CODECOPY DUP2 DUP2 ADD PUSH1 0x40 MSTORE DUP2 ADD SWAP1 PUSH3 0x37 SWAP2 SWAP1 PUSH3 0x444 JUMP JUMPDEST PUSH1 0x40 MLOAD DUP1 PUSH1 0x40 ADD PUSH1 0x40 MSTORE DUP1 PUSH1 0x7 DUP2 MSTORE PUSH1 0x20 ADD PUSH32 0x50726F66696C6500000000000000000000000000000000000000000000000000 DUP2 MSTORE POP PUSH1 0x40 MLOAD DUP1 PUSH1 0x40 ADD PUSH1 0x40 MSTORE DUP1 PUSH1 0x3 DUP2 MSTORE PUSH1 0x20 ADD PUSH32 0x5052460000000000000000000000000000000000000000000000000000000000 DUP2 MSTORE POP DUP2 PUSH1 0x0 SWAP1 DUP2 PUSH3 0xB4 SWAP2 SWAP1 PUSH3 0x748 JUMP JUMPDEST POP DUP1 PUSH1 0x1 SWAP1 DUP2 PUSH3 0xC6 SWAP2 SWAP1 PUSH3 0x748 JUMP JUMPDEST POP POP POP PUSH3 0xE9 PUSH3 0xDD PUSH3 0x1E3 PUSH1 0x20 SHL PUSH1 0x20 SHR JUMP JUMPDEST PUSH3 0x1EB PUSH1 0x20 SHL PUSH1 0x20 SHR JUMP JUMPDEST DUP3 PUSH1 0x8 SWAP1 DUP2 PUSH3 0xFA SWAP2 SWAP1 PUSH3 0x748 JUMP JUMPDEST POP DUP2 PUSH1 0x9 SWAP1 DUP2 PUSH3 0x10C SWAP2 SWAP1 PUSH3 0x748 JUMP JUMPDEST POP DUP1 PUSH1 0xA SWAP1 DUP2 PUSH3 0x11E SWAP2 SWAP1 PUSH3 0x748 JUMP JUMPDEST POP PUSH1 0xD CALLER SWAP1 DUP1 PUSH1 0x1 DUP2 SLOAD ADD DUP1 DUP3 SSTORE DUP1 SWAP2 POP POP PUSH1 0x1 SWAP1 SUB SWAP1 PUSH1 0x0 MSTORE PUSH1 0x20 PUSH1 0x0 KECCAK256 ADD PUSH1 0x0 SWAP1 SWAP2 SWAP1 SWAP2 SWAP1 SWAP2 PUSH2 0x100 EXP DUP2 SLOAD DUP2 PUSH20 0xFFFFFFFFFFFFFFFFFFFFFFFFFFFFFFFFFFFFFFFF MUL NOT AND SWAP1 DUP4 PUSH20 0xFFFFFFFFFFFFFFFFFFFFFFFFFFFFFFFFFFFFFFFF AND MUL OR SWAP1 SSTORE POP PUSH1 0x1 PUSH1 0xE PUSH1 0x0 CALLER PUSH20 0xFFFFFFFFFFFFFFFFFFFFFFFFFFFFFFFFFFFFFFFF AND PUSH20 0xFFFFFFFFFFFFFFFFFFFFFFFFFFFFFFFFFFFFFFFF AND DUP2 MSTORE PUSH1 0x20 ADD SWAP1 DUP2 MSTORE PUSH1 0x20 ADD PUSH1 0x0 KECCAK256 PUSH1 0x0 PUSH2 0x100 EXP DUP2 SLOAD DUP2 PUSH1 0xFF MUL NOT AND SWAP1 DUP4 ISZERO ISZERO MUL OR SWAP1 SSTORE POP POP POP POP PUSH3 0x82F JUMP JUMPDEST PUSH1 0x0 CALLER SWAP1 POP SWAP1 JUMP JUMPDEST PUSH1 0x0 PUSH1 0x7 PUSH1 0x0 SWAP1 SLOAD SWAP1 PUSH2 0x100 EXP SWAP1 DIV PUSH20 0xFFFFFFFFFFFFFFFFFFFFFFFFFFFFFFFFFFFFFFFF AND SWAP1 POP DUP2 PUSH1 0x7 PUSH1 0x0 PUSH2 0x100 EXP DUP2 SLOAD DUP2 PUSH20 0xFFFFFFFFFFFFFFFFFFFFFFFFFFFFFFFFFFFFFFFF MUL NOT AND SWAP1 DUP4 PUSH20 0xFFFFFFFFFFFFFFFFFFFFFFFFFFFFFFFFFFFFFFFF AND MUL OR SWAP1 SSTORE POP DUP2 PUSH20 0xFFFFFFFFFFFFFFFFFFFFFFFFFFFFFFFFFFFFFFFF AND DUP2 PUSH20 0xFFFFFFFFFFFFFFFFFFFFFFFFFFFFFFFFFFFFFFFF AND PUSH32 0x8BE0079C531659141344CD1FD0A4F28419497F9722A3DAAFE3B4186F6B6457E0 PUSH1 0x40 MLOAD PUSH1 0x40 MLOAD DUP1 SWAP2 SUB SWAP1 LOG3 POP POP JUMP JUMPDEST PUSH1 0x0 PUSH1 0x40 MLOAD SWAP1 POP SWAP1 JUMP JUMPDEST PUSH1 0x0 DUP1 REVERT JUMPDEST PUSH1 0x0 DUP1 REVERT JUMPDEST PUSH1 0x0 DUP1 REVERT JUMPDEST PUSH1 0x0 DUP1 REVERT JUMPDEST PUSH1 0x0 PUSH1 0x1F NOT PUSH1 0x1F DUP4 ADD AND SWAP1 POP SWAP2 SWAP1 POP JUMP JUMPDEST PUSH32 0x4E487B7100000000000000000000000000000000000000000000000000000000 PUSH1 0x0 MSTORE PUSH1 0x41 PUSH1 0x4 MSTORE PUSH1 0x24 PUSH1 0x0 REVERT JUMPDEST PUSH3 0x31A DUP3 PUSH3 0x2CF JUMP JUMPDEST DUP2 ADD DUP2 DUP2 LT PUSH8 0xFFFFFFFFFFFFFFFF DUP3 GT OR ISZERO PUSH3 0x33C JUMPI PUSH3 0x33B PUSH3 0x2E0 JUMP JUMPDEST JUMPDEST DUP1 PUSH1 0x40 MSTORE POP POP POP JUMP JUMPDEST PUSH1 0x0 PUSH3 0x351 PUSH3 0x2B1 JUMP JUMPDEST SWAP1 POP PUSH3 0x35F DUP3 DUP3 PUSH3 0x30F JUMP JUMPDEST SWAP2 SWAP1 POP JUMP JUMPDEST PUSH1 0x0 PUSH8 0xFFFFFFFFFFFFFFFF DUP3 GT ISZERO PUSH3 0x382 JUMPI PUSH3 0x381 PUSH3 0x2E0 JUMP JUMPDEST JUMPDEST PUSH3 0x38D DUP3 PUSH3 0x2CF JUMP JUMPDEST SWAP1 POP PUSH1 0x20 DUP2 ADD SWAP1 POP SWAP2 SWAP1 POP JUMP JUMPDEST PUSH1 0x0 JUMPDEST DUP4 DUP2 LT ISZERO PUSH3 0x3BA JUMPI DUP1 DUP3 ADD MLOAD DUP2 DUP5 ADD MSTORE PUSH1 0x20 DUP2 ADD SWAP1 POP PUSH3 0x39D JUMP JUMPDEST PUSH1 0x0 DUP5 DUP5 ADD MSTORE POP POP POP POP JUMP JUMPDEST PUSH1 0x0 PUSH3 0x3DD PUSH3 0x3D7 DUP5 PUSH3 0x364 JUMP JUMPDEST PUSH3 0x345 JUMP JUMPDEST SWAP1 POP DUP3 DUP2 MSTORE PUSH1 0x20 DUP2 ADD DUP5 DUP5 DUP5 ADD GT ISZERO PUSH3 0x3FC JUMPI PUSH3 0x3FB PUSH3 0x2CA JUMP JUMPDEST JUMPDEST PUSH3 0x409 DUP5 DUP3 DUP6 PUSH3 0x39A JUMP JUMPDEST POP SWAP4 SWAP3 POP POP POP JUMP JUMPDEST PUSH1 0x0 DUP3 PUSH1 0x1F DUP4 ADD SLT PUSH3 0x429 JUMPI PUSH3 0x428 PUSH3 0x2C5 JUMP JUMPDEST JUMPDEST DUP2 MLOAD PUSH3 0x43B DUP5 DUP3 PUSH1 0x20 DUP7 ADD PUSH3 0x3C6 JUMP JUMPDEST SWAP2 POP POP SWAP3 SWAP2 POP POP JUMP JUMPDEST PUSH1 0x0 DUP1 PUSH1 0x0 PUSH1 0x60 DUP5 DUP7 SUB SLT ISZERO PUSH3 0x460 JUMPI PUSH3 0x45F PUSH3 0x2BB JUMP JUMPDEST JUMPDEST PUSH1 0x0 DUP5 ADD MLOAD PUSH8 0xFFFFFFFFFFFFFFFF DUP2 GT ISZERO PUSH3 0x481 JUMPI PUSH3 0x480 PUSH3 0x2C0 JUMP JUMPDEST JUMPDEST PUSH3 0x48F DUP7 DUP3 DUP8 ADD PUSH3 0x411 JUMP JUMPDEST SWAP4 POP POP PUSH1 0x20 DUP5 ADD MLOAD PUSH8 0xFFFFFFFFFFFFFFFF DUP2 GT ISZERO PUSH3 0x4B3 JUMPI PUSH3 0x4B2 PUSH3 0x2C0 JUMP JUMPDEST JUMPDEST PUSH3 0x4C1 DUP7 DUP3 DUP8 ADD PUSH3 0x411 JUMP JUMPDEST SWAP3 POP POP PUSH1 0x40 DUP5 ADD MLOAD PUSH8 0xFFFFFFFFFFFFFFFF DUP2 GT ISZERO PUSH3 0x4E5 JUMPI PUSH3 0x4E4 PUSH3 0x2C0 JUMP JUMPDEST JUMPDEST PUSH3 0x4F3 DUP7 DUP3 DUP8 ADD PUSH3 0x411 JUMP JUMPDEST SWAP2 POP POP SWAP3 POP SWAP3 POP SWAP3 JUMP JUMPDEST PUSH1 0x0 DUP2 MLOAD SWAP1 POP SWAP2 SWAP1 POP JUMP JUMPDEST PUSH32 0x4E487B7100000000000000000000000000000000000000000000000000000000 PUSH1 0x0 MSTORE PUSH1 0x22 PUSH1 0x4 MSTORE PUSH1 0x24 PUSH1 0x0 REVERT JUMPDEST PUSH1 0x0 PUSH1 0x2 DUP3 DIV SWAP1 POP PUSH1 0x1 DUP3 AND DUP1 PUSH3 0x550 JUMPI PUSH1 0x7F DUP3 AND SWAP2 POP JUMPDEST PUSH1 0x20 DUP3 LT DUP2 SUB PUSH3 0x566 JUMPI PUSH3 0x565 PUSH3 0x508 JUMP JUMPDEST JUMPDEST POP SWAP2 SWAP1 POP JUMP JUMPDEST PUSH1 0x0 DUP2 SWAP1 POP DUP2 PUSH1 0x0 MSTORE PUSH1 0x20 PUSH1 0x0 KECCAK256 SWAP1 POP SWAP2 SWAP1 POP JUMP JUMPDEST PUSH1 0x0 PUSH1 0x20 PUSH1 0x1F DUP4 ADD DIV SWAP1 POP SWAP2 SWAP1 POP JUMP JUMPDEST PUSH1 0x0 DUP3 DUP3 SHL SWAP1 POP SWAP3 SWAP2 POP POP JUMP JUMPDEST PUSH1 0x0 PUSH1 0x8 DUP4 MUL PUSH3 0x5D0 PUSH32 0xFFFFFFFFFFFFFFFFFFFFFFFFFFFFFFFFFFFFFFFFFFFFFFFFFFFFFFFFFFFFFFFF DUP3 PUSH3 0x591 JUMP JUMPDEST PUSH3 0x5DC DUP7 DUP4 PUSH3 0x591 JUMP JUMPDEST SWAP6 POP DUP1 NOT DUP5 AND SWAP4 POP DUP1 DUP7 AND DUP5 OR SWAP3 POP POP POP SWAP4 SWAP3 POP POP POP JUMP JUMPDEST PUSH1 0x0 DUP2 SWAP1 POP SWAP2 SWAP1 POP JUMP JUMPDEST PUSH1 0x0 DUP2 SWAP1 POP SWAP2 SWAP1 POP JUMP JUMPDEST PUSH1 0x0 PUSH3 0x629 PUSH3 0x623 PUSH3 0x61D DUP5 PUSH3 0x5F4 JUMP JUMPDEST PUSH3 0x5FE JUMP JUMPDEST PUSH3 0x5F4 JUMP JUMPDEST SWAP1 POP SWAP2 SWAP1 POP JUMP JUMPDEST PUSH1 0x0 DUP2 SWAP1 POP SWAP2 SWAP1 POP JUMP JUMPDEST PUSH3 0x645 DUP4 PUSH3 0x608 JUMP JUMPDEST PUSH3 0x65D PUSH3 0x654 DUP3 PUSH3 0x630 JUMP JUMPDEST DUP5 DUP5 SLOAD PUSH3 0x59E JUMP JUMPDEST DUP3 SSTORE POP POP POP POP JUMP JUMPDEST PUSH1 0x0 SWAP1 JUMP JUMPDEST PUSH3 0x674 PUSH3 0x665 JUMP JUMPDEST PUSH3 0x681 DUP2 DUP5 DUP5 PUSH3 0x63A JUMP JUMPDEST POP POP POP JUMP JUMPDEST JUMPDEST DUP2 DUP2 LT ISZERO PUSH3 0x6A9 JUMPI PUSH3 0x69D PUSH1 0x0 DUP3 PUSH3 0x66A JUMP JUMPDEST PUSH1 0x1 DUP2 ADD SWAP1 POP PUSH3 0x687 JUMP JUMPDEST POP POP JUMP JUMPDEST PUSH1 0x1F DUP3 GT ISZERO PUSH3 0x6F8 JUMPI PUSH3 0x6C2 DUP2 PUSH3 0x56C JUMP JUMPDEST PUSH3 0x6CD DUP5 PUSH3 0x581 JUMP JUMPDEST DUP2 ADD PUSH1 0x20 DUP6 LT ISZERO PUSH3 0x6DD JUMPI DUP2 SWAP1 POP JUMPDEST PUSH3 0x6F5 PUSH3 0x6EC DUP6 PUSH3 0x581 JUMP JUMPDEST DUP4 ADD DUP3 PUSH3 0x686 JUMP JUMPDEST POP POP JUMPDEST POP POP POP JUMP JUMPDEST PUSH1 0x0 DUP3 DUP3 SHR SWAP1 POP SWAP3 SWAP2 POP POP JUMP JUMPDEST PUSH1 0x0 PUSH3 0x71D PUSH1 0x0 NOT DUP5 PUSH1 0x8 MUL PUSH3 0x6FD JUMP JUMPDEST NOT DUP1 DUP4 AND SWAP2 POP POP SWAP3 SWAP2 POP POP JUMP JUMPDEST PUSH1 0x0 PUSH3 0x738 DUP4 DUP4 PUSH3 0x70A JUMP JUMPDEST SWAP2 POP DUP3 PUSH1 0x2 MUL DUP3 OR SWAP1 POP SWAP3 SWAP2 POP POP JUMP JUMPDEST PUSH3 0x753 DUP3 PUSH3 0x4FD JUMP JUMPDEST PUSH8 0xFFFFFFFFFFFFFFFF DUP2 GT ISZERO PUSH3 0x76F JUMPI PUSH3 0x76E PUSH3 0x2E0 JUMP JUMPDEST JUMPDEST PUSH3 0x77B DUP3 SLOAD PUSH3 0x537 JUMP JUMPDEST PUSH3 0x788 DUP3 DUP3 DUP6 PUSH3 0x6AD JUMP JUMPDEST PUSH1 0x0 PUSH1 0x20 SWAP1 POP PUSH1 0x1F DUP4 GT PUSH1 0x1 DUP2 EQ PUSH3 0x7C0 JUMPI PUSH1 0x0 DUP5 ISZERO PUSH3 0x7AB JUMPI DUP3 DUP8 ADD MLOAD SWAP1 POP JUMPDEST PUSH3 0x7B7 DUP6 DUP3 PUSH3 0x72A JUMP JUMPDEST DUP7 SSTORE POP PUSH3 0x827 JUMP JUMPDEST PUSH1 0x1F NOT DUP5 AND PUSH3 0x7D0 DUP7 PUSH3 0x56C JUMP JUMPDEST PUSH1 0x0 JUMPDEST DUP3 DUP2 LT ISZERO PUSH3 0x7FA JUMPI DUP5 DUP10 ADD MLOAD DUP3 SSTORE PUSH1 0x1 DUP3 ADD SWAP2 POP PUSH1 0x20 DUP6 ADD SWAP5 POP PUSH1 0x20 DUP2 ADD SWAP1 POP PUSH3 0x7D3 JUMP JUMPDEST DUP7 DUP4 LT ISZERO PUSH3 0x81A JUMPI DUP5 DUP10 ADD MLOAD PUSH3 0x816 PUSH1 0x1F DUP10 AND DUP3 PUSH3 0x70A JUMP JUMPDEST DUP4 SSTORE POP JUMPDEST PUSH1 0x1 PUSH1 0x2 DUP9 MUL ADD DUP9 SSTORE POP POP POP JUMPDEST POP POP POP POP POP POP JUMP JUMPDEST PUSH2 0x4AF0 DUP1 PUSH3 0x83F PUSH1 0x0 CODECOPY PUSH1 0x0 RETURN INVALID PUSH1 0x80 PUSH1 0x40 MSTORE CALLVALUE DUP1 ISZERO PUSH2 0x10 JUMPI PUSH1 0x0 DUP1 REVERT JUMPDEST POP PUSH1 0x4 CALLDATASIZE LT PUSH2 0x211 JUMPI PUSH1 0x0 CALLDATALOAD PUSH1 0xE0 SHR DUP1 PUSH4 0x42966C68 GT PUSH2 0x125 JUMPI DUP1 PUSH4 0x8FE55BD8 GT PUSH2 0xAD JUMPI DUP1 PUSH4 0xB88D4FDE GT PUSH2 0x7C JUMPI DUP1 PUSH4 0xB88D4FDE EQ PUSH2 0x622 JUMPI DUP1 PUSH4 0xC5DA7604 EQ PUSH2 0x63E JUMPI DUP1 PUSH4 0xC87B56DD EQ PUSH2 0x65C JUMPI DUP1 PUSH4 0xE985E9C5 EQ PUSH2 0x68C JUMPI DUP1 PUSH4 0xF2FDE38B EQ PUSH2 0x6BC JUMPI PUSH2 0x211 JUMP JUMPDEST DUP1 PUSH4 0x8FE55BD8 EQ PUSH2 0x59A JUMPI DUP1 PUSH4 0x95D89B41 EQ PUSH2 0x5CA JUMPI DUP1 PUSH4 0xA22CB465 EQ PUSH2 0x5E8 JUMPI DUP1 PUSH4 0xA3E39811 EQ PUSH2 0x604 JUMPI PUSH2 0x211 JUMP JUMPDEST DUP1 PUSH4 0x70A08231 GT PUSH2 0xF4 JUMPI DUP1 PUSH4 0x70A08231 EQ PUSH2 0x508 JUMPI DUP1 PUSH4 0x715018A6 EQ PUSH2 0x538 JUMPI DUP1 PUSH4 0x75DA616B EQ PUSH2 0x542 JUMPI DUP1 PUSH4 0x78FD967F EQ PUSH2 0x55E JUMPI DUP1 PUSH4 0x8DA5CB5B EQ PUSH2 0x57C JUMPI PUSH2 0x211 JUMP JUMPDEST DUP1 PUSH4 0x42966C68 EQ PUSH2 0x484 JUMPI DUP1 PUSH4 0x4939BD5E EQ PUSH2 0x4A0 JUMPI DUP1 PUSH4 0x6352211E EQ PUSH2 0x4BC JUMPI DUP1 PUSH4 0x7065CB48 EQ PUSH2 0x4EC JUMPI PUSH2 0x211 JUMP JUMPDEST DUP1 PUSH4 0x1105A5EB GT PUSH2 0x1A8 JUMPI DUP1 PUSH4 0x173825D9 GT PUSH2 0x177 JUMPI DUP1 PUSH4 0x173825D9 EQ PUSH2 0x3E2 JUMPI DUP1 PUSH4 0x23B872DD EQ PUSH2 0x3FE JUMPI DUP1 PUSH4 0x256DD92E EQ PUSH2 0x41A JUMPI DUP1 PUSH4 0x2F54BF6E EQ PUSH2 0x438 JUMPI DUP1 PUSH4 0x42842E0E EQ PUSH2 0x468 JUMPI PUSH2 0x211 JUMP JUMPDEST DUP1 PUSH4 0x1105A5EB EQ PUSH2 0x35E JUMPI DUP1 PUSH4 0x13EE616F EQ PUSH2 0x37A JUMPI DUP1 PUSH4 0x150B7A02 EQ PUSH2 0x396 JUMPI DUP1 PUSH4 0x1721ED48 EQ PUSH2 0x3C6 JUMPI PUSH2 0x211 JUMP JUMPDEST DUP1 PUSH4 0x81812FC GT PUSH2 0x1E4 JUMPI DUP1 PUSH4 0x81812FC EQ PUSH2 0x2C4 JUMPI DUP1 PUSH4 0x95EA7B3 EQ PUSH2 0x2F4 JUMPI DUP1 PUSH4 0xB1E7F83 EQ PUSH2 0x310 JUMPI DUP1 PUSH4 0xFC88D84 EQ PUSH2 0x340 JUMPI PUSH2 0x211 JUMP JUMPDEST DUP1 PUSH4 0x1FFC9A7 EQ PUSH2 0x216 JUMPI DUP1 PUSH4 0x25E7C27 EQ PUSH2 0x246 JUMPI DUP1 PUSH4 0x6FDDE03 EQ PUSH2 0x276 JUMPI DUP1 PUSH4 0x7F3C85C EQ PUSH2 0x294 JUMPI JUMPDEST PUSH1 0x0 DUP1 REVERT JUMPDEST PUSH2 0x230 PUSH1 0x4 DUP1 CALLDATASIZE SUB DUP2 ADD SWAP1 PUSH2 0x22B SWAP2 SWAP1 PUSH2 0x32F0 JUMP JUMPDEST PUSH2 0x6D8 JUMP JUMPDEST PUSH1 0x40 MLOAD PUSH2 0x23D SWAP2 SWAP1 PUSH2 0x3338 JUMP JUMPDEST PUSH1 0x40 MLOAD DUP1 SWAP2 SUB SWAP1 RETURN JUMPDEST PUSH2 0x260 PUSH1 0x4 DUP1 CALLDATASIZE SUB DUP2 ADD SWAP1 PUSH2 0x25B SWAP2 SWAP1 PUSH2 0x3389 JUMP JUMPDEST PUSH2 0x6EA JUMP JUMPDEST PUSH1 0x40 MLOAD PUSH2 0x26D SWAP2 SWAP1 PUSH2 0x33F7 JUMP JUMPDEST PUSH1 0x40 MLOAD DUP1 SWAP2 SUB SWAP1 RETURN JUMPDEST PUSH2 0x27E PUSH2 0x729 JUMP JUMPDEST PUSH1 0x40 MLOAD PUSH2 0x28B SWAP2 SWAP1 PUSH2 0x34A2 JUMP JUMPDEST PUSH1 0x40 MLOAD DUP1 SWAP2 SUB SWAP1 RETURN JUMPDEST PUSH2 0x2AE PUSH1 0x4 DUP1 CALLDATASIZE SUB DUP2 ADD SWAP1 PUSH2 0x2A9 SWAP2 SWAP1 PUSH2 0x34F0 JUMP JUMPDEST PUSH2 0x7BB JUMP JUMPDEST PUSH1 0x40 MLOAD PUSH2 0x2BB SWAP2 SWAP1 PUSH2 0x3338 JUMP JUMPDEST PUSH1 0x40 MLOAD DUP1 SWAP2 SUB SWAP1 RETURN JUMPDEST PUSH2 0x2DE PUSH1 0x4 DUP1 CALLDATASIZE SUB DUP2 ADD SWAP1 PUSH2 0x2D9 SWAP2 SWAP1 PUSH2 0x3389 JUMP JUMPDEST PUSH2 0x811 JUMP JUMPDEST PUSH1 0x40 MLOAD PUSH2 0x2EB SWAP2 SWAP1 PUSH2 0x33F7 JUMP JUMPDEST PUSH1 0x40 MLOAD DUP1 SWAP2 SUB SWAP1 RETURN JUMPDEST PUSH2 0x30E PUSH1 0x4 DUP1 CALLDATASIZE SUB DUP2 ADD SWAP1 PUSH2 0x309 SWAP2 SWAP1 PUSH2 0x351D JUMP JUMPDEST PUSH2 0x857 JUMP JUMPDEST STOP JUMPDEST PUSH2 0x32A PUSH1 0x4 DUP1 CALLDATASIZE SUB DUP2 ADD SWAP1 PUSH2 0x325 SWAP2 SWAP1 PUSH2 0x3389 JUMP JUMPDEST PUSH2 0x96E JUMP JUMPDEST PUSH1 0x40 MLOAD PUSH2 0x337 SWAP2 SWAP1 PUSH2 0x356C JUMP JUMPDEST PUSH1 0x40 MLOAD DUP1 SWAP2 SUB SWAP1 RETURN JUMPDEST PUSH2 0x348 PUSH2 0x992 JUMP JUMPDEST PUSH1 0x40 MLOAD PUSH2 0x355 SWAP2 SWAP1 PUSH2 0x3645 JUMP JUMPDEST PUSH1 0x40 MLOAD DUP1 SWAP2 SUB SWAP1 RETURN JUMPDEST PUSH2 0x378 PUSH1 0x4 DUP1 CALLDATASIZE SUB DUP2 ADD SWAP1 PUSH2 0x373 SWAP2 SWAP1 PUSH2 0x379C JUMP JUMPDEST PUSH2 0xA20 JUMP JUMPDEST STOP JUMPDEST PUSH2 0x394 PUSH1 0x4 DUP1 CALLDATASIZE SUB DUP2 ADD SWAP1 PUSH2 0x38F SWAP2 SWAP1 PUSH2 0x3843 JUMP JUMPDEST PUSH2 0xAE1 JUMP JUMPDEST STOP JUMPDEST PUSH2 0x3B0 PUSH1 0x4 DUP1 CALLDATASIZE SUB DUP2 ADD SWAP1 PUSH2 0x3AB SWAP2 SWAP1 PUSH2 0x392D JUMP JUMPDEST PUSH2 0xC3D JUMP JUMPDEST PUSH1 0x40 MLOAD PUSH2 0x3BD SWAP2 SWAP1 PUSH2 0x39BF JUMP JUMPDEST PUSH1 0x40 MLOAD DUP1 SWAP2 SUB SWAP1 RETURN JUMPDEST PUSH2 0x3E0 PUSH1 0x4 DUP1 CALLDATASIZE SUB DUP2 ADD SWAP1 PUSH2 0x3DB SWAP2 SWAP1 PUSH2 0x3389 JUMP JUMPDEST PUSH2 0xC51 JUMP JUMPDEST STOP JUMPDEST PUSH2 0x3FC PUSH1 0x4 DUP1 CALLDATASIZE SUB DUP2 ADD SWAP1 PUSH2 0x3F7 SWAP2 SWAP1 PUSH2 0x34F0 JUMP JUMPDEST PUSH2 0xE14 JUMP JUMPDEST STOP JUMPDEST PUSH2 0x418 PUSH1 0x4 DUP1 CALLDATASIZE SUB DUP2 ADD SWAP1 PUSH2 0x413 SWAP2 SWAP1 PUSH2 0x39DA JUMP JUMPDEST PUSH2 0x115C JUMP JUMPDEST STOP JUMPDEST PUSH2 0x422 PUSH2 0x11BC JUMP JUMPDEST PUSH1 0x40 MLOAD PUSH2 0x42F SWAP2 SWAP1 PUSH2 0x3B39 JUMP JUMPDEST PUSH1 0x40 MLOAD DUP1 SWAP2 SUB SWAP1 RETURN JUMPDEST PUSH2 0x452 PUSH1 0x4 DUP1 CALLDATASIZE SUB DUP2 ADD SWAP1 PUSH2 0x44D SWAP2 SWAP1 PUSH2 0x34F0 JUMP JUMPDEST PUSH2 0x1318 JUMP JUMPDEST PUSH1 0x40 MLOAD PUSH2 0x45F SWAP2 SWAP1 PUSH2 0x3338 JUMP JUMPDEST PUSH1 0x40 MLOAD DUP1 SWAP2 SUB SWAP1 RETURN JUMPDEST PUSH2 0x482 PUSH1 0x4 DUP1 CALLDATASIZE SUB DUP2 ADD SWAP1 PUSH2 0x47D SWAP2 SWAP1 PUSH2 0x39DA JUMP JUMPDEST PUSH2 0x1338 JUMP JUMPDEST STOP JUMPDEST PUSH2 0x49E PUSH1 0x4 DUP1 CALLDATASIZE SUB DUP2 ADD SWAP1 PUSH2 0x499 SWAP2 SWAP1 PUSH2 0x3389 JUMP JUMPDEST PUSH2 0x1358 JUMP JUMPDEST STOP JUMPDEST PUSH2 0x4BA PUSH1 0x4 DUP1 CALLDATASIZE SUB DUP2 ADD SWAP1 PUSH2 0x4B5 SWAP2 SWAP1 PUSH2 0x34F0 JUMP JUMPDEST PUSH2 0x13B4 JUMP JUMPDEST STOP JUMPDEST PUSH2 0x4D6 PUSH1 0x4 DUP1 CALLDATASIZE SUB DUP2 ADD SWAP1 PUSH2 0x4D1 SWAP2 SWAP1 PUSH2 0x3389 JUMP JUMPDEST PUSH2 0x14C5 JUMP JUMPDEST PUSH1 0x40 MLOAD PUSH2 0x4E3 SWAP2 SWAP1 PUSH2 0x33F7 JUMP JUMPDEST PUSH1 0x40 MLOAD DUP1 SWAP2 SUB SWAP1 RETURN JUMPDEST PUSH2 0x506 PUSH1 0x4 DUP1 CALLDATASIZE SUB DUP2 ADD SWAP1 PUSH2 0x501 SWAP2 SWAP1 PUSH2 0x34F0 JUMP JUMPDEST PUSH2 0x154B JUMP JUMPDEST STOP JUMPDEST PUSH2 0x522 PUSH1 0x4 DUP1 CALLDATASIZE SUB DUP2 ADD SWAP1 PUSH2 0x51D SWAP2 SWAP1 PUSH2 0x34F0 JUMP JUMPDEST PUSH2 0x1765 JUMP JUMPDEST PUSH1 0x40 MLOAD PUSH2 0x52F SWAP2 SWAP1 PUSH2 0x356C JUMP JUMPDEST PUSH1 0x40 MLOAD DUP1 SWAP2 SUB SWAP1 RETURN JUMPDEST PUSH2 0x540 PUSH2 0x181C JUMP JUMPDEST STOP JUMPDEST PUSH2 0x55C PUSH1 0x4 DUP1 CALLDATASIZE SUB DUP2 ADD SWAP1 PUSH2 0x557 SWAP2 SWAP1 PUSH2 0x34F0 JUMP JUMPDEST PUSH2 0x1830 JUMP JUMPDEST STOP JUMPDEST PUSH2 0x566 PUSH2 0x1960 JUMP JUMPDEST PUSH1 0x40 MLOAD PUSH2 0x573 SWAP2 SWAP1 PUSH2 0x34A2 JUMP JUMPDEST PUSH1 0x40 MLOAD DUP1 SWAP2 SUB SWAP1 RETURN JUMPDEST PUSH2 0x584 PUSH2 0x19EE JUMP JUMPDEST PUSH1 0x40 MLOAD PUSH2 0x591 SWAP2 SWAP1 PUSH2 0x33F7 JUMP JUMPDEST PUSH1 0x40 MLOAD DUP1 SWAP2 SUB SWAP1 RETURN JUMPDEST PUSH2 0x5B4 PUSH1 0x4 DUP1 CALLDATASIZE SUB DUP2 ADD SWAP1 PUSH2 0x5AF SWAP2 SWAP1 PUSH2 0x3389 JUMP JUMPDEST PUSH2 0x1A18 JUMP JUMPDEST PUSH1 0x40 MLOAD PUSH2 0x5C1 SWAP2 SWAP1 PUSH2 0x34A2 JUMP JUMPDEST PUSH1 0x40 MLOAD DUP1 SWAP2 SUB SWAP1 RETURN JUMPDEST PUSH2 0x5D2 PUSH2 0x1AB8 JUMP JUMPDEST PUSH1 0x40 MLOAD PUSH2 0x5DF SWAP2 SWAP1 PUSH2 0x34A2 JUMP JUMPDEST PUSH1 0x40 MLOAD DUP1 SWAP2 SUB SWAP1 RETURN JUMPDEST PUSH2 0x602 PUSH1 0x4 DUP1 CALLDATASIZE SUB DUP2 ADD SWAP1 PUSH2 0x5FD SWAP2 SWAP1 PUSH2 0x3B87 JUMP JUMPDEST PUSH2 0x1B4A JUMP JUMPDEST STOP JUMPDEST PUSH2 0x60C PUSH2 0x1B60 JUMP JUMPDEST PUSH1 0x40 MLOAD PUSH2 0x619 SWAP2 SWAP1 PUSH2 0x34A2 JUMP JUMPDEST PUSH1 0x40 MLOAD DUP1 SWAP2 SUB SWAP1 RETURN JUMPDEST PUSH2 0x63C PUSH1 0x4 DUP1 CALLDATASIZE SUB DUP2 ADD SWAP1 PUSH2 0x637 SWAP2 SWAP1 PUSH2 0x392D JUMP JUMPDEST PUSH2 0x1BEE JUMP JUMPDEST STOP JUMPDEST PUSH2 0x646 PUSH2 0x1C50 JUMP JUMPDEST PUSH1 0x40 MLOAD PUSH2 0x653 SWAP2 SWAP1 PUSH2 0x34A2 JUMP JUMPDEST PUSH1 0x40 MLOAD DUP1 SWAP2 SUB SWAP1 RETURN JUMPDEST PUSH2 0x676 PUSH1 0x4 DUP1 CALLDATASIZE SUB DUP2 ADD SWAP1 PUSH2 0x671 SWAP2 SWAP1 PUSH2 0x3389 JUMP JUMPDEST PUSH2 0x1CDE JUMP JUMPDEST PUSH1 0x40 MLOAD PUSH2 0x683 SWAP2 SWAP1 PUSH2 0x34A2 JUMP JUMPDEST PUSH1 0x40 MLOAD DUP1 SWAP2 SUB SWAP1 RETURN JUMPDEST PUSH2 0x6A6 PUSH1 0x4 DUP1 CALLDATASIZE SUB DUP2 ADD SWAP1 PUSH2 0x6A1 SWAP2 SWAP1 PUSH2 0x3BC7 JUMP JUMPDEST PUSH2 0x1CF0 JUMP JUMPDEST PUSH1 0x40 MLOAD PUSH2 0x6B3 SWAP2 SWAP1 PUSH2 0x3338 JUMP JUMPDEST PUSH1 0x40 MLOAD DUP1 SWAP2 SUB SWAP1 RETURN JUMPDEST PUSH2 0x6D6 PUSH1 0x4 DUP1 CALLDATASIZE SUB DUP2 ADD SWAP1 PUSH2 0x6D1 SWAP2 SWAP1 PUSH2 0x34F0 JUMP JUMPDEST PUSH2 0x1D84 JUMP JUMPDEST STOP JUMPDEST PUSH1 0x0 PUSH2 0x6E3 DUP3 PUSH2 0x1E07 JUMP JUMPDEST SWAP1 POP SWAP2 SWAP1 POP JUMP JUMPDEST PUSH1 0xD DUP2 DUP2 SLOAD DUP2 LT PUSH2 0x6FA JUMPI PUSH1 0x0 DUP1 REVERT JUMPDEST SWAP1 PUSH1 0x0 MSTORE PUSH1 0x20 PUSH1 0x0 KECCAK256 ADD PUSH1 0x0 SWAP2 POP SLOAD SWAP1 PUSH2 0x100 EXP SWAP1 DIV PUSH20 0xFFFFFFFFFFFFFFFFFFFFFFFFFFFFFFFFFFFFFFFF AND DUP2 JUMP JUMPDEST PUSH1 0x60 PUSH1 0x0 DUP1 SLOAD PUSH2 0x738 SWAP1 PUSH2 0x3C36 JUMP JUMPDEST DUP1 PUSH1 0x1F ADD PUSH1 0x20 DUP1 SWAP2 DIV MUL PUSH1 0x20 ADD PUSH1 0x40 MLOAD SWAP1 DUP2 ADD PUSH1 0x40 MSTORE DUP1 SWAP3 SWAP2 SWAP1 DUP2 DUP2 MSTORE PUSH1 0x20 ADD DUP3 DUP1 SLOAD PUSH2 0x764 SWAP1 PUSH2 0x3C36 JUMP JUMPDEST DUP1 ISZERO PUSH2 0x7B1 JUMPI DUP1 PUSH1 0x1F LT PUSH2 0x786 JUMPI PUSH2 0x100 DUP1 DUP4 SLOAD DIV MUL DUP4 MSTORE SWAP2 PUSH1 0x20 ADD SWAP2 PUSH2 0x7B1 JUMP JUMPDEST DUP3 ADD SWAP2 SWAP1 PUSH1 0x0 MSTORE PUSH1 0x20 PUSH1 0x0 KECCAK256 SWAP1 JUMPDEST DUP2 SLOAD DUP2 MSTORE SWAP1 PUSH1 0x1 ADD SWAP1 PUSH1 0x20 ADD DUP1 DUP4 GT PUSH2 0x794 JUMPI DUP3 SWAP1 SUB PUSH1 0x1F AND DUP3 ADD SWAP2 JUMPDEST POP POP POP POP POP SWAP1 POP SWAP1 JUMP JUMPDEST PUSH1 0x0 PUSH1 0x12 PUSH1 0x0 DUP4 PUSH20 0xFFFFFFFFFFFFFFFFFFFFFFFFFFFFFFFFFFFFFFFF AND PUSH20 0xFFFFFFFFFFFFFFFFFFFFFFFFFFFFFFFFFFFFFFFF AND DUP2 MSTORE PUSH1 0x20 ADD SWAP1 DUP2 MSTORE PUSH1 0x20 ADD PUSH1 0x0 KECCAK256 PUSH1 0x0 SWAP1 SLOAD SWAP1 PUSH2 0x100 EXP SWAP1 DIV PUSH1 0xFF AND SWAP1 POP SWAP2 SWAP1 POP JUMP JUMPDEST PUSH1 0x0 PUSH2 0x81C DUP3 PUSH2 0x1E68 JUMP JUMPDEST PUSH1 0x4 PUSH1 0x0 DUP4 DUP2 MSTORE PUSH1 0x20 ADD SWAP1 DUP2 MSTORE PUSH1 0x20 ADD PUSH1 0x0 KECCAK256 PUSH1 0x0 SWAP1 SLOAD SWAP1 PUSH2 0x100 EXP SWAP1 DIV PUSH20 0xFFFFFFFFFFFFFFFFFFFFFFFFFFFFFFFFFFFFFFFF AND SWAP1 POP SWAP2 SWAP1 POP JUMP JUMPDEST PUSH1 0x0 PUSH2 0x862 DUP3 PUSH2 0x14C5 JUMP JUMPDEST SWAP1 POP DUP1 PUSH20 0xFFFFFFFFFFFFFFFFFFFFFFFFFFFFFFFFFFFFFFFF AND DUP4 PUSH20 0xFFFFFFFFFFFFFFFFFFFFFFFFFFFFFFFFFFFFFFFF AND SUB PUSH2 0x8D2 JUMPI PUSH1 0x40 MLOAD PUSH32 0x8C379A000000000000000000000000000000000000000000000000000000000 DUP2 MSTORE PUSH1 0x4 ADD PUSH2 0x8C9 SWAP1 PUSH2 0x3CD9 JUMP JUMPDEST PUSH1 0x40 MLOAD DUP1 SWAP2 SUB SWAP1 REVERT JUMPDEST DUP1 PUSH20 0xFFFFFFFFFFFFFFFFFFFFFFFFFFFFFFFFFFFFFFFF AND PUSH2 0x8F1 PUSH2 0x1EB3 JUMP JUMPDEST PUSH20 0xFFFFFFFFFFFFFFFFFFFFFFFFFFFFFFFFFFFFFFFF AND EQ DUP1 PUSH2 0x920 JUMPI POP PUSH2 0x91F DUP2 PUSH2 0x91A PUSH2 0x1EB3 JUMP JUMPDEST PUSH2 0x1CF0 JUMP JUMPDEST JUMPDEST PUSH2 0x95F JUMPI PUSH1 0x40 MLOAD PUSH32 0x8C379A000000000000000000000000000000000000000000000000000000000 DUP2 MSTORE PUSH1 0x4 ADD PUSH2 0x956 SWAP1 PUSH2 0x3D6B JUMP JUMPDEST PUSH1 0x40 MLOAD DUP1 SWAP2 SUB SWAP1 REVERT JUMPDEST PUSH2 0x969 DUP4 DUP4 PUSH2 0x1EBB JUMP JUMPDEST POP POP POP JUMP JUMPDEST PUSH1 0xF DUP2 DUP2 SLOAD DUP2 LT PUSH2 0x97E JUMPI PUSH1 0x0 DUP1 REVERT JUMPDEST SWAP1 PUSH1 0x0 MSTORE PUSH1 0x20 PUSH1 0x0 KECCAK256 ADD PUSH1 0x0 SWAP2 POP SWAP1 POP SLOAD DUP2 JUMP JUMPDEST PUSH1 0x60 PUSH1 0x11 DUP1 SLOAD DUP1 PUSH1 0x20 MUL PUSH1 0x20 ADD PUSH1 0x40 MLOAD SWAP1 DUP2 ADD PUSH1 0x40 MSTORE DUP1 SWAP3 SWAP2 SWAP1 DUP2 DUP2 MSTORE PUSH1 0x20 ADD DUP3 DUP1 SLOAD DUP1 ISZERO PUSH2 0xA16 JUMPI PUSH1 0x20 MUL DUP3 ADD SWAP2 SWAP1 PUSH1 0x0 MSTORE PUSH1 0x20 PUSH1 0x0 KECCAK256 SWAP1 JUMPDEST DUP2 PUSH1 0x0 SWAP1 SLOAD SWAP1 PUSH2 0x100 EXP SWAP1 DIV PUSH20 0xFFFFFFFFFFFFFFFFFFFFFFFFFFFFFFFFFFFFFFFF AND PUSH20 0xFFFFFFFFFFFFFFFFFFFFFFFFFFFFFFFFFFFFFFFF AND DUP2 MSTORE PUSH1 0x20 ADD SWAP1 PUSH1 0x1 ADD SWAP1 DUP1 DUP4 GT PUSH2 0x9CC JUMPI JUMPDEST POP POP POP POP POP SWAP1 POP SWAP1 JUMP JUMPDEST PUSH1 0xE PUSH1 0x0 CALLER PUSH20 0xFFFFFFFFFFFFFFFFFFFFFFFFFFFFFFFFFFFFFFFF AND PUSH20 0xFFFFFFFFFFFFFFFFFFFFFFFFFFFFFFFFFFFFFFFF AND DUP2 MSTORE PUSH1 0x20 ADD SWAP1 DUP2 MSTORE PUSH1 0x20 ADD PUSH1 0x0 KECCAK256 PUSH1 0x0 SWAP1 SLOAD SWAP1 PUSH2 0x100 EXP SWAP1 DIV PUSH1 0xFF AND PUSH2 0xAAC JUMPI PUSH1 0x40 MLOAD PUSH32 0x8C379A000000000000000000000000000000000000000000000000000000000 DUP2 MSTORE PUSH1 0x4 ADD PUSH2 0xAA3 SWAP1 PUSH2 0x3DD7 JUMP JUMPDEST PUSH1 0x40 MLOAD DUP1 SWAP2 SUB SWAP1 REVERT JUMPDEST DUP3 PUSH1 0x8 SWAP1 DUP2 PUSH2 0xABB SWAP2 SWAP1 PUSH2 0x3FA3 JUMP JUMPDEST POP DUP2 PUSH1 0x9 SWAP1 DUP2 PUSH2 0xACB SWAP2 SWAP1 PUSH2 0x3FA3 JUMP JUMPDEST POP DUP1 PUSH1 0xA SWAP1 DUP2 PUSH2 0xADB SWAP2 SWAP1 PUSH2 0x3FA3 JUMP JUMPDEST POP POP POP POP JUMP JUMPDEST PUSH1 0xE PUSH1 0x0 CALLER PUSH20 0xFFFFFFFFFFFFFFFFFFFFFFFFFFFFFFFFFFFFFFFF AND PUSH20 0xFFFFFFFFFFFFFFFFFFFFFFFFFFFFFFFFFFFFFFFF AND DUP2 MSTORE PUSH1 0x20 ADD SWAP1 DUP2 MSTORE PUSH1 0x20 ADD PUSH1 0x0 KECCAK256 PUSH1 0x0 SWAP1 SLOAD SWAP1 PUSH2 0x100 EXP SWAP1 DIV PUSH1 0xFF AND PUSH2 0xB6D JUMPI PUSH1 0x40 MLOAD PUSH32 0x8C379A000000000000000000000000000000000000000000000000000000000 DUP2 MSTORE PUSH1 0x4 ADD PUSH2 0xB64 SWAP1 PUSH2 0x3DD7 JUMP JUMPDEST PUSH1 0x40 MLOAD DUP1 SWAP2 SUB SWAP1 REVERT JUMPDEST PUSH1 0x0 PUSH1 0xB SLOAD SWAP1 POP PUSH1 0xB PUSH1 0x0 DUP2 SLOAD DUP1 SWAP3 SWAP2 SWAP1 PUSH2 0xB87 SWAP1 PUSH2 0x40A4 JUMP JUMPDEST SWAP2 SWAP1 POP SSTORE POP PUSH2 0xB96 ADDRESS DUP3 PUSH2 0x1F74 JUMP JUMPDEST PUSH2 0xBA0 DUP2 DUP4 PUSH2 0x1F92 JUMP JUMPDEST PUSH1 0xF DUP2 SWAP1 DUP1 PUSH1 0x1 DUP2 SLOAD ADD DUP1 DUP3 SSTORE DUP1 SWAP2 POP POP PUSH1 0x1 SWAP1 SUB SWAP1 PUSH1 0x0 MSTORE PUSH1 0x20 PUSH1 0x0 KECCAK256 ADD PUSH1 0x0 SWAP1 SWAP2 SWAP1 SWAP2 SWAP1 SWAP2 POP SSTORE DUP2 PUSH1 0x10 PUSH1 0x0 DUP4 DUP2 MSTORE PUSH1 0x20 ADD SWAP1 DUP2 MSTORE PUSH1 0x20 ADD PUSH1 0x0 KECCAK256 SWAP1 DUP2 PUSH2 0xBE9 SWAP2 SWAP1 PUSH2 0x3FA3 JUMP JUMPDEST POP DUP1 ADDRESS PUSH20 0xFFFFFFFFFFFFFFFFFFFFFFFFFFFFFFFFFFFFFFFF AND PUSH32 0x9803F64FE126387888E61306D4629BF805F93B605DE9BEEA8B40F6239F511A5F DUP5 PUSH1 0x40 MLOAD PUSH2 0xC31 SWAP2 SWAP1 PUSH2 0x34A2 JUMP JUMPDEST PUSH1 0x40 MLOAD DUP1 SWAP2 SUB SWAP1 LOG3 POP POP JUMP JUMPDEST PUSH1 0x0 PUSH4 0x150B7A02 PUSH1 0xE0 SHL SWAP1 POP SWAP5 SWAP4 POP POP POP POP JUMP JUMPDEST PUSH1 0xE PUSH1 0x0 CALLER PUSH20 0xFFFFFFFFFFFFFFFFFFFFFFFFFFFFFFFFFFFFFFFF AND PUSH20 0xFFFFFFFFFFFFFFFFFFFFFFFFFFFFFFFFFFFFFFFF AND DUP2 MSTORE PUSH1 0x20 ADD SWAP1 DUP2 MSTORE PUSH1 0x20 ADD PUSH1 0x0 KECCAK256 PUSH1 0x0 SWAP1 SLOAD SWAP1 PUSH2 0x100 EXP SWAP1 DIV PUSH1 0xFF AND PUSH2 0xCDD JUMPI PUSH1 0x40 MLOAD PUSH32 0x8C379A000000000000000000000000000000000000000000000000000000000 DUP2 MSTORE PUSH1 0x4 ADD PUSH2 0xCD4 SWAP1 PUSH2 0x3DD7 JUMP JUMPDEST PUSH1 0x40 MLOAD DUP1 SWAP2 SUB SWAP1 REVERT JUMPDEST PUSH2 0xCE6 DUP2 PUSH2 0x2036 JUMP JUMPDEST PUSH1 0x0 JUMPDEST PUSH1 0xF DUP1 SLOAD SWAP1 POP DUP2 LT ISZERO PUSH2 0xDAD JUMPI DUP2 PUSH1 0xF DUP3 DUP2 SLOAD DUP2 LT PUSH2 0xD0B JUMPI PUSH2 0xD0A PUSH2 0x40EC JUMP JUMPDEST JUMPDEST SWAP1 PUSH1 0x0 MSTORE PUSH1 0x20 PUSH1 0x0 KECCAK256 ADD SLOAD SUB PUSH2 0xD9A JUMPI PUSH1 0xF PUSH1 0x1 PUSH1 0xF DUP1 SLOAD SWAP1 POP PUSH2 0xD2F SWAP2 SWAP1 PUSH2 0x411B JUMP JUMPDEST DUP2 SLOAD DUP2 LT PUSH2 0xD40 JUMPI PUSH2 0xD3F PUSH2 0x40EC JUMP JUMPDEST JUMPDEST SWAP1 PUSH1 0x0 MSTORE PUSH1 0x20 PUSH1 0x0 KECCAK256 ADD SLOAD PUSH1 0xF DUP3 DUP2 SLOAD DUP2 LT PUSH2 0xD5F JUMPI PUSH2 0xD5E PUSH2 0x40EC JUMP JUMPDEST JUMPDEST SWAP1 PUSH1 0x0 MSTORE PUSH1 0x20 PUSH1 0x0 KECCAK256 ADD DUP2 SWAP1 SSTORE POP PUSH1 0xF DUP1 SLOAD DUP1 PUSH2 0xD7F JUMPI PUSH2 0xD7E PUSH2 0x414F JUMP JUMPDEST JUMPDEST PUSH1 0x1 SWAP1 SUB DUP2 DUP2 SWAP1 PUSH1 0x0 MSTORE PUSH1 0x20 PUSH1 0x0 KECCAK256 ADD PUSH1 0x0 SWAP1 SSTORE SWAP1 SSTORE PUSH2 0xDAD JUMP JUMPDEST DUP1 DUP1 PUSH2 0xDA5 SWAP1 PUSH2 0x40A4 JUMP JUMPDEST SWAP2 POP POP PUSH2 0xCE9 JUMP JUMPDEST POP PUSH1 0x10 PUSH1 0x0 DUP3 DUP2 MSTORE PUSH1 0x20 ADD SWAP1 DUP2 MSTORE PUSH1 0x20 ADD PUSH1 0x0 KECCAK256 PUSH1 0x0 PUSH2 0xDCD SWAP2 SWAP1 PUSH2 0x3227 JUMP JUMPDEST DUP1 ADDRESS PUSH20 0xFFFFFFFFFFFFFFFFFFFFFFFFFFFFFFFFFFFFFFFF AND PUSH32 0xDF6442CC5B2EF43EC842BE835A7E513C277BA2671E5D89ECB1F88BC12A6D5397 PUSH1 0x40 MLOAD PUSH1 0x40 MLOAD DUP1 SWAP2 SUB SWAP1 LOG3 POP JUMP JUMPDEST PUSH1 0xE PUSH1 0x0 CALLER PUSH20 0xFFFFFFFFFFFFFFFFFFFFFFFFFFFFFFFFFFFFFFFF AND PUSH20 0xFFFFFFFFFFFFFFFFFFFFFFFFFFFFFFFFFFFFFFFF AND DUP2 MSTORE PUSH1 0x20 ADD SWAP1 DUP2 MSTORE PUSH1 0x20 ADD PUSH1 0x0 KECCAK256 PUSH1 0x0 SWAP1 SLOAD SWAP1 PUSH2 0x100 EXP SWAP1 DIV PUSH1 0xFF AND PUSH2 0xEA0 JUMPI PUSH1 0x40 MLOAD PUSH32 0x8C379A000000000000000000000000000000000000000000000000000000000 DUP2 MSTORE PUSH1 0x4 ADD PUSH2 0xE97 SWAP1 PUSH2 0x3DD7 JUMP JUMPDEST PUSH1 0x40 MLOAD DUP1 SWAP2 SUB SWAP1 REVERT JUMPDEST PUSH1 0xE PUSH1 0x0 DUP3 PUSH20 0xFFFFFFFFFFFFFFFFFFFFFFFFFFFFFFFFFFFFFFFF AND PUSH20 0xFFFFFFFFFFFFFFFFFFFFFFFFFFFFFFFFFFFFFFFF AND DUP2 MSTORE PUSH1 0x20 ADD SWAP1 DUP2 MSTORE PUSH1 0x20 ADD PUSH1 0x0 KECCAK256 PUSH1 0x0 SWAP1 SLOAD SWAP1 PUSH2 0x100 EXP SWAP1 DIV PUSH1 0xFF AND PUSH2 0xF2C JUMPI PUSH1 0x40 MLOAD PUSH32 0x8C379A000000000000000000000000000000000000000000000000000000000 DUP2 MSTORE PUSH1 0x4 ADD PUSH2 0xF23 SWAP1 PUSH2 0x41CA JUMP JUMPDEST PUSH1 0x40 MLOAD DUP1 SWAP2 SUB SWAP1 REVERT JUMPDEST PUSH1 0x1 PUSH1 0xD DUP1 SLOAD SWAP1 POP GT PUSH2 0xF74 JUMPI PUSH1 0x40 MLOAD PUSH32 0x8C379A000000000000000000000000000000000000000000000000000000000 DUP2 MSTORE PUSH1 0x4 ADD PUSH2 0xF6B SWAP1 PUSH2 0x4236 JUMP JUMPDEST PUSH1 0x40 MLOAD DUP1 SWAP2 SUB SWAP1 REVERT JUMPDEST PUSH1 0x0 PUSH1 0xE PUSH1 0x0 DUP4 PUSH20 0xFFFFFFFFFFFFFFFFFFFFFFFFFFFFFFFFFFFFFFFF AND PUSH20 0xFFFFFFFFFFFFFFFFFFFFFFFFFFFFFFFFFFFFFFFF AND DUP2 MSTORE PUSH1 0x20 ADD SWAP1 DUP2 MSTORE PUSH1 0x20 ADD PUSH1 0x0 KECCAK256 PUSH1 0x0 PUSH2 0x100 EXP DUP2 SLOAD DUP2 PUSH1 0xFF MUL NOT AND SWAP1 DUP4 ISZERO ISZERO MUL OR SWAP1 SSTORE POP PUSH1 0x0 JUMPDEST PUSH1 0xD DUP1 SLOAD SWAP1 POP DUP2 LT ISZERO PUSH2 0x1158 JUMPI DUP2 PUSH20 0xFFFFFFFFFFFFFFFFFFFFFFFFFFFFFFFFFFFFFFFF AND PUSH1 0xD DUP3 DUP2 SLOAD DUP2 LT PUSH2 0x1007 JUMPI PUSH2 0x1006 PUSH2 0x40EC JUMP JUMPDEST JUMPDEST SWAP1 PUSH1 0x0 MSTORE PUSH1 0x20 PUSH1 0x0 KECCAK256 ADD PUSH1 0x0 SWAP1 SLOAD SWAP1 PUSH2 0x100 EXP SWAP1 DIV PUSH20 0xFFFFFFFFFFFFFFFFFFFFFFFFFFFFFFFFFFFFFFFF AND PUSH20 0xFFFFFFFFFFFFFFFFFFFFFFFFFFFFFFFFFFFFFFFF AND SUB PUSH2 0x1145 JUMPI PUSH1 0xD PUSH1 0x1 PUSH1 0xD DUP1 SLOAD SWAP1 POP PUSH2 0x1061 SWAP2 SWAP1 PUSH2 0x411B JUMP JUMPDEST DUP2 SLOAD DUP2 LT PUSH2 0x1072 JUMPI PUSH2 0x1071 PUSH2 0x40EC JUMP JUMPDEST JUMPDEST SWAP1 PUSH1 0x0 MSTORE PUSH1 0x20 PUSH1 0x0 KECCAK256 ADD PUSH1 0x0 SWAP1 SLOAD SWAP1 PUSH2 0x100 EXP SWAP1 DIV PUSH20 0xFFFFFFFFFFFFFFFFFFFFFFFFFFFFFFFFFFFFFFFF AND PUSH1 0xD DUP3 DUP2 SLOAD DUP2 LT PUSH2 0x10B1 JUMPI PUSH2 0x10B0 PUSH2 0x40EC JUMP JUMPDEST JUMPDEST SWAP1 PUSH1 0x0 MSTORE PUSH1 0x20 PUSH1 0x0 KECCAK256 ADD PUSH1 0x0 PUSH2 0x100 EXP DUP2 SLOAD DUP2 PUSH20 0xFFFFFFFFFFFFFFFFFFFFFFFFFFFFFFFFFFFFFFFF MUL NOT AND SWAP1 DUP4 PUSH20 0xFFFFFFFFFFFFFFFFFFFFFFFFFFFFFFFFFFFFFFFF AND MUL OR SWAP1 SSTORE POP PUSH1 0xD DUP1 SLOAD DUP1 PUSH2 0x110B JUMPI PUSH2 0x110A PUSH2 0x414F JUMP JUMPDEST JUMPDEST PUSH1 0x1 SWAP1 SUB DUP2 DUP2 SWAP1 PUSH1 0x0 MSTORE PUSH1 0x20 PUSH1 0x0 KECCAK256 ADD PUSH1 0x0 PUSH2 0x100 EXP DUP2 SLOAD SWAP1 PUSH20 0xFFFFFFFFFFFFFFFFFFFFFFFFFFFFFFFFFFFFFFFF MUL NOT AND SWAP1 SSTORE SWAP1 SSTORE PUSH2 0x1158 JUMP JUMPDEST DUP1 DUP1 PUSH2 0x1150 SWAP1 PUSH2 0x40A4 JUMP JUMPDEST SWAP2 POP POP PUSH2 0xFCF JUMP JUMPDEST POP POP JUMP JUMPDEST PUSH2 0x116D PUSH2 0x1167 PUSH2 0x1EB3 JUMP JUMPDEST DUP3 PUSH2 0x2042 JUMP JUMPDEST PUSH2 0x11AC JUMPI PUSH1 0x40 MLOAD PUSH32 0x8C379A000000000000000000000000000000000000000000000000000000000 DUP2 MSTORE PUSH1 0x4 ADD PUSH2 0x11A3 SWAP1 PUSH2 0x42C8 JUMP JUMPDEST PUSH1 0x40 MLOAD DUP1 SWAP2 SUB SWAP1 REVERT JUMPDEST PUSH2 0x11B7 DUP4 DUP4 DUP4 PUSH2 0x20D7 JUMP JUMPDEST POP POP POP JUMP JUMPDEST PUSH1 0x60 PUSH1 0x0 PUSH1 0xF DUP1 SLOAD SWAP1 POP PUSH8 0xFFFFFFFFFFFFFFFF DUP2 GT ISZERO PUSH2 0x11DF JUMPI PUSH2 0x11DE PUSH2 0x3671 JUMP JUMPDEST JUMPDEST PUSH1 0x40 MLOAD SWAP1 DUP1 DUP3 MSTORE DUP1 PUSH1 0x20 MUL PUSH1 0x20 ADD DUP3 ADD PUSH1 0x40 MSTORE DUP1 ISZERO PUSH2 0x1212 JUMPI DUP2 PUSH1 0x20 ADD JUMPDEST PUSH1 0x60 DUP2 MSTORE PUSH1 0x20 ADD SWAP1 PUSH1 0x1 SWAP1 SUB SWAP1 DUP2 PUSH2 0x11FD JUMPI SWAP1 POP JUMPDEST POP SWAP1 POP PUSH1 0x0 JUMPDEST PUSH1 0xF DUP1 SLOAD SWAP1 POP DUP2 LT ISZERO PUSH2 0x1310 JUMPI PUSH1 0x10 PUSH1 0x0 PUSH1 0xF DUP4 DUP2 SLOAD DUP2 LT PUSH2 0x123D JUMPI PUSH2 0x123C PUSH2 0x40EC JUMP JUMPDEST JUMPDEST SWAP1 PUSH1 0x0 MSTORE PUSH1 0x20 PUSH1 0x0 KECCAK256 ADD SLOAD DUP2 MSTORE PUSH1 0x20 ADD SWAP1 DUP2 MSTORE PUSH1 0x20 ADD PUSH1 0x0 KECCAK256 DUP1 SLOAD PUSH2 0x1261 SWAP1 PUSH2 0x3C36 JUMP JUMPDEST DUP1 PUSH1 0x1F ADD PUSH1 0x20 DUP1 SWAP2 DIV MUL PUSH1 0x20 ADD PUSH1 0x40 MLOAD SWAP1 DUP2 ADD PUSH1 0x40 MSTORE DUP1 SWAP3 SWAP2 SWAP1 DUP2 DUP2 MSTORE PUSH1 0x20 ADD DUP3 DUP1 SLOAD PUSH2 0x128D SWAP1 PUSH2 0x3C36 JUMP JUMPDEST DUP1 ISZERO PUSH2 0x12DA JUMPI DUP1 PUSH1 0x1F LT PUSH2 0x12AF JUMPI PUSH2 0x100 DUP1 DUP4 SLOAD DIV MUL DUP4 MSTORE SWAP2 PUSH1 0x20 ADD SWAP2 PUSH2 0x12DA JUMP JUMPDEST DUP3 ADD SWAP2 SWAP1 PUSH1 0x0 MSTORE PUSH1 0x20 PUSH1 0x0 KECCAK256 SWAP1 JUMPDEST DUP2 SLOAD DUP2 MSTORE SWAP1 PUSH1 0x1 ADD SWAP1 PUSH1 0x20 ADD DUP1 DUP4 GT PUSH2 0x12BD JUMPI DUP3 SWAP1 SUB PUSH1 0x1F AND DUP3 ADD SWAP2 JUMPDEST POP POP POP POP POP DUP3 DUP3 DUP2 MLOAD DUP2 LT PUSH2 0x12F2 JUMPI PUSH2 0x12F1 PUSH2 0x40EC JUMP JUMPDEST JUMPDEST PUSH1 0x20 MUL PUSH1 0x20 ADD ADD DUP2 SWAP1 MSTORE POP DUP1 DUP1 PUSH2 0x1308 SWAP1 PUSH2 0x40A4 JUMP JUMPDEST SWAP2 POP POP PUSH2 0x1218 JUMP JUMPDEST POP DUP1 SWAP2 POP POP SWAP1 JUMP JUMPDEST PUSH1 0xE PUSH1 0x20 MSTORE DUP1 PUSH1 0x0 MSTORE PUSH1 0x40 PUSH1 0x0 KECCAK256 PUSH1 0x0 SWAP2 POP SLOAD SWAP1 PUSH2 0x100 EXP SWAP1 DIV PUSH1 0xFF AND DUP2 JUMP JUMPDEST PUSH2 0x1353 DUP4 DUP4 DUP4 PUSH1 0x40 MLOAD DUP1 PUSH1 0x20 ADD PUSH1 0x40 MSTORE DUP1 PUSH1 0x0 DUP2 MSTORE POP PUSH2 0x1BEE JUMP JUMPDEST POP POP POP JUMP JUMPDEST PUSH2 0x1369 PUSH2 0x1363 PUSH2 0x1EB3 JUMP JUMPDEST DUP3 PUSH2 0x2042 JUMP JUMPDEST PUSH2 0x13A8 JUMPI PUSH1 0x40 MLOAD PUSH32 0x8C379A000000000000000000000000000000000000000000000000000000000 DUP2 MSTORE PUSH1 0x4 ADD PUSH2 0x139F SWAP1 PUSH2 0x42C8 JUMP JUMPDEST PUSH1 0x40 MLOAD DUP1 SWAP2 SUB SWAP1 REVERT JUMPDEST PUSH2 0x13B1 DUP2 PUSH2 0x2036 JUMP JUMPDEST POP JUMP JUMPDEST PUSH2 0x13BD DUP2 PUSH2 0x7BB JUMP JUMPDEST ISZERO PUSH2 0x13FD JUMPI PUSH1 0x40 MLOAD PUSH32 0x8C379A000000000000000000000000000000000000000000000000000000000 DUP2 MSTORE PUSH1 0x4 ADD PUSH2 0x13F4 SWAP1 PUSH2 0x4334 JUMP JUMPDEST PUSH1 0x40 MLOAD DUP1 SWAP2 SUB SWAP1 REVERT JUMPDEST DUP1 PUSH20 0xFFFFFFFFFFFFFFFFFFFFFFFFFFFFFFFFFFFFFFFF AND PUSH4 0x75DA616B ADDRESS PUSH1 0x40 MLOAD DUP3 PUSH4 0xFFFFFFFF AND PUSH1 0xE0 SHL DUP2 MSTORE PUSH1 0x4 ADD PUSH2 0x1436 SWAP2 SWAP1 PUSH2 0x33F7 JUMP JUMPDEST PUSH1 0x0 PUSH1 0x40 MLOAD DUP1 DUP4 SUB DUP2 PUSH1 0x0 DUP8 DUP1 EXTCODESIZE ISZERO DUP1 ISZERO PUSH2 0x1450 JUMPI PUSH1 0x0 DUP1 REVERT JUMPDEST POP GAS CALL ISZERO DUP1 ISZERO PUSH2 0x1464 JUMPI RETURNDATASIZE PUSH1 0x0 DUP1 RETURNDATACOPY RETURNDATASIZE PUSH1 0x0 REVERT JUMPDEST POP POP POP POP DUP1 PUSH20 0xFFFFFFFFFFFFFFFFFFFFFFFFFFFFFFFFFFFFFFFF AND ADDRESS PUSH20 0xFFFFFFFFFFFFFFFFFFFFFFFFFFFFFFFFFFFFFFFF AND PUSH32 0xEB43D45051FBE432E688FDA6AE7DFB8F51CAB0CAF2BEC0B4429FC7AF0D2A2B27 PUSH1 0x40 MLOAD PUSH1 0x40 MLOAD DUP1 SWAP2 SUB SWAP1 LOG3 POP JUMP JUMPDEST PUSH1 0x0 DUP1 PUSH2 0x14D1 DUP4 PUSH2 0x23D0 JUMP JUMPDEST SWAP1 POP PUSH1 0x0 PUSH20 0xFFFFFFFFFFFFFFFFFFFFFFFFFFFFFFFFFFFFFFFF AND DUP2 PUSH20 0xFFFFFFFFFFFFFFFFFFFFFFFFFFFFFFFFFFFFFFFF AND SUB PUSH2 0x1542 JUMPI PUSH1 0x40 MLOAD PUSH32 0x8C379A000000000000000000000000000000000000000000000000000000000 DUP2 MSTORE PUSH1 0x4 ADD PUSH2 0x1539 SWAP1 PUSH2 0x43A0 JUMP JUMPDEST PUSH1 0x40 MLOAD DUP1 SWAP2 SUB SWAP1 REVERT JUMPDEST DUP1 SWAP2 POP POP SWAP2 SWAP1 POP JUMP JUMPDEST PUSH1 0xE PUSH1 0x0 CALLER PUSH20 0xFFFFFFFFFFFFFFFFFFFFFFFFFFFFFFFFFFFFFFFF AND PUSH20 0xFFFFFFFFFFFFFFFFFFFFFFFFFFFFFFFFFFFFFFFF AND DUP2 MSTORE PUSH1 0x20 ADD SWAP1 DUP2 MSTORE PUSH1 0x20 ADD PUSH1 0x0 KECCAK256 PUSH1 0x0 SWAP1 SLOAD SWAP1 PUSH2 0x100 EXP SWAP1 DIV PUSH1 0xFF AND PUSH2 0x15D7 JUMPI PUSH1 0x40 MLOAD PUSH32 0x8C379A000000000000000000000000000000000000000000000000000000000 DUP2 MSTORE PUSH1 0x4 ADD PUSH2 0x15CE SWAP1 PUSH2 0x3DD7 JUMP JUMPDEST PUSH1 0x40 MLOAD DUP1 SWAP2 SUB SWAP1 REVERT JUMPDEST PUSH1 0xE PUSH1 0x0 DUP3 PUSH20 0xFFFFFFFFFFFFFFFFFFFFFFFFFFFFFFFFFFFFFFFF AND PUSH20 0xFFFFFFFFFFFFFFFFFFFFFFFFFFFFFFFFFFFFFFFF AND DUP2 MSTORE PUSH1 0x20 ADD SWAP1 DUP2 MSTORE PUSH1 0x20 ADD PUSH1 0x0 KECCAK256 PUSH1 0x0 SWAP1 SLOAD SWAP1 PUSH2 0x100 EXP SWAP1 DIV PUSH1 0xFF AND ISZERO PUSH2 0x1664 JUMPI PUSH1 0x40 MLOAD PUSH32 0x8C379A000000000000000000000000000000000000000000000000000000000 DUP2 MSTORE PUSH1 0x4 ADD PUSH2 0x165B SWAP1 PUSH2 0x440C JUMP JUMPDEST PUSH1 0x40 MLOAD DUP1 SWAP2 SUB SWAP1 REVERT JUMPDEST PUSH1 0xD DUP2 SWAP1 DUP1 PUSH1 0x1 DUP2 SLOAD ADD DUP1 DUP3 SSTORE DUP1 SWAP2 POP POP PUSH1 0x1 SWAP1 SUB SWAP1 PUSH1 0x0 MSTORE PUSH1 0x20 PUSH1 0x0 KECCAK256 ADD PUSH1 0x0 SWAP1 SWAP2 SWAP1 SWAP2 SWAP1 SWAP2 PUSH2 0x100 EXP DUP2 SLOAD DUP2 PUSH20 0xFFFFFFFFFFFFFFFFFFFFFFFFFFFFFFFFFFFFFFFF MUL NOT AND SWAP1 DUP4 PUSH20 0xFFFFFFFFFFFFFFFFFFFFFFFFFFFFFFFFFFFFFFFF AND MUL OR SWAP1 SSTORE POP PUSH1 0x1 PUSH1 0xE PUSH1 0x0 DUP4 PUSH20 0xFFFFFFFFFFFFFFFFFFFFFFFFFFFFFFFFFFFFFFFF AND PUSH20 0xFFFFFFFFFFFFFFFFFFFFFFFFFFFFFFFFFFFFFFFF AND DUP2 MSTORE PUSH1 0x20 ADD SWAP1 DUP2 MSTORE PUSH1 0x20 ADD PUSH1 0x0 KECCAK256 PUSH1 0x0 PUSH2 0x100 EXP DUP2 SLOAD DUP2 PUSH1 0xFF MUL NOT AND SWAP1 DUP4 ISZERO ISZERO MUL OR SWAP1 SSTORE POP DUP1 PUSH20 0xFFFFFFFFFFFFFFFFFFFFFFFFFFFFFFFFFFFFFFFF AND PUSH32 0x994A936646FE87FFE4F1E469D3D6AA417D6B855598397F323DE5B449F765F0C3 PUSH1 0x40 MLOAD PUSH1 0x40 MLOAD DUP1 SWAP2 SUB SWAP1 LOG2 POP JUMP JUMPDEST PUSH1 0x0 DUP1 PUSH20 0xFFFFFFFFFFFFFFFFFFFFFFFFFFFFFFFFFFFFFFFF AND DUP3 PUSH20 0xFFFFFFFFFFFFFFFFFFFFFFFFFFFFFFFFFFFFFFFF AND SUB PUSH2 0x17D5 JUMPI PUSH1 0x40 MLOAD PUSH32 0x8C379A000000000000000000000000000000000000000000000000000000000 DUP2 MSTORE PUSH1 0x4 ADD PUSH2 0x17CC SWAP1 PUSH2 0x449E JUMP JUMPDEST PUSH1 0x40 MLOAD DUP1 SWAP2 SUB SWAP1 REVERT JUMPDEST PUSH1 0x3 PUSH1 0x0 DUP4 PUSH20 0xFFFFFFFFFFFFFFFFFFFFFFFFFFFFFFFFFFFFFFFF AND PUSH20 0xFFFFFFFFFFFFFFFFFFFFFFFFFFFFFFFFFFFFFFFF AND DUP2 MSTORE PUSH1 0x20 ADD SWAP1 DUP2 MSTORE PUSH1 0x20 ADD PUSH1 0x0 KECCAK256 SLOAD SWAP1 POP SWAP2 SWAP1 POP JUMP JUMPDEST PUSH2 0x1824 PUSH2 0x240D JUMP JUMPDEST PUSH2 0x182E PUSH1 0x0 PUSH2 0x248B JUMP JUMPDEST JUMP JUMPDEST PUSH1 0xC PUSH1 0x0 DUP2 SLOAD DUP1 SWAP3 SWAP2 SWAP1 PUSH2 0x1843 SWAP1 PUSH2 0x40A4 JUMP JUMPDEST SWAP2 SWAP1 POP SSTORE POP PUSH1 0x1 PUSH1 0x12 PUSH1 0x0 DUP4 PUSH20 0xFFFFFFFFFFFFFFFFFFFFFFFFFFFFFFFFFFFFFFFF AND PUSH20 0xFFFFFFFFFFFFFFFFFFFFFFFFFFFFFFFFFFFFFFFF AND DUP2 MSTORE PUSH1 0x20 ADD SWAP1 DUP2 MSTORE PUSH1 0x20 ADD PUSH1 0x0 KECCAK256 PUSH1 0x0 PUSH2 0x100 EXP DUP2 SLOAD DUP2 PUSH1 0xFF MUL NOT AND SWAP1 DUP4 ISZERO ISZERO MUL OR SWAP1 SSTORE POP PUSH1 0x11 DUP2 SWAP1 DUP1 PUSH1 0x1 DUP2 SLOAD ADD DUP1 DUP3 SSTORE DUP1 SWAP2 POP POP PUSH1 0x1 SWAP1 SUB SWAP1 PUSH1 0x0 MSTORE PUSH1 0x20 PUSH1 0x0 KECCAK256 ADD PUSH1 0x0 SWAP1 SWAP2 SWAP1 SWAP2 SWAP1 SWAP2 PUSH2 0x100 EXP DUP2 SLOAD DUP2 PUSH20 0xFFFFFFFFFFFFFFFFFFFFFFFFFFFFFFFFFFFFFFFF MUL NOT AND SWAP1 DUP4 PUSH20 0xFFFFFFFFFFFFFFFFFFFFFFFFFFFFFFFFFFFFFFFF AND MUL OR SWAP1 SSTORE POP ADDRESS PUSH20 0xFFFFFFFFFFFFFFFFFFFFFFFFFFFFFFFFFFFFFFFF AND DUP2 PUSH20 0xFFFFFFFFFFFFFFFFFFFFFFFFFFFFFFFFFFFFFFFF AND PUSH32 0xEB43D45051FBE432E688FDA6AE7DFB8F51CAB0CAF2BEC0B4429FC7AF0D2A2B27 PUSH1 0x40 MLOAD PUSH1 0x40 MLOAD DUP1 SWAP2 SUB SWAP1 LOG3 POP JUMP JUMPDEST PUSH1 0xA DUP1 SLOAD PUSH2 0x196D SWAP1 PUSH2 0x3C36 JUMP JUMPDEST DUP1 PUSH1 0x1F ADD PUSH1 0x20 DUP1 SWAP2 DIV MUL PUSH1 0x20 ADD PUSH1 0x40 MLOAD SWAP1 DUP2 ADD PUSH1 0x40 MSTORE DUP1 SWAP3 SWAP2 SWAP1 DUP2 DUP2 MSTORE PUSH1 0x20 ADD DUP3 DUP1 SLOAD PUSH2 0x1999 SWAP1 PUSH2 0x3C36 JUMP JUMPDEST DUP1 ISZERO PUSH2 0x19E6 JUMPI DUP1 PUSH1 0x1F LT PUSH2 0x19BB JUMPI PUSH2 0x100 DUP1 DUP4 SLOAD DIV MUL DUP4 MSTORE SWAP2 PUSH1 0x20 ADD SWAP2 PUSH2 0x19E6 JUMP JUMPDEST DUP3 ADD SWAP2 SWAP1 PUSH1 0x0 MSTORE PUSH1 0x20 PUSH1 0x0 KECCAK256 SWAP1 JUMPDEST DUP2 SLOAD DUP2 MSTORE SWAP1 PUSH1 0x1 ADD SWAP1 PUSH1 0x20 ADD DUP1 DUP4 GT PUSH2 0x19C9 JUMPI DUP3 SWAP1 SUB PUSH1 0x1F AND DUP3 ADD SWAP2 JUMPDEST POP POP POP POP POP DUP2 JUMP JUMPDEST PUSH1 0x0 PUSH1 0x7 PUSH1 0x0 SWAP1 SLOAD SWAP1 PUSH2 0x100 EXP SWAP1 DIV PUSH20 0xFFFFFFFFFFFFFFFFFFFFFFFFFFFFFFFFFFFFFFFF AND SWAP1 POP SWAP1 JUMP JUMPDEST PUSH1 0x10 PUSH1 0x20 MSTORE DUP1 PUSH1 0x0 MSTORE PUSH1 0x40 PUSH1 0x0 KECCAK256 PUSH1 0x0 SWAP2 POP SWAP1 POP DUP1 SLOAD PUSH2 0x1A37 SWAP1 PUSH2 0x3C36 JUMP JUMPDEST DUP1 PUSH1 0x1F ADD PUSH1 0x20 DUP1 SWAP2 DIV MUL PUSH1 0x20 ADD PUSH1 0x40 MLOAD SWAP1 DUP2 ADD PUSH1 0x40 MSTORE DUP1 SWAP3 SWAP2 SWAP1 DUP2 DUP2 MSTORE PUSH1 0x20 ADD DUP3 DUP1 SLOAD PUSH2 0x1A63 SWAP1 PUSH2 0x3C36 JUMP JUMPDEST DUP1 ISZERO PUSH2 0x1AB0 JUMPI DUP1 PUSH1 0x1F LT PUSH2 0x1A85 JUMPI PUSH2 0x100 DUP1 DUP4 SLOAD DIV MUL DUP4 MSTORE SWAP2 PUSH1 0x20 ADD SWAP2 PUSH2 0x1AB0 JUMP JUMPDEST DUP3 ADD SWAP2 SWAP1 PUSH1 0x0 MSTORE PUSH1 0x20 PUSH1 0x0 KECCAK256 SWAP1 JUMPDEST DUP2 SLOAD DUP2 MSTORE SWAP1 PUSH1 0x1 ADD SWAP1 PUSH1 0x20 ADD DUP1 DUP4 GT PUSH2 0x1A93 JUMPI DUP3 SWAP1 SUB PUSH1 0x1F AND DUP3 ADD SWAP2 JUMPDEST POP POP POP POP POP DUP2 JUMP JUMPDEST PUSH1 0x60 PUSH1 0x1 DUP1 SLOAD PUSH2 0x1AC7 SWAP1 PUSH2 0x3C36 JUMP JUMPDEST DUP1 PUSH1 0x1F ADD PUSH1 0x20 DUP1 SWAP2 DIV MUL PUSH1 0x20 ADD PUSH1 0x40 MLOAD SWAP1 DUP2 ADD PUSH1 0x40 MSTORE DUP1 SWAP3 SWAP2 SWAP1 DUP2 DUP2 MSTORE PUSH1 0x20 ADD DUP3 DUP1 SLOAD PUSH2 0x1AF3 SWAP1 PUSH2 0x3C36 JUMP JUMPDEST DUP1 ISZERO PUSH2 0x1B40 JUMPI DUP1 PUSH1 0x1F LT PUSH2 0x1B15 JUMPI PUSH2 0x100 DUP1 DUP4 SLOAD DIV MUL DUP4 MSTORE SWAP2 PUSH1 0x20 ADD SWAP2 PUSH2 0x1B40 JUMP JUMPDEST DUP3 ADD SWAP2 SWAP1 PUSH1 0x0 MSTORE PUSH1 0x20 PUSH1 0x0 KECCAK256 SWAP1 JUMPDEST DUP2 SLOAD DUP2 MSTORE SWAP1 PUSH1 0x1 ADD SWAP1 PUSH1 0x20 ADD DUP1 DUP4 GT PUSH2 0x1B23 JUMPI DUP3 SWAP1 SUB PUSH1 0x1F AND DUP3 ADD SWAP2 JUMPDEST POP POP POP POP POP SWAP1 POP SWAP1 JUMP JUMPDEST PUSH2 0x1B5C PUSH2 0x1B55 PUSH2 0x1EB3 JUMP JUMPDEST DUP4 DUP4 PUSH2 0x2551 JUMP JUMPDEST POP POP JUMP JUMPDEST PUSH1 0x9 DUP1 SLOAD PUSH2 0x1B6D SWAP1 PUSH2 0x3C36 JUMP JUMPDEST DUP1 PUSH1 0x1F ADD PUSH1 0x20 DUP1 SWAP2 DIV MUL PUSH1 0x20 ADD PUSH1 0x40 MLOAD SWAP1 DUP2 ADD PUSH1 0x40 MSTORE DUP1 SWAP3 SWAP2 SWAP1 DUP2 DUP2 MSTORE PUSH1 0x20 ADD DUP3 DUP1 SLOAD PUSH2 0x1B99 SWAP1 PUSH2 0x3C36 JUMP JUMPDEST DUP1 ISZERO PUSH2 0x1BE6 JUMPI DUP1 PUSH1 0x1F LT PUSH2 0x1BBB JUMPI PUSH2 0x100 DUP1 DUP4 SLOAD DIV MUL DUP4 MSTORE SWAP2 PUSH1 0x20 ADD SWAP2 PUSH2 0x1BE6 JUMP JUMPDEST DUP3 ADD SWAP2 SWAP1 PUSH1 0x0 MSTORE PUSH1 0x20 PUSH1 0x0 KECCAK256 SWAP1 JUMPDEST DUP2 SLOAD DUP2 MSTORE SWAP1 PUSH1 0x1 ADD SWAP1 PUSH1 0x20 ADD DUP1 DUP4 GT PUSH2 0x1BC9 JUMPI DUP3 SWAP1 SUB PUSH1 0x1F AND DUP3 ADD SWAP2 JUMPDEST POP POP POP POP POP DUP2 JUMP JUMPDEST PUSH2 0x1BFF PUSH2 0x1BF9 PUSH2 0x1EB3 JUMP JUMPDEST DUP4 PUSH2 0x2042 JUMP JUMPDEST PUSH2 0x1C3E JUMPI PUSH1 0x40 MLOAD PUSH32 0x8C379A000000000000000000000000000000000000000000000000000000000 DUP2 MSTORE PUSH1 0x4 ADD PUSH2 0x1C35 SWAP1 PUSH2 0x42C8 JUMP JUMPDEST PUSH1 0x40 MLOAD DUP1 SWAP2 SUB SWAP1 REVERT JUMPDEST PUSH2 0x1C4A DUP5 DUP5 DUP5 DUP5 PUSH2 0x26BD JUMP JUMPDEST POP POP POP POP JUMP JUMPDEST PUSH1 0x8 DUP1 SLOAD PUSH2 0x1C5D SWAP1 PUSH2 0x3C36 JUMP JUMPDEST DUP1 PUSH1 0x1F ADD PUSH1 0x20 DUP1 SWAP2 DIV MUL PUSH1 0x20 ADD PUSH1 0x40 MLOAD SWAP1 DUP2 ADD PUSH1 0x40 MSTORE DUP1 SWAP3 SWAP2 SWAP1 DUP2 DUP2 MSTORE PUSH1 0x20 ADD DUP3 DUP1 SLOAD PUSH2 0x1C89 SWAP1 PUSH2 0x3C36 JUMP JUMPDEST DUP1 ISZERO PUSH2 0x1CD6 JUMPI DUP1 PUSH1 0x1F LT PUSH2 0x1CAB JUMPI PUSH2 0x100 DUP1 DUP4 SLOAD DIV MUL DUP4 MSTORE SWAP2 PUSH1 0x20 ADD SWAP2 PUSH2 0x1CD6 JUMP JUMPDEST DUP3 ADD SWAP2 SWAP1 PUSH1 0x0 MSTORE PUSH1 0x20 PUSH1 0x0 KECCAK256 SWAP1 JUMPDEST DUP2 SLOAD DUP2 MSTORE SWAP1 PUSH1 0x1 ADD SWAP1 PUSH1 0x20 ADD DUP1 DUP4 GT PUSH2 0x1CB9 JUMPI DUP3 SWAP1 SUB PUSH1 0x1F AND DUP3 ADD SWAP2 JUMPDEST POP POP POP POP POP DUP2 JUMP JUMPDEST PUSH1 0x60 PUSH2 0x1CE9 DUP3 PUSH2 0x2719 JUMP JUMPDEST SWAP1 POP SWAP2 SWAP1 POP JUMP JUMPDEST PUSH1 0x0 PUSH1 0x5 PUSH1 0x0 DUP5 PUSH20 0xFFFFFFFFFFFFFFFFFFFFFFFFFFFFFFFFFFFFFFFF AND PUSH20 0xFFFFFFFFFFFFFFFFFFFFFFFFFFFFFFFFFFFFFFFF AND DUP2 MSTORE PUSH1 0x20 ADD SWAP1 DUP2 MSTORE PUSH1 0x20 ADD PUSH1 0x0 KECCAK256 PUSH1 0x0 DUP4 PUSH20 0xFFFFFFFFFFFFFFFFFFFFFFFFFFFFFFFFFFFFFFFF AND PUSH20 0xFFFFFFFFFFFFFFFFFFFFFFFFFFFFFFFFFFFFFFFF AND DUP2 MSTORE PUSH1 0x20 ADD SWAP1 DUP2 MSTORE PUSH1 0x20 ADD PUSH1 0x0 KECCAK256 PUSH1 0x0 SWAP1 SLOAD SWAP1 PUSH2 0x100 EXP SWAP1 DIV PUSH1 0xFF AND SWAP1 POP SWAP3 SWAP2 POP POP JUMP JUMPDEST PUSH2 0x1D8C PUSH2 0x240D JUMP JUMPDEST PUSH1 0x0 PUSH20 0xFFFFFFFFFFFFFFFFFFFFFFFFFFFFFFFFFFFFFFFF AND DUP2 PUSH20 0xFFFFFFFFFFFFFFFFFFFFFFFFFFFFFFFFFFFFFFFF AND SUB PUSH2 0x1DFB JUMPI PUSH1 0x40 MLOAD PUSH32 0x8C379A000000000000000000000000000000000000000000000000000000000 DUP2 MSTORE PUSH1 0x4 ADD PUSH2 0x1DF2 SWAP1 PUSH2 0x4530 JUMP JUMPDEST PUSH1 0x40 MLOAD DUP1 SWAP2 SUB SWAP1 REVERT JUMPDEST PUSH2 0x1E04 DUP2 PUSH2 0x248B JUMP JUMPDEST POP JUMP JUMPDEST PUSH1 0x0 PUSH4 0x49064906 PUSH1 0xE0 SHL PUSH28 0xFFFFFFFFFFFFFFFFFFFFFFFFFFFFFFFFFFFFFFFFFFFFFFFFFFFFFFFF NOT AND DUP3 PUSH28 0xFFFFFFFFFFFFFFFFFFFFFFFFFFFFFFFFFFFFFFFFFFFFFFFFFFFFFFFF NOT AND EQ DUP1 PUSH2 0x1E61 JUMPI POP PUSH2 0x1E60 DUP3 PUSH2 0x282B JUMP JUMPDEST JUMPDEST SWAP1 POP SWAP2 SWAP1 POP JUMP JUMPDEST PUSH2 0x1E71 DUP2 PUSH2 0x290D JUMP JUMPDEST PUSH2 0x1EB0 JUMPI PUSH1 0x40 MLOAD PUSH32 0x8C379A000000000000000000000000000000000000000000000000000000000 DUP2 MSTORE PUSH1 0x4 ADD PUSH2 0x1EA7 SWAP1 PUSH2 0x43A0 JUMP JUMPDEST PUSH1 0x40 MLOAD DUP1 SWAP2 SUB SWAP1 REVERT JUMPDEST POP JUMP JUMPDEST PUSH1 0x0 CALLER SWAP1 POP SWAP1 JUMP JUMPDEST DUP2 PUSH1 0x4 PUSH1 0x0 DUP4 DUP2 MSTORE PUSH1 0x20 ADD SWAP1 DUP2 MSTORE PUSH1 0x20 ADD PUSH1 0x0 KECCAK256 PUSH1 0x0 PUSH2 0x100 EXP DUP2 SLOAD DUP2 PUSH20 0xFFFFFFFFFFFFFFFFFFFFFFFFFFFFFFFFFFFFFFFF MUL NOT AND SWAP1 DUP4 PUSH20 0xFFFFFFFFFFFFFFFFFFFFFFFFFFFFFFFFFFFFFFFF AND MUL OR SWAP1 SSTORE POP DUP1 DUP3 PUSH20 0xFFFFFFFFFFFFFFFFFFFFFFFFFFFFFFFFFFFFFFFF AND PUSH2 0x1F2E DUP4 PUSH2 0x14C5 JUMP JUMPDEST PUSH20 0xFFFFFFFFFFFFFFFFFFFFFFFFFFFFFFFFFFFFFFFF AND PUSH32 0x8C5BE1E5EBEC7D5BD14F71427D1E84F3DD0314C0F7B2291E5B200AC8C7C3B925 PUSH1 0x40 MLOAD PUSH1 0x40 MLOAD DUP1 SWAP2 SUB SWAP1 LOG4 POP POP JUMP JUMPDEST PUSH2 0x1F8E DUP3 DUP3 PUSH1 0x40 MLOAD DUP1 PUSH1 0x20 ADD PUSH1 0x40 MSTORE DUP1 PUSH1 0x0 DUP2 MSTORE POP PUSH2 0x294E JUMP JUMPDEST POP POP JUMP JUMPDEST PUSH2 0x1F9B DUP3 PUSH2 0x290D JUMP JUMPDEST PUSH2 0x1FDA JUMPI PUSH1 0x40 MLOAD PUSH32 0x8C379A000000000000000000000000000000000000000000000000000000000 DUP2 MSTORE PUSH1 0x4 ADD PUSH2 0x1FD1 SWAP1 PUSH2 0x45C2 JUMP JUMPDEST PUSH1 0x40 MLOAD DUP1 SWAP2 SUB SWAP1 REVERT JUMPDEST DUP1 PUSH1 0x6 PUSH1 0x0 DUP5 DUP2 MSTORE PUSH1 0x20 ADD SWAP1 DUP2 MSTORE PUSH1 0x20 ADD PUSH1 0x0 KECCAK256 SWAP1 DUP2 PUSH2 0x1FFA SWAP2 SWAP1 PUSH2 0x3FA3 JUMP JUMPDEST POP PUSH32 0xF8E1A15ABA9398E019F0B49DF1A4FDE98EE17AE345CB5F6B5E2C27F5033E8CE7 DUP3 PUSH1 0x40 MLOAD PUSH2 0x202A SWAP2 SWAP1 PUSH2 0x356C JUMP JUMPDEST PUSH1 0x40 MLOAD DUP1 SWAP2 SUB SWAP1 LOG1 POP POP JUMP JUMPDEST PUSH2 0x203F DUP2 PUSH2 0x29A9 JUMP JUMPDEST POP JUMP JUMPDEST PUSH1 0x0 DUP1 PUSH2 0x204E DUP4 PUSH2 0x14C5 JUMP JUMPDEST SWAP1 POP DUP1 PUSH20 0xFFFFFFFFFFFFFFFFFFFFFFFFFFFFFFFFFFFFFFFF AND DUP5 PUSH20 0xFFFFFFFFFFFFFFFFFFFFFFFFFFFFFFFFFFFFFFFF AND EQ DUP1 PUSH2 0x2090 JUMPI POP PUSH2 0x208F DUP2 DUP6 PUSH2 0x1CF0 JUMP JUMPDEST JUMPDEST DUP1 PUSH2 0x20CE JUMPI POP DUP4 PUSH20 0xFFFFFFFFFFFFFFFFFFFFFFFFFFFFFFFFFFFFFFFF AND PUSH2 0x20B6 DUP5 PUSH2 0x811 JUMP JUMPDEST PUSH20 0xFFFFFFFFFFFFFFFFFFFFFFFFFFFFFFFFFFFFFFFF AND EQ JUMPDEST SWAP2 POP POP SWAP3 SWAP2 POP POP JUMP JUMPDEST DUP3 PUSH20 0xFFFFFFFFFFFFFFFFFFFFFFFFFFFFFFFFFFFFFFFF AND PUSH2 0x20F7 DUP3 PUSH2 0x14C5 JUMP JUMPDEST PUSH20 0xFFFFFFFFFFFFFFFFFFFFFFFFFFFFFFFFFFFFFFFF AND EQ PUSH2 0x214D JUMPI PUSH1 0x40 MLOAD PUSH32 0x8C379A000000000000000000000000000000000000000000000000000000000 DUP2 MSTORE PUSH1 0x4 ADD PUSH2 0x2144 SWAP1 PUSH2 0x4654 JUMP JUMPDEST PUSH1 0x40 MLOAD DUP1 SWAP2 SUB SWAP1 REVERT JUMPDEST PUSH1 0x0 PUSH20 0xFFFFFFFFFFFFFFFFFFFFFFFFFFFFFFFFFFFFFFFF AND DUP3 PUSH20 0xFFFFFFFFFFFFFFFFFFFFFFFFFFFFFFFFFFFFFFFF AND SUB PUSH2 0x21BC JUMPI PUSH1 0x40 MLOAD PUSH32 0x8C379A000000000000000000000000000000000000000000000000000000000 DUP2 MSTORE PUSH1 0x4 ADD PUSH2 0x21B3 SWAP1 PUSH2 0x46E6 JUMP JUMPDEST PUSH1 0x40 MLOAD DUP1 SWAP2 SUB SWAP1 REVERT JUMPDEST PUSH2 0x21C9 DUP4 DUP4 DUP4 PUSH1 0x1 PUSH2 0x29FC JUMP JUMPDEST DUP3 PUSH20 0xFFFFFFFFFFFFFFFFFFFFFFFFFFFFFFFFFFFFFFFF AND PUSH2 0x21E9 DUP3 PUSH2 0x14C5 JUMP JUMPDEST PUSH20 0xFFFFFFFFFFFFFFFFFFFFFFFFFFFFFFFFFFFFFFFF AND EQ PUSH2 0x223F JUMPI PUSH1 0x40 MLOAD PUSH32 0x8C379A000000000000000000000000000000000000000000000000000000000 DUP2 MSTORE PUSH1 0x4 ADD PUSH2 0x2236 SWAP1 PUSH2 0x4654 JUMP JUMPDEST PUSH1 0x40 MLOAD DUP1 SWAP2 SUB SWAP1 REVERT JUMPDEST PUSH1 0x4 PUSH1 0x0 DUP3 DUP2 MSTORE PUSH1 0x20 ADD SWAP1 DUP2 MSTORE PUSH1 0x20 ADD PUSH1 0x0 KECCAK256 PUSH1 0x0 PUSH2 0x100 EXP DUP2 SLOAD SWAP1 PUSH20 0xFFFFFFFFFFFFFFFFFFFFFFFFFFFFFFFFFFFFFFFF MUL NOT AND SWAP1 SSTORE PUSH1 0x1 PUSH1 0x3 PUSH1 0x0 DUP6 PUSH20 0xFFFFFFFFFFFFFFFFFFFFFFFFFFFFFFFFFFFFFFFF AND PUSH20 0xFFFFFFFFFFFFFFFFFFFFFFFFFFFFFFFFFFFFFFFF AND DUP2 MSTORE PUSH1 0x20 ADD SWAP1 DUP2 MSTORE PUSH1 0x20 ADD PUSH1 0x0 KECCAK256 PUSH1 0x0 DUP3 DUP3 SLOAD SUB SWAP3 POP POP DUP2 SWAP1 SSTORE POP PUSH1 0x1 PUSH1 0x3 PUSH1 0x0 DUP5 PUSH20 0xFFFFFFFFFFFFFFFFFFFFFFFFFFFFFFFFFFFFFFFF AND PUSH20 0xFFFFFFFFFFFFFFFFFFFFFFFFFFFFFFFFFFFFFFFF AND DUP2 MSTORE PUSH1 0x20 ADD SWAP1 DUP2 MSTORE PUSH1 0x20 ADD PUSH1 0x0 KECCAK256 PUSH1 0x0 DUP3 DUP3 SLOAD ADD SWAP3 POP POP DUP2 SWAP1 SSTORE POP DUP2 PUSH1 0x2 PUSH1 0x0 DUP4 DUP2 MSTORE PUSH1 0x20 ADD SWAP1 DUP2 MSTORE PUSH1 0x20 ADD PUSH1 0x0 KECCAK256 PUSH1 0x0 PUSH2 0x100 EXP DUP2 SLOAD DUP2 PUSH20 0xFFFFFFFFFFFFFFFFFFFFFFFFFFFFFFFFFFFFFFFF MUL NOT AND SWAP1 DUP4 PUSH20 0xFFFFFFFFFFFFFFFFFFFFFFFFFFFFFFFFFFFFFFFF AND MUL OR SWAP1 SSTORE POP DUP1 DUP3 PUSH20 0xFFFFFFFFFFFFFFFFFFFFFFFFFFFFFFFFFFFFFFFF AND DUP5 PUSH20 0xFFFFFFFFFFFFFFFFFFFFFFFFFFFFFFFFFFFFFFFF AND PUSH32 0xDDF252AD1BE2C89B69C2B068FC378DAA952BA7F163C4A11628F55A4DF523B3EF PUSH1 0x40 MLOAD PUSH1 0x40 MLOAD DUP1 SWAP2 SUB SWAP1 LOG4 PUSH2 0x23CB DUP4 DUP4 DUP4 PUSH1 0x1 PUSH2 0x2A02 JUMP JUMPDEST POP POP POP JUMP JUMPDEST PUSH1 0x0 PUSH1 0x2 PUSH1 0x0 DUP4 DUP2 MSTORE PUSH1 0x20 ADD SWAP1 DUP2 MSTORE PUSH1 0x20 ADD PUSH1 0x0 KECCAK256 PUSH1 0x0 SWAP1 SLOAD SWAP1 PUSH2 0x100 EXP SWAP1 DIV PUSH20 0xFFFFFFFFFFFFFFFFFFFFFFFFFFFFFFFFFFFFFFFF AND SWAP1 POP SWAP2 SWAP1 POP JUMP JUMPDEST PUSH2 0x2415 PUSH2 0x1EB3 JUMP JUMPDEST PUSH20 0xFFFFFFFFFFFFFFFFFFFFFFFFFFFFFFFFFFFFFFFF AND PUSH2 0x2433 PUSH2 0x19EE JUMP JUMPDEST PUSH20 0xFFFFFFFFFFFFFFFFFFFFFFFFFFFFFFFFFFFFFFFF AND EQ PUSH2 0x2489 JUMPI PUSH1 0x40 MLOAD PUSH32 0x8C379A000000000000000000000000000000000000000000000000000000000 DUP2 MSTORE PUSH1 0x4 ADD PUSH2 0x2480 SWAP1 PUSH2 0x4752 JUMP JUMPDEST PUSH1 0x40 MLOAD DUP1 SWAP2 SUB SWAP1 REVERT JUMPDEST JUMP JUMPDEST PUSH1 0x0 PUSH1 0x7 PUSH1 0x0 SWAP1 SLOAD SWAP1 PUSH2 0x100 EXP SWAP1 DIV PUSH20 0xFFFFFFFFFFFFFFFFFFFFFFFFFFFFFFFFFFFFFFFF AND SWAP1 POP DUP2 PUSH1 0x7 PUSH1 0x0 PUSH2 0x100 EXP DUP2 SLOAD DUP2 PUSH20 0xFFFFFFFFFFFFFFFFFFFFFFFFFFFFFFFFFFFFFFFF MUL NOT AND SWAP1 DUP4 PUSH20 0xFFFFFFFFFFFFFFFFFFFFFFFFFFFFFFFFFFFFFFFF AND MUL OR SWAP1 SSTORE POP DUP2 PUSH20 0xFFFFFFFFFFFFFFFFFFFFFFFFFFFFFFFFFFFFFFFF AND DUP2 PUSH20 0xFFFFFFFFFFFFFFFFFFFFFFFFFFFFFFFFFFFFFFFF AND PUSH32 0x8BE0079C531659141344CD1FD0A4F28419497F9722A3DAAFE3B4186F6B6457E0 PUSH1 0x40 MLOAD PUSH1 0x40 MLOAD DUP1 SWAP2 SUB SWAP1 LOG3 POP POP JUMP JUMPDEST DUP2 PUSH20 0xFFFFFFFFFFFFFFFFFFFFFFFFFFFFFFFFFFFFFFFF AND DUP4 PUSH20 0xFFFFFFFFFFFFFFFFFFFFFFFFFFFFFFFFFFFFFFFF AND SUB PUSH2 0x25BF JUMPI PUSH1 0x40 MLOAD PUSH32 0x8C379A000000000000000000000000000000000000000000000000000000000 DUP2 MSTORE PUSH1 0x4 ADD PUSH2 0x25B6 SWAP1 PUSH2 0x47BE JUMP JUMPDEST PUSH1 0x40 MLOAD DUP1 SWAP2 SUB SWAP1 REVERT JUMPDEST DUP1 PUSH1 0x5 PUSH1 0x0 DUP6 PUSH20 0xFFFFFFFFFFFFFFFFFFFFFFFFFFFFFFFFFFFFFFFF AND PUSH20 0xFFFFFFFFFFFFFFFFFFFFFFFFFFFFFFFFFFFFFFFF AND DUP2 MSTORE PUSH1 0x20 ADD SWAP1 DUP2 MSTORE PUSH1 0x20 ADD PUSH1 0x0 KECCAK256 PUSH1 0x0 DUP5 PUSH20 0xFFFFFFFFFFFFFFFFFFFFFFFFFFFFFFFFFFFFFFFF AND PUSH20 0xFFFFFFFFFFFFFFFFFFFFFFFFFFFFFFFFFFFFFFFF AND DUP2 MSTORE PUSH1 0x20 ADD SWAP1 DUP2 MSTORE PUSH1 0x20 ADD PUSH1 0x0 KECCAK256 PUSH1 0x0 PUSH2 0x100 EXP DUP2 SLOAD DUP2 PUSH1 0xFF MUL NOT AND SWAP1 DUP4 ISZERO ISZERO MUL OR SWAP1 SSTORE POP DUP2 PUSH20 0xFFFFFFFFFFFFFFFFFFFFFFFFFFFFFFFFFFFFFFFF AND DUP4 PUSH20 0xFFFFFFFFFFFFFFFFFFFFFFFFFFFFFFFFFFFFFFFF AND PUSH32 0x17307EAB39AB6107E8899845AD3D59BD9653F200F220920489CA2B5937696C31 DUP4 PUSH1 0x40 MLOAD PUSH2 0x26B0 SWAP2 SWAP1 PUSH2 0x3338 JUMP JUMPDEST PUSH1 0x40 MLOAD DUP1 SWAP2 SUB SWAP1 LOG3 POP POP POP JUMP JUMPDEST PUSH2 0x26C8 DUP5 DUP5 DUP5 PUSH2 0x20D7 JUMP JUMPDEST PUSH2 0x26D4 DUP5 DUP5 DUP5 DUP5 PUSH2 0x2A08 JUMP JUMPDEST PUSH2 0x2713 JUMPI PUSH1 0x40 MLOAD PUSH32 0x8C379A000000000000000000000000000000000000000000000000000000000 DUP2 MSTORE PUSH1 0x4 ADD PUSH2 0x270A SWAP1 PUSH2 0x4850 JUMP JUMPDEST PUSH1 0x40 MLOAD DUP1 SWAP2 SUB SWAP1 REVERT JUMPDEST POP POP POP POP JUMP JUMPDEST PUSH1 0x60 PUSH2 0x2724 DUP3 PUSH2 0x1E68 JUMP JUMPDEST PUSH1 0x0 PUSH1 0x6 PUSH1 0x0 DUP5 DUP2 MSTORE PUSH1 0x20 ADD SWAP1 DUP2 MSTORE PUSH1 0x20 ADD PUSH1 0x0 KECCAK256 DUP1 SLOAD PUSH2 0x2744 SWAP1 PUSH2 0x3C36 JUMP JUMPDEST DUP1 PUSH1 0x1F ADD PUSH1 0x20 DUP1 SWAP2 DIV MUL PUSH1 0x20 ADD PUSH1 0x40 MLOAD SWAP1 DUP2 ADD PUSH1 0x40 MSTORE DUP1 SWAP3 SWAP2 SWAP1 DUP2 DUP2 MSTORE PUSH1 0x20 ADD DUP3 DUP1 SLOAD PUSH2 0x2770 SWAP1 PUSH2 0x3C36 JUMP JUMPDEST DUP1 ISZERO PUSH2 0x27BD JUMPI DUP1 PUSH1 0x1F LT PUSH2 0x2792 JUMPI PUSH2 0x100 DUP1 DUP4 SLOAD DIV MUL DUP4 MSTORE SWAP2 PUSH1 0x20 ADD SWAP2 PUSH2 0x27BD JUMP JUMPDEST DUP3 ADD SWAP2 SWAP1 PUSH1 0x0 MSTORE PUSH1 0x20 PUSH1 0x0 KECCAK256 SWAP1 JUMPDEST DUP2 SLOAD DUP2 MSTORE SWAP1 PUSH1 0x1 ADD SWAP1 PUSH1 0x20 ADD DUP1 DUP4 GT PUSH2 0x27A0 JUMPI DUP3 SWAP1 SUB PUSH1 0x1F AND DUP3 ADD SWAP2 JUMPDEST POP POP POP POP POP SWAP1 POP PUSH1 0x0 PUSH2 0x27CE PUSH2 0x2B8F JUMP JUMPDEST SWAP1 POP PUSH1 0x0 DUP2 MLOAD SUB PUSH2 0x27E3 JUMPI DUP2 SWAP3 POP POP POP PUSH2 0x2826 JUMP JUMPDEST PUSH1 0x0 DUP3 MLOAD GT ISZERO PUSH2 0x2818 JUMPI DUP1 DUP3 PUSH1 0x40 MLOAD PUSH1 0x20 ADD PUSH2 0x2800 SWAP3 SWAP2 SWAP1 PUSH2 0x48AC JUMP JUMPDEST PUSH1 0x40 MLOAD PUSH1 0x20 DUP2 DUP4 SUB SUB DUP2 MSTORE SWAP1 PUSH1 0x40 MSTORE SWAP3 POP POP POP PUSH2 0x2826 JUMP JUMPDEST PUSH2 0x2821 DUP5 PUSH2 0x2BA6 JUMP JUMPDEST SWAP3 POP POP POP JUMPDEST SWAP2 SWAP1 POP JUMP JUMPDEST PUSH1 0x0 PUSH32 0x80AC58CD00000000000000000000000000000000000000000000000000000000 PUSH28 0xFFFFFFFFFFFFFFFFFFFFFFFFFFFFFFFFFFFFFFFFFFFFFFFFFFFFFFFF NOT AND DUP3 PUSH28 0xFFFFFFFFFFFFFFFFFFFFFFFFFFFFFFFFFFFFFFFFFFFFFFFFFFFFFFFF NOT AND EQ DUP1 PUSH2 0x28F6 JUMPI POP PUSH32 0x5B5E139F00000000000000000000000000000000000000000000000000000000 PUSH28 0xFFFFFFFFFFFFFFFFFFFFFFFFFFFFFFFFFFFFFFFFFFFFFFFFFFFFFFFF NOT AND DUP3 PUSH28 0xFFFFFFFFFFFFFFFFFFFFFFFFFFFFFFFFFFFFFFFFFFFFFFFFFFFFFFFF NOT AND EQ JUMPDEST DUP1 PUSH2 0x2906 JUMPI POP PUSH2 0x2905 DUP3 PUSH2 0x2C0E JUMP JUMPDEST JUMPDEST SWAP1 POP SWAP2 SWAP1 POP JUMP JUMPDEST PUSH1 0x0 DUP1 PUSH20 0xFFFFFFFFFFFFFFFFFFFFFFFFFFFFFFFFFFFFFFFF AND PUSH2 0x292F DUP4 PUSH2 0x23D0 JUMP JUMPDEST PUSH20 0xFFFFFFFFFFFFFFFFFFFFFFFFFFFFFFFFFFFFFFFF AND EQ ISZERO SWAP1 POP SWAP2 SWAP1 POP JUMP JUMPDEST PUSH2 0x2958 DUP4 DUP4 PUSH2 0x2C78 JUMP JUMPDEST PUSH2 0x2965 PUSH1 0x0 DUP5 DUP5 DUP5 PUSH2 0x2A08 JUMP JUMPDEST PUSH2 0x29A4 JUMPI PUSH1 0x40 MLOAD PUSH32 0x8C379A000000000000000000000000000000000000000000000000000000000 DUP2 MSTORE PUSH1 0x4 ADD PUSH2 0x299B SWAP1 PUSH2 0x4850 JUMP JUMPDEST PUSH1 0x40 MLOAD DUP1 SWAP2 SUB SWAP1 REVERT JUMPDEST POP POP POP JUMP JUMPDEST PUSH2 0x29B2 DUP2 PUSH2 0x2E95 JUMP JUMPDEST PUSH1 0x0 PUSH1 0x6 PUSH1 0x0 DUP4 DUP2 MSTORE PUSH1 0x20 ADD SWAP1 DUP2 MSTORE PUSH1 0x20 ADD PUSH1 0x0 KECCAK256 DUP1 SLOAD PUSH2 0x29D2 SWAP1 PUSH2 0x3C36 JUMP JUMPDEST SWAP1 POP EQ PUSH2 0x29F9 JUMPI PUSH1 0x6 PUSH1 0x0 DUP3 DUP2 MSTORE PUSH1 0x20 ADD SWAP1 DUP2 MSTORE PUSH1 0x20 ADD PUSH1 0x0 KECCAK256 PUSH1 0x0 PUSH2 0x29F8 SWAP2 SWAP1 PUSH2 0x3227 JUMP JUMPDEST JUMPDEST POP JUMP JUMPDEST POP POP POP POP JUMP JUMPDEST POP POP POP POP JUMP JUMPDEST PUSH1 0x0 PUSH2 0x2A29 DUP5 PUSH20 0xFFFFFFFFFFFFFFFFFFFFFFFFFFFFFFFFFFFFFFFF AND PUSH2 0x2FE3 JUMP JUMPDEST ISZERO PUSH2 0x2B82 JUMPI DUP4 PUSH20 0xFFFFFFFFFFFFFFFFFFFFFFFFFFFFFFFFFFFFFFFF AND PUSH4 0x150B7A02 PUSH2 0x2A52 PUSH2 0x1EB3 JUMP JUMPDEST DUP8 DUP7 DUP7 PUSH1 0x40 MLOAD DUP6 PUSH4 0xFFFFFFFF AND PUSH1 0xE0 SHL DUP2 MSTORE PUSH1 0x4 ADD PUSH2 0x2A74 SWAP5 SWAP4 SWAP3 SWAP2 SWAP1 PUSH2 0x4925 JUMP JUMPDEST PUSH1 0x20 PUSH1 0x40 MLOAD DUP1 DUP4 SUB DUP2 PUSH1 0x0 DUP8 GAS CALL SWAP3 POP POP POP DUP1 ISZERO PUSH2 0x2AB0 JUMPI POP PUSH1 0x40 MLOAD RETURNDATASIZE PUSH1 0x1F NOT PUSH1 0x1F DUP3 ADD AND DUP3 ADD DUP1 PUSH1 0x40 MSTORE POP DUP2 ADD SWAP1 PUSH2 0x2AAD SWAP2 SWAP1 PUSH2 0x4986 JUMP JUMPDEST PUSH1 0x1 JUMPDEST PUSH2 0x2B32 JUMPI RETURNDATASIZE DUP1 PUSH1 0x0 DUP2 EQ PUSH2 0x2AE0 JUMPI PUSH1 0x40 MLOAD SWAP2 POP PUSH1 0x1F NOT PUSH1 0x3F RETURNDATASIZE ADD AND DUP3 ADD PUSH1 0x40 MSTORE RETURNDATASIZE DUP3 MSTORE RETURNDATASIZE PUSH1 0x0 PUSH1 0x20 DUP5 ADD RETURNDATACOPY PUSH2 0x2AE5 JUMP JUMPDEST PUSH1 0x60 SWAP2 POP JUMPDEST POP PUSH1 0x0 DUP2 MLOAD SUB PUSH2 0x2B2A JUMPI PUSH1 0x40 MLOAD PUSH32 0x8C379A000000000000000000000000000000000000000000000000000000000 DUP2 MSTORE PUSH1 0x4 ADD PUSH2 0x2B21 SWAP1 PUSH2 0x4850 JUMP JUMPDEST PUSH1 0x40 MLOAD DUP1 SWAP2 SUB SWAP1 REVERT JUMPDEST DUP1 MLOAD DUP2 PUSH1 0x20 ADD REVERT JUMPDEST PUSH4 0x150B7A02 PUSH1 0xE0 SHL PUSH28 0xFFFFFFFFFFFFFFFFFFFFFFFFFFFFFFFFFFFFFFFFFFFFFFFFFFFFFFFF NOT AND DUP2 PUSH28 0xFFFFFFFFFFFFFFFFFFFFFFFFFFFFFFFFFFFFFFFFFFFFFFFFFFFFFFFF NOT AND EQ SWAP2 POP POP PUSH2 0x2B87 JUMP JUMPDEST PUSH1 0x1 SWAP1 POP JUMPDEST SWAP5 SWAP4 POP POP POP POP JUMP JUMPDEST PUSH1 0x60 PUSH1 0x40 MLOAD DUP1 PUSH1 0x20 ADD PUSH1 0x40 MSTORE DUP1 PUSH1 0x0 DUP2 MSTORE POP SWAP1 POP SWAP1 JUMP JUMPDEST PUSH1 0x60 PUSH2 0x2BB1 DUP3 PUSH2 0x1E68 JUMP JUMPDEST PUSH1 0x0 PUSH2 0x2BBB PUSH2 0x2B8F JUMP JUMPDEST SWAP1 POP PUSH1 0x0 DUP2 MLOAD GT PUSH2 0x2BDB JUMPI PUSH1 0x40 MLOAD DUP1 PUSH1 0x20 ADD PUSH1 0x40 MSTORE DUP1 PUSH1 0x0 DUP2 MSTORE POP PUSH2 0x2C06 JUMP JUMPDEST DUP1 PUSH2 0x2BE5 DUP5 PUSH2 0x3006 JUMP JUMPDEST PUSH1 0x40 MLOAD PUSH1 0x20 ADD PUSH2 0x2BF6 SWAP3 SWAP2 SWAP1 PUSH2 0x48AC JUMP JUMPDEST PUSH1 0x40 MLOAD PUSH1 0x20 DUP2 DUP4 SUB SUB DUP2 MSTORE SWAP1 PUSH1 0x40 MSTORE JUMPDEST SWAP2 POP POP SWAP2 SWAP1 POP JUMP JUMPDEST PUSH1 0x0 PUSH32 0x1FFC9A700000000000000000000000000000000000000000000000000000000 PUSH28 0xFFFFFFFFFFFFFFFFFFFFFFFFFFFFFFFFFFFFFFFFFFFFFFFFFFFFFFFF NOT AND DUP3 PUSH28 0xFFFFFFFFFFFFFFFFFFFFFFFFFFFFFFFFFFFFFFFFFFFFFFFFFFFFFFFF NOT AND EQ SWAP1 POP SWAP2 SWAP1 POP JUMP JUMPDEST PUSH1 0x0 PUSH20 0xFFFFFFFFFFFFFFFFFFFFFFFFFFFFFFFFFFFFFFFF AND DUP3 PUSH20 0xFFFFFFFFFFFFFFFFFFFFFFFFFFFFFFFFFFFFFFFF AND SUB PUSH2 0x2CE7 JUMPI PUSH1 0x40 MLOAD PUSH32 0x8C379A000000000000000000000000000000000000000000000000000000000 DUP2 MSTORE PUSH1 0x4 ADD PUSH2 0x2CDE SWAP1 PUSH2 0x49FF JUMP JUMPDEST PUSH1 0x40 MLOAD DUP1 SWAP2 SUB SWAP1 REVERT JUMPDEST PUSH2 0x2CF0 DUP2 PUSH2 0x290D JUMP JUMPDEST ISZERO PUSH2 0x2D30 JUMPI PUSH1 0x40 MLOAD PUSH32 0x8C379A000000000000000000000000000000000000000000000000000000000 DUP2 MSTORE PUSH1 0x4 ADD PUSH2 0x2D27 SWAP1 PUSH2 0x4A6B JUMP JUMPDEST PUSH1 0x40 MLOAD DUP1 SWAP2 SUB SWAP1 REVERT JUMPDEST PUSH2 0x2D3E PUSH1 0x0 DUP4 DUP4 PUSH1 0x1 PUSH2 0x29FC JUMP JUMPDEST PUSH2 0x2D47 DUP2 PUSH2 0x290D JUMP JUMPDEST ISZERO PUSH2 0x2D87 JUMPI PUSH1 0x40 MLOAD PUSH32 0x8C379A000000000000000000000000000000000000000000000000000000000 DUP2 MSTORE PUSH1 0x4 ADD PUSH2 0x2D7E SWAP1 PUSH2 0x4A6B JUMP JUMPDEST PUSH1 0x40 MLOAD DUP1 SWAP2 SUB SWAP1 REVERT JUMPDEST PUSH1 0x1 PUSH1 0x3 PUSH1 0x0 DUP5 PUSH20 0xFFFFFFFFFFFFFFFFFFFFFFFFFFFFFFFFFFFFFFFF AND PUSH20 0xFFFFFFFFFFFFFFFFFFFFFFFFFFFFFFFFFFFFFFFF AND DUP2 MSTORE PUSH1 0x20 ADD SWAP1 DUP2 MSTORE PUSH1 0x20 ADD PUSH1 0x0 KECCAK256 PUSH1 0x0 DUP3 DUP3 SLOAD ADD SWAP3 POP POP DUP2 SWAP1 SSTORE POP DUP2 PUSH1 0x2 PUSH1 0x0 DUP4 DUP2 MSTORE PUSH1 0x20 ADD SWAP1 DUP2 MSTORE PUSH1 0x20 ADD PUSH1 0x0 KECCAK256 PUSH1 0x0 PUSH2 0x100 EXP DUP2 SLOAD DUP2 PUSH20 0xFFFFFFFFFFFFFFFFFFFFFFFFFFFFFFFFFFFFFFFF MUL NOT AND SWAP1 DUP4 PUSH20 0xFFFFFFFFFFFFFFFFFFFFFFFFFFFFFFFFFFFFFFFF AND MUL OR SWAP1 SSTORE POP DUP1 DUP3 PUSH20 0xFFFFFFFFFFFFFFFFFFFFFFFFFFFFFFFFFFFFFFFF AND PUSH1 0x0 PUSH20 0xFFFFFFFFFFFFFFFFFFFFFFFFFFFFFFFFFFFFFFFF AND PUSH32 0xDDF252AD1BE2C89B69C2B068FC378DAA952BA7F163C4A11628F55A4DF523B3EF PUSH1 0x40 MLOAD PUSH1 0x40 MLOAD DUP1 SWAP2 SUB SWAP1 LOG4 PUSH2 0x2E91 PUSH1 0x0 DUP4 DUP4 PUSH1 0x1 PUSH2 0x2A02 JUMP JUMPDEST POP POP JUMP JUMPDEST PUSH1 0x0 PUSH2 0x2EA0 DUP3 PUSH2 0x14C5 JUMP JUMPDEST SWAP1 POP PUSH2 0x2EB0 DUP2 PUSH1 0x0 DUP5 PUSH1 0x1 PUSH2 0x29FC JUMP JUMPDEST PUSH2 0x2EB9 DUP3 PUSH2 0x14C5 JUMP JUMPDEST SWAP1 POP PUSH1 0x4 PUSH1 0x0 DUP4 DUP2 MSTORE PUSH1 0x20 ADD SWAP1 DUP2 MSTORE PUSH1 0x20 ADD PUSH1 0x0 KECCAK256 PUSH1 0x0 PUSH2 0x100 EXP DUP2 SLOAD SWAP1 PUSH20 0xFFFFFFFFFFFFFFFFFFFFFFFFFFFFFFFFFFFFFFFF MUL NOT AND SWAP1 SSTORE PUSH1 0x1 PUSH1 0x3 PUSH1 0x0 DUP4 PUSH20 0xFFFFFFFFFFFFFFFFFFFFFFFFFFFFFFFFFFFFFFFF AND PUSH20 0xFFFFFFFFFFFFFFFFFFFFFFFFFFFFFFFFFFFFFFFF AND DUP2 MSTORE PUSH1 0x20 ADD SWAP1 DUP2 MSTORE PUSH1 0x20 ADD PUSH1 0x0 KECCAK256 PUSH1 0x0 DUP3 DUP3 SLOAD SUB SWAP3 POP POP DUP2 SWAP1 SSTORE POP PUSH1 0x2 PUSH1 0x0 DUP4 DUP2 MSTORE PUSH1 0x20 ADD SWAP1 DUP2 MSTORE PUSH1 0x20 ADD PUSH1 0x0 KECCAK256 PUSH1 0x0 PUSH2 0x100 EXP DUP2 SLOAD SWAP1 PUSH20 0xFFFFFFFFFFFFFFFFFFFFFFFFFFFFFFFFFFFFFFFF MUL NOT AND SWAP1 SSTORE DUP2 PUSH1 0x0 PUSH20 0xFFFFFFFFFFFFFFFFFFFFFFFFFFFFFFFFFFFFFFFF AND DUP3 PUSH20 0xFFFFFFFFFFFFFFFFFFFFFFFFFFFFFFFFFFFFFFFF AND PUSH32 0xDDF252AD1BE2C89B69C2B068FC378DAA952BA7F163C4A11628F55A4DF523B3EF PUSH1 0x40 MLOAD PUSH1 0x40 MLOAD DUP1 SWAP2 SUB SWAP1 LOG4 PUSH2 0x2FDF DUP2 PUSH1 0x0 DUP5 PUSH1 0x1 PUSH2 0x2A02 JUMP JUMPDEST POP POP JUMP JUMPDEST PUSH1 0x0 DUP1 DUP3 PUSH20 0xFFFFFFFFFFFFFFFFFFFFFFFFFFFFFFFFFFFFFFFF AND EXTCODESIZE GT SWAP1 POP SWAP2 SWAP1 POP JUMP JUMPDEST PUSH1 0x60 PUSH1 0x0 PUSH1 0x1 PUSH2 0x3015 DUP5 PUSH2 0x30D4 JUMP JUMPDEST ADD SWAP1 POP PUSH1 0x0 DUP2 PUSH8 0xFFFFFFFFFFFFFFFF DUP2 GT ISZERO PUSH2 0x3034 JUMPI PUSH2 0x3033 PUSH2 0x3671 JUMP JUMPDEST JUMPDEST PUSH1 0x40 MLOAD SWAP1 DUP1 DUP3 MSTORE DUP1 PUSH1 0x1F ADD PUSH1 0x1F NOT AND PUSH1 0x20 ADD DUP3 ADD PUSH1 0x40 MSTORE DUP1 ISZERO PUSH2 0x3066 JUMPI DUP2 PUSH1 0x20 ADD PUSH1 0x1 DUP3 MUL DUP1 CALLDATASIZE DUP4 CALLDATACOPY DUP1 DUP3 ADD SWAP2 POP POP SWAP1 POP JUMPDEST POP SWAP1 POP PUSH1 0x0 DUP3 PUSH1 0x20 ADD DUP3 ADD SWAP1 POP JUMPDEST PUSH1 0x1 ISZERO PUSH2 0x30C9 JUMPI DUP1 DUP1 PUSH1 0x1 SWAP1 SUB SWAP2 POP POP PUSH32 0x3031323334353637383961626364656600000000000000000000000000000000 PUSH1 0xA DUP7 MOD BYTE DUP2 MSTORE8 PUSH1 0xA DUP6 DUP2 PUSH2 0x30BD JUMPI PUSH2 0x30BC PUSH2 0x4A8B JUMP JUMPDEST JUMPDEST DIV SWAP5 POP PUSH1 0x0 DUP6 SUB PUSH2 0x3074 JUMPI JUMPDEST DUP2 SWAP4 POP POP POP POP SWAP2 SWAP1 POP JUMP JUMPDEST PUSH1 0x0 DUP1 PUSH1 0x0 SWAP1 POP PUSH27 0x184F03E93FF9F4DAA797ED6E38ED64BF6A1F010000000000000000 DUP4 LT PUSH2 0x3132 JUMPI PUSH27 0x184F03E93FF9F4DAA797ED6E38ED64BF6A1F010000000000000000 DUP4 DUP2 PUSH2 0x3128 JUMPI PUSH2 0x3127 PUSH2 0x4A8B JUMP JUMPDEST JUMPDEST DIV SWAP3 POP PUSH1 0x40 DUP2 ADD SWAP1 POP JUMPDEST PUSH14 0x4EE2D6D415B85ACEF8100000000 DUP4 LT PUSH2 0x316F JUMPI PUSH14 0x4EE2D6D415B85ACEF8100000000 DUP4 DUP2 PUSH2 0x3165 JUMPI PUSH2 0x3164 PUSH2 0x4A8B JUMP JUMPDEST JUMPDEST DIV SWAP3 POP PUSH1 0x20 DUP2 ADD SWAP1 POP JUMPDEST PUSH7 0x2386F26FC10000 DUP4 LT PUSH2 0x319E JUMPI PUSH7 0x2386F26FC10000 DUP4 DUP2 PUSH2 0x3194 JUMPI PUSH2 0x3193 PUSH2 0x4A8B JUMP JUMPDEST JUMPDEST DIV SWAP3 POP PUSH1 0x10 DUP2 ADD SWAP1 POP JUMPDEST PUSH4 0x5F5E100 DUP4 LT PUSH2 0x31C7 JUMPI PUSH4 0x5F5E100 DUP4 DUP2 PUSH2 0x31BD JUMPI PUSH2 0x31BC PUSH2 0x4A8B JUMP JUMPDEST JUMPDEST DIV SWAP3 POP PUSH1 0x8 DUP2 ADD SWAP1 POP JUMPDEST PUSH2 0x2710 DUP4 LT PUSH2 0x31EC JUMPI PUSH2 0x2710 DUP4 DUP2 PUSH2 0x31E2 JUMPI PUSH2 0x31E1 PUSH2 0x4A8B JUMP JUMPDEST JUMPDEST DIV SWAP3 POP PUSH1 0x4 DUP2 ADD SWAP1 POP JUMPDEST PUSH1 0x64 DUP4 LT PUSH2 0x320F JUMPI PUSH1 0x64 DUP4 DUP2 PUSH2 0x3205 JUMPI PUSH2 0x3204 PUSH2 0x4A8B JUMP JUMPDEST JUMPDEST DIV SWAP3 POP PUSH1 0x2 DUP2 ADD SWAP1 POP JUMPDEST PUSH1 0xA DUP4 LT PUSH2 0x321E JUMPI PUSH1 0x1 DUP2 ADD SWAP1 POP JUMPDEST DUP1 SWAP2 POP POP SWAP2 SWAP1 POP JUMP JUMPDEST POP DUP1 SLOAD PUSH2 0x3233 SWAP1 PUSH2 0x3C36 JUMP JUMPDEST PUSH1 0x0 DUP3 SSTORE DUP1 PUSH1 0x1F LT PUSH2 0x3245 JUMPI POP PUSH2 0x3264 JUMP JUMPDEST PUSH1 0x1F ADD PUSH1 0x20 SWAP1 DIV SWAP1 PUSH1 0x0 MSTORE PUSH1 0x20 PUSH1 0x0 KECCAK256 SWAP1 DUP2 ADD SWAP1 PUSH2 0x3263 SWAP2 SWAP1 PUSH2 0x3267 JUMP JUMPDEST JUMPDEST POP JUMP JUMPDEST JUMPDEST DUP1 DUP3 GT ISZERO PUSH2 0x3280 JUMPI PUSH1 0x0 DUP2 PUSH1 0x0 SWAP1 SSTORE POP PUSH1 0x1 ADD PUSH2 0x3268 JUMP JUMPDEST POP SWAP1 JUMP JUMPDEST PUSH1 0x0 PUSH1 0x40 MLOAD SWAP1 POP SWAP1 JUMP JUMPDEST PUSH1 0x0 DUP1 REVERT JUMPDEST PUSH1 0x0 DUP1 REVERT JUMPDEST PUSH1 0x0 PUSH32 0xFFFFFFFF00000000000000000000000000000000000000000000000000000000 DUP3 AND SWAP1 POP SWAP2 SWAP1 POP JUMP JUMPDEST PUSH2 0x32CD DUP2 PUSH2 0x3298 JUMP JUMPDEST DUP2 EQ PUSH2 0x32D8 JUMPI PUSH1 0x0 DUP1 REVERT JUMPDEST POP JUMP JUMPDEST PUSH1 0x0 DUP2 CALLDATALOAD SWAP1 POP PUSH2 0x32EA DUP2 PUSH2 0x32C4 JUMP JUMPDEST SWAP3 SWAP2 POP POP JUMP JUMPDEST PUSH1 0x0 PUSH1 0x20 DUP3 DUP5 SUB SLT ISZERO PUSH2 0x3306 JUMPI PUSH2 0x3305 PUSH2 0x328E JUMP JUMPDEST JUMPDEST PUSH1 0x0 PUSH2 0x3314 DUP5 DUP3 DUP6 ADD PUSH2 0x32DB JUMP JUMPDEST SWAP2 POP POP SWAP3 SWAP2 POP POP JUMP JUMPDEST PUSH1 0x0 DUP2 ISZERO ISZERO SWAP1 POP SWAP2 SWAP1 POP JUMP JUMPDEST PUSH2 0x3332 DUP2 PUSH2 0x331D JUMP JUMPDEST DUP3 MSTORE POP POP JUMP JUMPDEST PUSH1 0x0 PUSH1 0x20 DUP3 ADD SWAP1 POP PUSH2 0x334D PUSH1 0x0 DUP4 ADD DUP5 PUSH2 0x3329 JUMP JUMPDEST SWAP3 SWAP2 POP POP JUMP JUMPDEST PUSH1 0x0 DUP2 SWAP1 POP SWAP2 SWAP1 POP JUMP JUMPDEST PUSH2 0x3366 DUP2 PUSH2 0x3353 JUMP JUMPDEST DUP2 EQ PUSH2 0x3371 JUMPI PUSH1 0x0 DUP1 REVERT JUMPDEST POP JUMP JUMPDEST PUSH1 0x0 DUP2 CALLDATALOAD SWAP1 POP PUSH2 0x3383 DUP2 PUSH2 0x335D JUMP JUMPDEST SWAP3 SWAP2 POP POP JUMP JUMPDEST PUSH1 0x0 PUSH1 0x20 DUP3 DUP5 SUB SLT ISZERO PUSH2 0x339F JUMPI PUSH2 0x339E PUSH2 0x328E JUMP JUMPDEST JUMPDEST PUSH1 0x0 PUSH2 0x33AD DUP5 DUP3 DUP6 ADD PUSH2 0x3374 JUMP JUMPDEST SWAP2 POP POP SWAP3 SWAP2 POP POP JUMP JUMPDEST PUSH1 0x0 PUSH20 0xFFFFFFFFFFFFFFFFFFFFFFFFFFFFFFFFFFFFFFFF DUP3 AND SWAP1 POP SWAP2 SWAP1 POP JUMP JUMPDEST PUSH1 0x0 PUSH2 0x33E1 DUP3 PUSH2 0x33B6 JUMP JUMPDEST SWAP1 POP SWAP2 SWAP1 POP JUMP JUMPDEST PUSH2 0x33F1 DUP2 PUSH2 0x33D6 JUMP JUMPDEST DUP3 MSTORE POP POP JUMP JUMPDEST PUSH1 0x0 PUSH1 0x20 DUP3 ADD SWAP1 POP PUSH2 0x340C PUSH1 0x0 DUP4 ADD DUP5 PUSH2 0x33E8 JUMP JUMPDEST SWAP3 SWAP2 POP POP JUMP JUMPDEST PUSH1 0x0 DUP2 MLOAD SWAP1 POP SWAP2 SWAP1 POP JUMP JUMPDEST PUSH1 0x0 DUP3 DUP3 MSTORE PUSH1 0x20 DUP3 ADD SWAP1 POP SWAP3 SWAP2 POP POP JUMP JUMPDEST PUSH1 0x0 JUMPDEST DUP4 DUP2 LT ISZERO PUSH2 0x344C JUMPI DUP1 DUP3 ADD MLOAD DUP2 DUP5 ADD MSTORE PUSH1 0x20 DUP2 ADD SWAP1 POP PUSH2 0x3431 JUMP JUMPDEST PUSH1 0x0 DUP5 DUP5 ADD MSTORE POP POP POP POP JUMP JUMPDEST PUSH1 0x0 PUSH1 0x1F NOT PUSH1 0x1F DUP4 ADD AND SWAP1 POP SWAP2 SWAP1 POP JUMP JUMPDEST PUSH1 0x0 PUSH2 0x3474 DUP3 PUSH2 0x3412 JUMP JUMPDEST PUSH2 0x347E DUP2 DUP6 PUSH2 0x341D JUMP JUMPDEST SWAP4 POP PUSH2 0x348E DUP2 DUP6 PUSH1 0x20 DUP7 ADD PUSH2 0x342E JUMP JUMPDEST PUSH2 0x3497 DUP2 PUSH2 0x3458 JUMP JUMPDEST DUP5 ADD SWAP2 POP POP SWAP3 SWAP2 POP POP JUMP JUMPDEST PUSH1 0x0 PUSH1 0x20 DUP3 ADD SWAP1 POP DUP2 DUP2 SUB PUSH1 0x0 DUP4 ADD MSTORE PUSH2 0x34BC DUP2 DUP5 PUSH2 0x3469 JUMP JUMPDEST SWAP1 POP SWAP3 SWAP2 POP POP JUMP JUMPDEST PUSH2 0x34CD DUP2 PUSH2 0x33D6 JUMP JUMPDEST DUP2 EQ PUSH2 0x34D8 JUMPI PUSH1 0x0 DUP1 REVERT JUMPDEST POP JUMP JUMPDEST PUSH1 0x0 DUP2 CALLDATALOAD SWAP1 POP PUSH2 0x34EA DUP2 PUSH2 0x34C4 JUMP JUMPDEST SWAP3 SWAP2 POP POP JUMP JUMPDEST PUSH1 0x0 PUSH1 0x20 DUP3 DUP5 SUB SLT ISZERO PUSH2 0x3506 JUMPI PUSH2 0x3505 PUSH2 0x328E JUMP JUMPDEST JUMPDEST PUSH1 0x0 PUSH2 0x3514 DUP5 DUP3 DUP6 ADD PUSH2 0x34DB JUMP JUMPDEST SWAP2 POP POP SWAP3 SWAP2 POP POP JUMP JUMPDEST PUSH1 0x0 DUP1 PUSH1 0x40 DUP4 DUP6 SUB SLT ISZERO PUSH2 0x3534 JUMPI PUSH2 0x3533 PUSH2 0x328E JUMP JUMPDEST JUMPDEST PUSH1 0x0 PUSH2 0x3542 DUP6 DUP3 DUP7 ADD PUSH2 0x34DB JUMP JUMPDEST SWAP3 POP POP PUSH1 0x20 PUSH2 0x3553 DUP6 DUP3 DUP7 ADD PUSH2 0x3374 JUMP JUMPDEST SWAP2 POP POP SWAP3 POP SWAP3 SWAP1 POP JUMP JUMPDEST PUSH2 0x3566 DUP2 PUSH2 0x3353 JUMP JUMPDEST DUP3 MSTORE POP POP JUMP JUMPDEST PUSH1 0x0 PUSH1 0x20 DUP3 ADD SWAP1 POP PUSH2 0x3581 PUSH1 0x0 DUP4 ADD DUP5 PUSH2 0x355D JUMP JUMPDEST SWAP3 SWAP2 POP POP JUMP JUMPDEST PUSH1 0x0 DUP2 MLOAD SWAP1 POP SWAP2 SWAP1 POP JUMP JUMPDEST PUSH1 0x0 DUP3 DUP3 MSTORE PUSH1 0x20 DUP3 ADD SWAP1 POP SWAP3 SWAP2 POP POP JUMP JUMPDEST PUSH1 0x0 DUP2 SWAP1 POP PUSH1 0x20 DUP3 ADD SWAP1 POP SWAP2 SWAP1 POP JUMP JUMPDEST PUSH2 0x35BC DUP2 PUSH2 0x33D6 JUMP JUMPDEST DUP3 MSTORE POP POP JUMP JUMPDEST PUSH1 0x0 PUSH2 0x35CE DUP4 DUP4 PUSH2 0x35B3 JUMP JUMPDEST PUSH1 0x20 DUP4 ADD SWAP1 POP SWAP3 SWAP2 POP POP JUMP JUMPDEST PUSH1 0x0 PUSH1 0x20 DUP3 ADD SWAP1 POP SWAP2 SWAP1 POP JUMP JUMPDEST PUSH1 0x0 PUSH2 0x35F2 DUP3 PUSH2 0x3587 JUMP JUMPDEST PUSH2 0x35FC DUP2 DUP6 PUSH2 0x3592 JUMP JUMPDEST SWAP4 POP PUSH2 0x3607 DUP4 PUSH2 0x35A3 JUMP JUMPDEST DUP1 PUSH1 0x0 JUMPDEST DUP4 DUP2 LT ISZERO PUSH2 0x3638 JUMPI DUP2 MLOAD PUSH2 0x361F DUP9 DUP3 PUSH2 0x35C2 JUMP JUMPDEST SWAP8 POP PUSH2 0x362A DUP4 PUSH2 0x35DA JUMP JUMPDEST SWAP3 POP POP PUSH1 0x1 DUP2 ADD SWAP1 POP PUSH2 0x360B JUMP JUMPDEST POP DUP6 SWAP4 POP POP POP POP SWAP3 SWAP2 POP POP JUMP JUMPDEST PUSH1 0x0 PUSH1 0x20 DUP3 ADD SWAP1 POP DUP2 DUP2 SUB PUSH1 0x0 DUP4 ADD MSTORE PUSH2 0x365F DUP2 DUP5 PUSH2 0x35E7 JUMP JUMPDEST SWAP1 POP SWAP3 SWAP2 POP POP JUMP JUMPDEST PUSH1 0x0 DUP1 REVERT JUMPDEST PUSH1 0x0 DUP1 REVERT JUMPDEST PUSH32 0x4E487B7100000000000000000000000000000000000000000000000000000000 PUSH1 0x0 MSTORE PUSH1 0x41 PUSH1 0x4 MSTORE PUSH1 0x24 PUSH1 0x0 REVERT JUMPDEST PUSH2 0x36A9 DUP3 PUSH2 0x3458 JUMP JUMPDEST DUP2 ADD DUP2 DUP2 LT PUSH8 0xFFFFFFFFFFFFFFFF DUP3 GT OR ISZERO PUSH2 0x36C8 JUMPI PUSH2 0x36C7 PUSH2 0x3671 JUMP JUMPDEST JUMPDEST DUP1 PUSH1 0x40 MSTORE POP POP POP JUMP JUMPDEST PUSH1 0x0 PUSH2 0x36DB PUSH2 0x3284 JUMP JUMPDEST SWAP1 POP PUSH2 0x36E7 DUP3 DUP3 PUSH2 0x36A0 JUMP JUMPDEST SWAP2 SWAP1 POP JUMP JUMPDEST PUSH1 0x0 PUSH8 0xFFFFFFFFFFFFFFFF DUP3 GT ISZERO PUSH2 0x3707 JUMPI PUSH2 0x3706 PUSH2 0x3671 JUMP JUMPDEST JUMPDEST PUSH2 0x3710 DUP3 PUSH2 0x3458 JUMP JUMPDEST SWAP1 POP PUSH1 0x20 DUP2 ADD SWAP1 POP SWAP2 SWAP1 POP JUMP JUMPDEST DUP3 DUP2 DUP4 CALLDATACOPY PUSH1 0x0 DUP4 DUP4 ADD MSTORE POP POP POP JUMP JUMPDEST PUSH1 0x0 PUSH2 0x373F PUSH2 0x373A DUP5 PUSH2 0x36EC JUMP JUMPDEST PUSH2 0x36D1 JUMP JUMPDEST SWAP1 POP DUP3 DUP2 MSTORE PUSH1 0x20 DUP2 ADD DUP5 DUP5 DUP5 ADD GT ISZERO PUSH2 0x375B JUMPI PUSH2 0x375A PUSH2 0x366C JUMP JUMPDEST JUMPDEST PUSH2 0x3766 DUP5 DUP3 DUP6 PUSH2 0x371D JUMP JUMPDEST POP SWAP4 SWAP3 POP POP POP JUMP JUMPDEST PUSH1 0x0 DUP3 PUSH1 0x1F DUP4 ADD SLT PUSH2 0x3783 JUMPI PUSH2 0x3782 PUSH2 0x3667 JUMP JUMPDEST JUMPDEST DUP2 CALLDATALOAD PUSH2 0x3793 DUP5 DUP3 PUSH1 0x20 DUP7 ADD PUSH2 0x372C JUMP JUMPDEST SWAP2 POP POP SWAP3 SWAP2 POP POP JUMP JUMPDEST PUSH1 0x0 DUP1 PUSH1 0x0 PUSH1 0x60 DUP5 DUP7 SUB SLT ISZERO PUSH2 0x37B5 JUMPI PUSH2 0x37B4 PUSH2 0x328E JUMP JUMPDEST JUMPDEST PUSH1 0x0 DUP5 ADD CALLDATALOAD PUSH8 0xFFFFFFFFFFFFFFFF DUP2 GT ISZERO PUSH2 0x37D3 JUMPI PUSH2 0x37D2 PUSH2 0x3293 JUMP JUMPDEST JUMPDEST PUSH2 0x37DF DUP7 DUP3 DUP8 ADD PUSH2 0x376E JUMP JUMPDEST SWAP4 POP POP PUSH1 0x20 DUP5 ADD CALLDATALOAD PUSH8 0xFFFFFFFFFFFFFFFF DUP2 GT ISZERO PUSH2 0x3800 JUMPI PUSH2 0x37FF PUSH2 0x3293 JUMP JUMPDEST JUMPDEST PUSH2 0x380C DUP7 DUP3 DUP8 ADD PUSH2 0x376E JUMP JUMPDEST SWAP3 POP POP PUSH1 0x40 DUP5 ADD CALLDATALOAD PUSH8 0xFFFFFFFFFFFFFFFF DUP2 GT ISZERO PUSH2 0x382D JUMPI PUSH2 0x382C PUSH2 0x3293 JUMP JUMPDEST JUMPDEST PUSH2 0x3839 DUP7 DUP3 DUP8 ADD PUSH2 0x376E JUMP JUMPDEST SWAP2 POP POP SWAP3 POP SWAP3 POP SWAP3 JUMP JUMPDEST PUSH1 0x0 PUSH1 0x20 DUP3 DUP5 SUB SLT ISZERO PUSH2 0x3859 JUMPI PUSH2 0x3858 PUSH2 0x328E JUMP JUMPDEST JUMPDEST PUSH1 0x0 DUP3 ADD CALLDATALOAD PUSH8 0xFFFFFFFFFFFFFFFF DUP2 GT ISZERO PUSH2 0x3877 JUMPI PUSH2 0x3876 PUSH2 0x3293 JUMP JUMPDEST JUMPDEST PUSH2 0x3883 DUP5 DUP3 DUP6 ADD PUSH2 0x376E JUMP JUMPDEST SWAP2 POP POP SWAP3 SWAP2 POP POP JUMP JUMPDEST PUSH1 0x0 PUSH8 0xFFFFFFFFFFFFFFFF DUP3 GT ISZERO PUSH2 0x38A7 JUMPI PUSH2 0x38A6 PUSH2 0x3671 JUMP JUMPDEST JUMPDEST PUSH2 0x38B0 DUP3 PUSH2 0x3458 JUMP JUMPDEST SWAP1 POP PUSH1 0x20 DUP2 ADD SWAP1 POP SWAP2 SWAP1 POP JUMP JUMPDEST PUSH1 0x0 PUSH2 0x38D0 PUSH2 0x38CB DUP5 PUSH2 0x388C JUMP JUMPDEST PUSH2 0x36D1 JUMP JUMPDEST SWAP1 POP DUP3 DUP2 MSTORE PUSH1 0x20 DUP2 ADD DUP5 DUP5 DUP5 ADD GT ISZERO PUSH2 0x38EC JUMPI PUSH2 0x38EB PUSH2 0x366C JUMP JUMPDEST JUMPDEST PUSH2 0x38F7 DUP5 DUP3 DUP6 PUSH2 0x371D JUMP JUMPDEST POP SWAP4 SWAP3 POP POP POP JUMP JUMPDEST PUSH1 0x0 DUP3 PUSH1 0x1F DUP4 ADD SLT PUSH2 0x3914 JUMPI PUSH2 0x3913 PUSH2 0x3667 JUMP JUMPDEST JUMPDEST DUP2 CALLDATALOAD PUSH2 0x3924 DUP5 DUP3 PUSH1 0x20 DUP7 ADD PUSH2 0x38BD JUMP JUMPDEST SWAP2 POP POP SWAP3 SWAP2 POP POP JUMP JUMPDEST PUSH1 0x0 DUP1 PUSH1 0x0 DUP1 PUSH1 0x80 DUP6 DUP8 SUB SLT ISZERO PUSH2 0x3947 JUMPI PUSH2 0x3946 PUSH2 0x328E JUMP JUMPDEST JUMPDEST PUSH1 0x0 PUSH2 0x3955 DUP8 DUP3 DUP9 ADD PUSH2 0x34DB JUMP JUMPDEST SWAP5 POP POP PUSH1 0x20 PUSH2 0x3966 DUP8 DUP3 DUP9 ADD PUSH2 0x34DB JUMP JUMPDEST SWAP4 POP POP PUSH1 0x40 PUSH2 0x3977 DUP8 DUP3 DUP9 ADD PUSH2 0x3374 JUMP JUMPDEST SWAP3 POP POP PUSH1 0x60 DUP6 ADD CALLDATALOAD PUSH8 0xFFFFFFFFFFFFFFFF DUP2 GT ISZERO PUSH2 0x3998 JUMPI PUSH2 0x3997 PUSH2 0x3293 JUMP JUMPDEST JUMPDEST PUSH2 0x39A4 DUP8 DUP3 DUP9 ADD PUSH2 0x38FF JUMP JUMPDEST SWAP2 POP POP SWAP3 SWAP6 SWAP2 SWAP5 POP SWAP3 POP JUMP JUMPDEST PUSH2 0x39B9 DUP2 PUSH2 0x3298 JUMP JUMPDEST DUP3 MSTORE POP POP JUMP JUMPDEST PUSH1 0x0 PUSH1 0x20 DUP3 ADD SWAP1 POP PUSH2 0x39D4 PUSH1 0x0 DUP4 ADD DUP5 PUSH2 0x39B0 JUMP JUMPDEST SWAP3 SWAP2 POP POP JUMP JUMPDEST PUSH1 0x0 DUP1 PUSH1 0x0 PUSH1 0x60 DUP5 DUP7 SUB SLT ISZERO PUSH2 0x39F3 JUMPI PUSH2 0x39F2 PUSH2 0x328E JUMP JUMPDEST JUMPDEST PUSH1 0x0 PUSH2 0x3A01 DUP7 DUP3 DUP8 ADD PUSH2 0x34DB JUMP JUMPDEST SWAP4 POP POP PUSH1 0x20 PUSH2 0x3A12 DUP7 DUP3 DUP8 ADD PUSH2 0x34DB JUMP JUMPDEST SWAP3 POP POP PUSH1 0x40 PUSH2 0x3A23 DUP7 DUP3 DUP8 ADD PUSH2 0x3374 JUMP JUMPDEST SWAP2 POP POP SWAP3 POP SWAP3 POP SWAP3 JUMP JUMPDEST PUSH1 0x0 DUP2 MLOAD SWAP1 POP SWAP2 SWAP1 POP JUMP JUMPDEST PUSH1 0x0 DUP3 DUP3 MSTORE PUSH1 0x20 DUP3 ADD SWAP1 POP SWAP3 SWAP2 POP POP JUMP JUMPDEST PUSH1 0x0 DUP2 SWAP1 POP PUSH1 0x20 DUP3 ADD SWAP1 POP SWAP2 SWAP1 POP JUMP JUMPDEST PUSH1 0x0 DUP3 DUP3 MSTORE PUSH1 0x20 DUP3 ADD SWAP1 POP SWAP3 SWAP2 POP POP JUMP JUMPDEST PUSH1 0x0 PUSH2 0x3A75 DUP3 PUSH2 0x3412 JUMP JUMPDEST PUSH2 0x3A7F DUP2 DUP6 PUSH2 0x3A59 JUMP JUMPDEST SWAP4 POP PUSH2 0x3A8F DUP2 DUP6 PUSH1 0x20 DUP7 ADD PUSH2 0x342E JUMP JUMPDEST PUSH2 0x3A98 DUP2 PUSH2 0x3458 JUMP JUMPDEST DUP5 ADD SWAP2 POP POP SWAP3 SWAP2 POP POP JUMP JUMPDEST PUSH1 0x0 PUSH2 0x3AAF DUP4 DUP4 PUSH2 0x3A6A JUMP JUMPDEST SWAP1 POP SWAP3 SWAP2 POP POP JUMP JUMPDEST PUSH1 0x0 PUSH1 0x20 DUP3 ADD SWAP1 POP SWAP2 SWAP1 POP JUMP JUMPDEST PUSH1 0x0 PUSH2 0x3ACF DUP3 PUSH2 0x3A2D JUMP JUMPDEST PUSH2 0x3AD9 DUP2 DUP6 PUSH2 0x3A38 JUMP JUMPDEST SWAP4 POP DUP4 PUSH1 0x20 DUP3 MUL DUP6 ADD PUSH2 0x3AEB DUP6 PUSH2 0x3A49 JUMP JUMPDEST DUP1 PUSH1 0x0 JUMPDEST DUP6 DUP2 LT ISZERO PUSH2 0x3B27 JUMPI DUP5 DUP5 SUB DUP10 MSTORE DUP2 MLOAD PUSH2 0x3B08 DUP6 DUP3 PUSH2 0x3AA3 JUMP JUMPDEST SWAP5 POP PUSH2 0x3B13 DUP4 PUSH2 0x3AB7 JUMP JUMPDEST SWAP3 POP PUSH1 0x20 DUP11 ADD SWAP10 POP POP PUSH1 0x1 DUP2 ADD SWAP1 POP PUSH2 0x3AEF JUMP JUMPDEST POP DUP3 SWAP8 POP DUP8 SWAP6 POP POP POP POP POP POP SWAP3 SWAP2 POP POP JUMP JUMPDEST PUSH1 0x0 PUSH1 0x20 DUP3 ADD SWAP1 POP DUP2 DUP2 SUB PUSH1 0x0 DUP4 ADD MSTORE PUSH2 0x3B53 DUP2 DUP5 PUSH2 0x3AC4 JUMP JUMPDEST SWAP1 POP SWAP3 SWAP2 POP POP JUMP JUMPDEST PUSH2 0x3B64 DUP2 PUSH2 0x331D JUMP JUMPDEST DUP2 EQ PUSH2 0x3B6F JUMPI PUSH1 0x0 DUP1 REVERT JUMPDEST POP JUMP JUMPDEST PUSH1 0x0 DUP2 CALLDATALOAD SWAP1 POP PUSH2 0x3B81 DUP2 PUSH2 0x3B5B JUMP JUMPDEST SWAP3 SWAP2 POP POP JUMP JUMPDEST PUSH1 0x0 DUP1 PUSH1 0x40 DUP4 DUP6 SUB SLT ISZERO PUSH2 0x3B9E JUMPI PUSH2 0x3B9D PUSH2 0x328E JUMP JUMPDEST JUMPDEST PUSH1 0x0 PUSH2 0x3BAC DUP6 DUP3 DUP7 ADD PUSH2 0x34DB JUMP JUMPDEST SWAP3 POP POP PUSH1 0x20 PUSH2 0x3BBD DUP6 DUP3 DUP7 ADD PUSH2 0x3B72 JUMP JUMPDEST SWAP2 POP POP SWAP3 POP SWAP3 SWAP1 POP JUMP JUMPDEST PUSH1 0x0 DUP1 PUSH1 0x40 DUP4 DUP6 SUB SLT ISZERO PUSH2 0x3BDE JUMPI PUSH2 0x3BDD PUSH2 0x328E JUMP JUMPDEST JUMPDEST PUSH1 0x0 PUSH2 0x3BEC DUP6 DUP3 DUP7 ADD PUSH2 0x34DB JUMP JUMPDEST SWAP3 POP POP PUSH1 0x20 PUSH2 0x3BFD DUP6 DUP3 DUP7 ADD PUSH2 0x34DB JUMP JUMPDEST SWAP2 POP POP SWAP3 POP SWAP3 SWAP1 POP JUMP JUMPDEST PUSH32 0x4E487B7100000000000000000000000000000000000000000000000000000000 PUSH1 0x0 MSTORE PUSH1 0x22 PUSH1 0x4 MSTORE PUSH1 0x24 PUSH1 0x0 REVERT JUMPDEST PUSH1 0x0 PUSH1 0x2 DUP3 DIV SWAP1 POP PUSH1 0x1 DUP3 AND DUP1 PUSH2 0x3C4E JUMPI PUSH1 0x7F DUP3 AND SWAP2 POP JUMPDEST PUSH1 0x20 DUP3 LT DUP2 SUB PUSH2 0x3C61 JUMPI PUSH2 0x3C60 PUSH2 0x3C07 JUMP JUMPDEST JUMPDEST POP SWAP2 SWAP1 POP JUMP JUMPDEST PUSH32 0x4552433732313A20617070726F76616C20746F2063757272656E74206F776E65 PUSH1 0x0 DUP3 ADD MSTORE PUSH32 0x7200000000000000000000000000000000000000000000000000000000000000 PUSH1 0x20 DUP3 ADD MSTORE POP JUMP JUMPDEST PUSH1 0x0 PUSH2 0x3CC3 PUSH1 0x21 DUP4 PUSH2 0x341D JUMP JUMPDEST SWAP2 POP PUSH2 0x3CCE DUP3 PUSH2 0x3C67 JUMP JUMPDEST PUSH1 0x40 DUP3 ADD SWAP1 POP SWAP2 SWAP1 POP JUMP JUMPDEST PUSH1 0x0 PUSH1 0x20 DUP3 ADD SWAP1 POP DUP2 DUP2 SUB PUSH1 0x0 DUP4 ADD MSTORE PUSH2 0x3CF2 DUP2 PUSH2 0x3CB6 JUMP JUMPDEST SWAP1 POP SWAP2 SWAP1 POP JUMP JUMPDEST PUSH32 0x4552433732313A20617070726F76652063616C6C6572206973206E6F7420746F PUSH1 0x0 DUP3 ADD MSTORE PUSH32 0x6B656E206F776E6572206F7220617070726F76656420666F7220616C6C000000 PUSH1 0x20 DUP3 ADD MSTORE POP JUMP JUMPDEST PUSH1 0x0 PUSH2 0x3D55 PUSH1 0x3D DUP4 PUSH2 0x341D JUMP JUMPDEST SWAP2 POP PUSH2 0x3D60 DUP3 PUSH2 0x3CF9 JUMP JUMPDEST PUSH1 0x40 DUP3 ADD SWAP1 POP SWAP2 SWAP1 POP JUMP JUMPDEST PUSH1 0x0 PUSH1 0x20 DUP3 ADD SWAP1 POP DUP2 DUP2 SUB PUSH1 0x0 DUP4 ADD MSTORE PUSH2 0x3D84 DUP2 PUSH2 0x3D48 JUMP JUMPDEST SWAP1 POP SWAP2 SWAP1 POP JUMP JUMPDEST PUSH32 0x4E6F7420616E206F776E65720000000000000000000000000000000000000000 PUSH1 0x0 DUP3 ADD MSTORE POP JUMP JUMPDEST PUSH1 0x0 PUSH2 0x3DC1 PUSH1 0xC DUP4 PUSH2 0x341D JUMP JUMPDEST SWAP2 POP PUSH2 0x3DCC DUP3 PUSH2 0x3D8B JUMP JUMPDEST PUSH1 0x20 DUP3 ADD SWAP1 POP SWAP2 SWAP1 POP JUMP JUMPDEST PUSH1 0x0 PUSH1 0x20 DUP3 ADD SWAP1 POP DUP2 DUP2 SUB PUSH1 0x0 DUP4 ADD MSTORE PUSH2 0x3DF0 DUP2 PUSH2 0x3DB4 JUMP JUMPDEST SWAP1 POP SWAP2 SWAP1 POP JUMP JUMPDEST PUSH1 0x0 DUP2 SWAP1 POP DUP2 PUSH1 0x0 MSTORE PUSH1 0x20 PUSH1 0x0 KECCAK256 SWAP1 POP SWAP2 SWAP1 POP JUMP JUMPDEST PUSH1 0x0 PUSH1 0x20 PUSH1 0x1F DUP4 ADD DIV SWAP1 POP SWAP2 SWAP1 POP JUMP JUMPDEST PUSH1 0x0 DUP3 DUP3 SHL SWAP1 POP SWAP3 SWAP2 POP POP JUMP JUMPDEST PUSH1 0x0 PUSH1 0x8 DUP4 MUL PUSH2 0x3E59 PUSH32 0xFFFFFFFFFFFFFFFFFFFFFFFFFFFFFFFFFFFFFFFFFFFFFFFFFFFFFFFFFFFFFFFF DUP3 PUSH2 0x3E1C JUMP JUMPDEST PUSH2 0x3E63 DUP7 DUP4 PUSH2 0x3E1C JUMP JUMPDEST SWAP6 POP DUP1 NOT DUP5 AND SWAP4 POP DUP1 DUP7 AND DUP5 OR SWAP3 POP POP POP SWAP4 SWAP3 POP POP POP JUMP JUMPDEST PUSH1 0x0 DUP2 SWAP1 POP SWAP2 SWAP1 POP JUMP JUMPDEST PUSH1 0x0 PUSH2 0x3EA0 PUSH2 0x3E9B PUSH2 0x3E96 DUP5 PUSH2 0x3353 JUMP JUMPDEST PUSH2 0x3E7B JUMP JUMPDEST PUSH2 0x3353 JUMP JUMPDEST SWAP1 POP SWAP2 SWAP1 POP JUMP JUMPDEST PUSH1 0x0 DUP2 SWAP1 POP SWAP2 SWAP1 POP JUMP JUMPDEST PUSH2 0x3EBA DUP4 PUSH2 0x3E85 JUMP JUMPDEST PUSH2 0x3ECE PUSH2 0x3EC6 DUP3 PUSH2 0x3EA7 JUMP JUMPDEST DUP5 DUP5 SLOAD PUSH2 0x3E29 JUMP JUMPDEST DUP3 SSTORE POP POP POP POP JUMP JUMPDEST PUSH1 0x0 SWAP1 JUMP JUMPDEST PUSH2 0x3EE3 PUSH2 0x3ED6 JUMP JUMPDEST PUSH2 0x3EEE DUP2 DUP5 DUP5 PUSH2 0x3EB1 JUMP JUMPDEST POP POP POP JUMP JUMPDEST JUMPDEST DUP2 DUP2 LT ISZERO PUSH2 0x3F12 JUMPI PUSH2 0x3F07 PUSH1 0x0 DUP3 PUSH2 0x3EDB JUMP JUMPDEST PUSH1 0x1 DUP2 ADD SWAP1 POP PUSH2 0x3EF4 JUMP JUMPDEST POP POP JUMP JUMPDEST PUSH1 0x1F DUP3 GT ISZERO PUSH2 0x3F57 JUMPI PUSH2 0x3F28 DUP2 PUSH2 0x3DF7 JUMP JUMPDEST PUSH2 0x3F31 DUP5 PUSH2 0x3E0C JUMP JUMPDEST DUP2 ADD PUSH1 0x20 DUP6 LT ISZERO PUSH2 0x3F40 JUMPI DUP2 SWAP1 POP JUMPDEST PUSH2 0x3F54 PUSH2 0x3F4C DUP6 PUSH2 0x3E0C JUMP JUMPDEST DUP4 ADD DUP3 PUSH2 0x3EF3 JUMP JUMPDEST POP POP JUMPDEST POP POP POP JUMP JUMPDEST PUSH1 0x0 DUP3 DUP3 SHR SWAP1 POP SWAP3 SWAP2 POP POP JUMP JUMPDEST PUSH1 0x0 PUSH2 0x3F7A PUSH1 0x0 NOT DUP5 PUSH1 0x8 MUL PUSH2 0x3F5C JUMP JUMPDEST NOT DUP1 DUP4 AND SWAP2 POP POP SWAP3 SWAP2 POP POP JUMP JUMPDEST PUSH1 0x0 PUSH2 0x3F93 DUP4 DUP4 PUSH2 0x3F69 JUMP JUMPDEST SWAP2 POP DUP3 PUSH1 0x2 MUL DUP3 OR SWAP1 POP SWAP3 SWAP2 POP POP JUMP JUMPDEST PUSH2 0x3FAC DUP3 PUSH2 0x3412 JUMP JUMPDEST PUSH8 0xFFFFFFFFFFFFFFFF DUP2 GT ISZERO PUSH2 0x3FC5 JUMPI PUSH2 0x3FC4 PUSH2 0x3671 JUMP JUMPDEST JUMPDEST PUSH2 0x3FCF DUP3 SLOAD PUSH2 0x3C36 JUMP JUMPDEST PUSH2 0x3FDA DUP3 DUP3 DUP6 PUSH2 0x3F16 JUMP JUMPDEST PUSH1 0x0 PUSH1 0x20 SWAP1 POP PUSH1 0x1F DUP4 GT PUSH1 0x1 DUP2 EQ PUSH2 0x400D JUMPI PUSH1 0x0 DUP5 ISZERO PUSH2 0x3FFB JUMPI DUP3 DUP8 ADD MLOAD SWAP1 POP JUMPDEST PUSH2 0x4005 DUP6 DUP3 PUSH2 0x3F87 JUMP JUMPDEST DUP7 SSTORE POP PUSH2 0x406D JUMP JUMPDEST PUSH1 0x1F NOT DUP5 AND PUSH2 0x401B DUP7 PUSH2 0x3DF7 JUMP JUMPDEST PUSH1 0x0 JUMPDEST DUP3 DUP2 LT ISZERO PUSH2 0x4043 JUMPI DUP5 DUP10 ADD MLOAD DUP3 SSTORE PUSH1 0x1 DUP3 ADD SWAP2 POP PUSH1 0x20 DUP6 ADD SWAP5 POP PUSH1 0x20 DUP2 ADD SWAP1 POP PUSH2 0x401E JUMP JUMPDEST DUP7 DUP4 LT ISZERO PUSH2 0x4060 JUMPI DUP5 DUP10 ADD MLOAD PUSH2 0x405C PUSH1 0x1F DUP10 AND DUP3 PUSH2 0x3F69 JUMP JUMPDEST DUP4 SSTORE POP JUMPDEST PUSH1 0x1 PUSH1 0x2 DUP9 MUL ADD DUP9 SSTORE POP POP POP JUMPDEST POP POP POP POP POP POP JUMP JUMPDEST PUSH32 0x4E487B7100000000000000000000000000000000000000000000000000000000 PUSH1 0x0 MSTORE PUSH1 0x11 PUSH1 0x4 MSTORE PUSH1 0x24 PUSH1 0x0 REVERT JUMPDEST PUSH1 0x0 PUSH2 0x40AF DUP3 PUSH2 0x3353 JUMP JUMPDEST SWAP2 POP PUSH32 0xFFFFFFFFFFFFFFFFFFFFFFFFFFFFFFFFFFFFFFFFFFFFFFFFFFFFFFFFFFFFFFFF DUP3 SUB PUSH2 0x40E1 JUMPI PUSH2 0x40E0 PUSH2 0x4075 JUMP JUMPDEST JUMPDEST PUSH1 0x1 DUP3 ADD SWAP1 POP SWAP2 SWAP1 POP JUMP JUMPDEST PUSH32 0x4E487B7100000000000000000000000000000000000000000000000000000000 PUSH1 0x0 MSTORE PUSH1 0x32 PUSH1 0x4 MSTORE PUSH1 0x24 PUSH1 0x0 REVERT JUMPDEST PUSH1 0x0 PUSH2 0x4126 DUP3 PUSH2 0x3353 JUMP JUMPDEST SWAP2 POP PUSH2 0x4131 DUP4 PUSH2 0x3353 JUMP JUMPDEST SWAP3 POP DUP3 DUP3 SUB SWAP1 POP DUP2 DUP2 GT ISZERO PUSH2 0x4149 JUMPI PUSH2 0x4148 PUSH2 0x4075 JUMP JUMPDEST JUMPDEST SWAP3 SWAP2 POP POP JUMP JUMPDEST PUSH32 0x4E487B7100000000000000000000000000000000000000000000000000000000 PUSH1 0x0 MSTORE PUSH1 0x31 PUSH1 0x4 MSTORE PUSH1 0x24 PUSH1 0x0 REVERT JUMPDEST PUSH32 0x41646472657373206973206E6F7420616E206F776E6572000000000000000000 PUSH1 0x0 DUP3 ADD MSTORE POP JUMP JUMPDEST PUSH1 0x0 PUSH2 0x41B4 PUSH1 0x17 DUP4 PUSH2 0x341D JUMP JUMPDEST SWAP2 POP PUSH2 0x41BF DUP3 PUSH2 0x417E JUMP JUMPDEST PUSH1 0x20 DUP3 ADD SWAP1 POP SWAP2 SWAP1 POP JUMP JUMPDEST PUSH1 0x0 PUSH1 0x20 DUP3 ADD SWAP1 POP DUP2 DUP2 SUB PUSH1 0x0 DUP4 ADD MSTORE PUSH2 0x41E3 DUP2 PUSH2 0x41A7 JUMP JUMPDEST SWAP1 POP SWAP2 SWAP1 POP JUMP JUMPDEST PUSH32 0x4174206C65617374206F6E65206F776E6572206D7573742072656D61696E0000 PUSH1 0x0 DUP3 ADD MSTORE POP JUMP JUMPDEST PUSH1 0x0 PUSH2 0x4220 PUSH1 0x1E DUP4 PUSH2 0x341D JUMP JUMPDEST SWAP2 POP PUSH2 0x422B DUP3 PUSH2 0x41EA JUMP JUMPDEST PUSH1 0x20 DUP3 ADD SWAP1 POP SWAP2 SWAP1 POP JUMP JUMPDEST PUSH1 0x0 PUSH1 0x20 DUP3 ADD SWAP1 POP DUP2 DUP2 SUB PUSH1 0x0 DUP4 ADD MSTORE PUSH2 0x424F DUP2 PUSH2 0x4213 JUMP JUMPDEST SWAP1 POP SWAP2 SWAP1 POP JUMP JUMPDEST PUSH32 0x4552433732313A2063616C6C6572206973206E6F7420746F6B656E206F776E65 PUSH1 0x0 DUP3 ADD MSTORE PUSH32 0x72206F7220617070726F76656400000000000000000000000000000000000000 PUSH1 0x20 DUP3 ADD MSTORE POP JUMP JUMPDEST PUSH1 0x0 PUSH2 0x42B2 PUSH1 0x2D DUP4 PUSH2 0x341D JUMP JUMPDEST SWAP2 POP PUSH2 0x42BD DUP3 PUSH2 0x4256 JUMP JUMPDEST PUSH1 0x40 DUP3 ADD SWAP1 POP SWAP2 SWAP1 POP JUMP JUMPDEST PUSH1 0x0 PUSH1 0x20 DUP3 ADD SWAP1 POP DUP2 DUP2 SUB PUSH1 0x0 DUP4 ADD MSTORE PUSH2 0x42E1 DUP2 PUSH2 0x42A5 JUMP JUMPDEST SWAP1 POP SWAP2 SWAP1 POP JUMP JUMPDEST PUSH32 0x436F6E6E656374696F6E20616C72656164792070726F706F7365640000000000 PUSH1 0x0 DUP3 ADD MSTORE POP JUMP JUMPDEST PUSH1 0x0 PUSH2 0x431E PUSH1 0x1B DUP4 PUSH2 0x341D JUMP JUMPDEST SWAP2 POP PUSH2 0x4329 DUP3 PUSH2 0x42E8 JUMP JUMPDEST PUSH1 0x20 DUP3 ADD SWAP1 POP SWAP2 SWAP1 POP JUMP JUMPDEST PUSH1 0x0 PUSH1 0x20 DUP3 ADD SWAP1 POP DUP2 DUP2 SUB PUSH1 0x0 DUP4 ADD MSTORE PUSH2 0x434D DUP2 PUSH2 0x4311 JUMP JUMPDEST SWAP1 POP SWAP2 SWAP1 POP JUMP JUMPDEST PUSH32 0x4552433732313A20696E76616C696420746F6B656E2049440000000000000000 PUSH1 0x0 DUP3 ADD MSTORE POP JUMP JUMPDEST PUSH1 0x0 PUSH2 0x438A PUSH1 0x18 DUP4 PUSH2 0x341D JUMP JUMPDEST SWAP2 POP PUSH2 0x4395 DUP3 PUSH2 0x4354 JUMP JUMPDEST PUSH1 0x20 DUP3 ADD SWAP1 POP SWAP2 SWAP1 POP JUMP JUMPDEST PUSH1 0x0 PUSH1 0x20 DUP3 ADD SWAP1 POP DUP2 DUP2 SUB PUSH1 0x0 DUP4 ADD MSTORE PUSH2 0x43B9 DUP2 PUSH2 0x437D JUMP JUMPDEST SWAP1 POP SWAP2 SWAP1 POP JUMP JUMPDEST PUSH32 0x4164647265737320697320616C726561647920616E206F776E65720000000000 PUSH1 0x0 DUP3 ADD MSTORE POP JUMP JUMPDEST PUSH1 0x0 PUSH2 0x43F6 PUSH1 0x1B DUP4 PUSH2 0x341D JUMP JUMPDEST SWAP2 POP PUSH2 0x4401 DUP3 PUSH2 0x43C0 JUMP JUMPDEST PUSH1 0x20 DUP3 ADD SWAP1 POP SWAP2 SWAP1 POP JUMP JUMPDEST PUSH1 0x0 PUSH1 0x20 DUP3 ADD SWAP1 POP DUP2 DUP2 SUB PUSH1 0x0 DUP4 ADD MSTORE PUSH2 0x4425 DUP2 PUSH2 0x43E9 JUMP JUMPDEST SWAP1 POP SWAP2 SWAP1 POP JUMP JUMPDEST PUSH32 0x4552433732313A2061646472657373207A65726F206973206E6F742061207661 PUSH1 0x0 DUP3 ADD MSTORE PUSH32 0x6C6964206F776E65720000000000000000000000000000000000000000000000 PUSH1 0x20 DUP3 ADD MSTORE POP JUMP JUMPDEST PUSH1 0x0 PUSH2 0x4488 PUSH1 0x29 DUP4 PUSH2 0x341D JUMP JUMPDEST SWAP2 POP PUSH2 0x4493 DUP3 PUSH2 0x442C JUMP JUMPDEST PUSH1 0x40 DUP3 ADD SWAP1 POP SWAP2 SWAP1 POP JUMP JUMPDEST PUSH1 0x0 PUSH1 0x20 DUP3 ADD SWAP1 POP DUP2 DUP2 SUB PUSH1 0x0 DUP4 ADD MSTORE PUSH2 0x44B7 DUP2 PUSH2 0x447B JUMP JUMPDEST SWAP1 POP SWAP2 SWAP1 POP JUMP JUMPDEST PUSH32 0x4F776E61626C653A206E6577206F776E657220697320746865207A65726F2061 PUSH1 0x0 DUP3 ADD MSTORE PUSH32 0x6464726573730000000000000000000000000000000000000000000000000000 PUSH1 0x20 DUP3 ADD MSTORE POP JUMP JUMPDEST PUSH1 0x0 PUSH2 0x451A PUSH1 0x26 DUP4 PUSH2 0x341D JUMP JUMPDEST SWAP2 POP PUSH2 0x4525 DUP3 PUSH2 0x44BE JUMP JUMPDEST PUSH1 0x40 DUP3 ADD SWAP1 POP SWAP2 SWAP1 POP JUMP JUMPDEST PUSH1 0x0 PUSH1 0x20 DUP3 ADD SWAP1 POP DUP2 DUP2 SUB PUSH1 0x0 DUP4 ADD MSTORE PUSH2 0x4549 DUP2 PUSH2 0x450D JUMP JUMPDEST SWAP1 POP SWAP2 SWAP1 POP JUMP JUMPDEST PUSH32 0x45524337323155524953746F726167653A2055524920736574206F66206E6F6E PUSH1 0x0 DUP3 ADD MSTORE PUSH32 0x6578697374656E7420746F6B656E000000000000000000000000000000000000 PUSH1 0x20 DUP3 ADD MSTORE POP JUMP JUMPDEST PUSH1 0x0 PUSH2 0x45AC PUSH1 0x2E DUP4 PUSH2 0x341D JUMP JUMPDEST SWAP2 POP PUSH2 0x45B7 DUP3 PUSH2 0x4550 JUMP JUMPDEST PUSH1 0x40 DUP3 ADD SWAP1 POP SWAP2 SWAP1 POP JUMP JUMPDEST PUSH1 0x0 PUSH1 0x20 DUP3 ADD SWAP1 POP DUP2 DUP2 SUB PUSH1 0x0 DUP4 ADD MSTORE PUSH2 0x45DB DUP2 PUSH2 0x459F JUMP JUMPDEST SWAP1 POP SWAP2 SWAP1 POP JUMP JUMPDEST PUSH32 0x4552433732313A207472616E736665722066726F6D20696E636F727265637420 PUSH1 0x0 DUP3 ADD MSTORE PUSH32 0x6F776E6572000000000000000000000000000000000000000000000000000000 PUSH1 0x20 DUP3 ADD MSTORE POP JUMP JUMPDEST PUSH1 0x0 PUSH2 0x463E PUSH1 0x25 DUP4 PUSH2 0x341D JUMP JUMPDEST SWAP2 POP PUSH2 0x4649 DUP3 PUSH2 0x45E2 JUMP JUMPDEST PUSH1 0x40 DUP3 ADD SWAP1 POP SWAP2 SWAP1 POP JUMP JUMPDEST PUSH1 0x0 PUSH1 0x20 DUP3 ADD SWAP1 POP DUP2 DUP2 SUB PUSH1 0x0 DUP4 ADD MSTORE PUSH2 0x466D DUP2 PUSH2 0x4631 JUMP JUMPDEST SWAP1 POP SWAP2 SWAP1 POP JUMP JUMPDEST PUSH32 0x4552433732313A207472616E7366657220746F20746865207A65726F20616464 PUSH1 0x0 DUP3 ADD MSTORE PUSH32 0x7265737300000000000000000000000000000000000000000000000000000000 PUSH1 0x20 DUP3 ADD MSTORE POP JUMP JUMPDEST PUSH1 0x0 PUSH2 0x46D0 PUSH1 0x24 DUP4 PUSH2 0x341D JUMP JUMPDEST SWAP2 POP PUSH2 0x46DB DUP3 PUSH2 0x4674 JUMP JUMPDEST PUSH1 0x40 DUP3 ADD SWAP1 POP SWAP2 SWAP1 POP JUMP JUMPDEST PUSH1 0x0 PUSH1 0x20 DUP3 ADD SWAP1 POP DUP2 DUP2 SUB PUSH1 0x0 DUP4 ADD MSTORE PUSH2 0x46FF DUP2 PUSH2 0x46C3 JUMP JUMPDEST SWAP1 POP SWAP2 SWAP1 POP JUMP JUMPDEST PUSH32 0x4F776E61626C653A2063616C6C6572206973206E6F7420746865206F776E6572 PUSH1 0x0 DUP3 ADD MSTORE POP JUMP JUMPDEST PUSH1 0x0 PUSH2 0x473C PUSH1 0x20 DUP4 PUSH2 0x341D JUMP JUMPDEST SWAP2 POP PUSH2 0x4747 DUP3 PUSH2 0x4706 JUMP JUMPDEST PUSH1 0x20 DUP3 ADD SWAP1 POP SWAP2 SWAP1 POP JUMP JUMPDEST PUSH1 0x0 PUSH1 0x20 DUP3 ADD SWAP1 POP DUP2 DUP2 SUB PUSH1 0x0 DUP4 ADD MSTORE PUSH2 0x476B DUP2 PUSH2 0x472F JUMP JUMPDEST SWAP1 POP SWAP2 SWAP1 POP JUMP JUMPDEST PUSH32 0x4552433732313A20617070726F766520746F2063616C6C657200000000000000 PUSH1 0x0 DUP3 ADD MSTORE POP JUMP JUMPDEST PUSH1 0x0 PUSH2 0x47A8 PUSH1 0x19 DUP4 PUSH2 0x341D JUMP JUMPDEST SWAP2 POP PUSH2 0x47B3 DUP3 PUSH2 0x4772 JUMP JUMPDEST PUSH1 0x20 DUP3 ADD SWAP1 POP SWAP2 SWAP1 POP JUMP JUMPDEST PUSH1 0x0 PUSH1 0x20 DUP3 ADD SWAP1 POP DUP2 DUP2 SUB PUSH1 0x0 DUP4 ADD MSTORE PUSH2 0x47D7 DUP2 PUSH2 0x479B JUMP JUMPDEST SWAP1 POP SWAP2 SWAP1 POP JUMP JUMPDEST PUSH32 0x4552433732313A207472616E7366657220746F206E6F6E204552433732315265 PUSH1 0x0 DUP3 ADD MSTORE PUSH32 0x63656976657220696D706C656D656E7465720000000000000000000000000000 PUSH1 0x20 DUP3 ADD MSTORE POP JUMP JUMPDEST PUSH1 0x0 PUSH2 0x483A PUSH1 0x32 DUP4 PUSH2 0x341D JUMP JUMPDEST SWAP2 POP PUSH2 0x4845 DUP3 PUSH2 0x47DE JUMP JUMPDEST PUSH1 0x40 DUP3 ADD SWAP1 POP SWAP2 SWAP1 POP JUMP JUMPDEST PUSH1 0x0 PUSH1 0x20 DUP3 ADD SWAP1 POP DUP2 DUP2 SUB PUSH1 0x0 DUP4 ADD MSTORE PUSH2 0x4869 DUP2 PUSH2 0x482D JUMP JUMPDEST SWAP1 POP SWAP2 SWAP1 POP JUMP JUMPDEST PUSH1 0x0 DUP2 SWAP1 POP SWAP3 SWAP2 POP POP JUMP JUMPDEST PUSH1 0x0 PUSH2 0x4886 DUP3 PUSH2 0x3412 JUMP JUMPDEST PUSH2 0x4890 DUP2 DUP6 PUSH2 0x4870 JUMP JUMPDEST SWAP4 POP PUSH2 0x48A0 DUP2 DUP6 PUSH1 0x20 DUP7 ADD PUSH2 0x342E JUMP JUMPDEST DUP1 DUP5 ADD SWAP2 POP POP SWAP3 SWAP2 POP POP JUMP JUMPDEST PUSH1 0x0 PUSH2 0x48B8 DUP3 DUP6 PUSH2 0x487B JUMP JUMPDEST SWAP2 POP PUSH2 0x48C4 DUP3 DUP5 PUSH2 0x487B JUMP JUMPDEST SWAP2 POP DUP2 SWAP1 POP SWAP4 SWAP3 POP POP POP JUMP JUMPDEST PUSH1 0x0 DUP2 MLOAD SWAP1 POP SWAP2 SWAP1 POP JUMP JUMPDEST PUSH1 0x0 DUP3 DUP3 MSTORE PUSH1 0x20 DUP3 ADD SWAP1 POP SWAP3 SWAP2 POP POP JUMP JUMPDEST PUSH1 0x0 PUSH2 0x48F7 DUP3 PUSH2 0x48D0 JUMP JUMPDEST PUSH2 0x4901 DUP2 DUP6 PUSH2 0x48DB JUMP JUMPDEST SWAP4 POP PUSH2 0x4911 DUP2 DUP6 PUSH1 0x20 DUP7 ADD PUSH2 0x342E JUMP JUMPDEST PUSH2 0x491A DUP2 PUSH2 0x3458 JUMP JUMPDEST DUP5 ADD SWAP2 POP POP SWAP3 SWAP2 POP POP JUMP JUMPDEST PUSH1 0x0 PUSH1 0x80 DUP3 ADD SWAP1 POP PUSH2 0x493A PUSH1 0x0 DUP4 ADD DUP8 PUSH2 0x33E8 JUMP JUMPDEST PUSH2 0x4947 PUSH1 0x20 DUP4 ADD DUP7 PUSH2 0x33E8 JUMP JUMPDEST PUSH2 0x4954 PUSH1 0x40 DUP4 ADD DUP6 PUSH2 0x355D JUMP JUMPDEST DUP2 DUP2 SUB PUSH1 0x60 DUP4 ADD MSTORE PUSH2 0x4966 DUP2 DUP5 PUSH2 0x48EC JUMP JUMPDEST SWAP1 POP SWAP6 SWAP5 POP POP POP POP POP JUMP JUMPDEST PUSH1 0x0 DUP2 MLOAD SWAP1 POP PUSH2 0x4980 DUP2 PUSH2 0x32C4 JUMP JUMPDEST SWAP3 SWAP2 POP POP JUMP JUMPDEST PUSH1 0x0 PUSH1 0x20 DUP3 DUP5 SUB SLT ISZERO PUSH2 0x499C JUMPI PUSH2 0x499B PUSH2 0x328E JUMP JUMPDEST JUMPDEST PUSH1 0x0 PUSH2 0x49AA DUP5 DUP3 DUP6 ADD PUSH2 0x4971 JUMP JUMPDEST SWAP2 POP POP SWAP3 SWAP2 POP POP JUMP JUMPDEST PUSH32 0x4552433732313A206D696E7420746F20746865207A65726F2061646472657373 PUSH1 0x0 DUP3 ADD MSTORE POP JUMP JUMPDEST PUSH1 0x0 PUSH2 0x49E9 PUSH1 0x20 DUP4 PUSH2 0x341D JUMP JUMPDEST SWAP2 POP PUSH2 0x49F4 DUP3 PUSH2 0x49B3 JUMP JUMPDEST PUSH1 0x20 DUP3 ADD SWAP1 POP SWAP2 SWAP1 POP JUMP JUMPDEST PUSH1 0x0 PUSH1 0x20 DUP3 ADD SWAP1 POP DUP2 DUP2 SUB PUSH1 0x0 DUP4 ADD MSTORE PUSH2 0x4A18 DUP2 PUSH2 0x49DC JUMP JUMPDEST SWAP1 POP SWAP2 SWAP1 POP JUMP JUMPDEST PUSH32 0x4552433732313A20746F6B656E20616C7265616479206D696E74656400000000 PUSH1 0x0 DUP3 ADD MSTORE POP JUMP JUMPDEST PUSH1 0x0 PUSH2 0x4A55 PUSH1 0x1C DUP4 PUSH2 0x341D JUMP JUMPDEST SWAP2 POP PUSH2 0x4A60 DUP3 PUSH2 0x4A1F JUMP JUMPDEST PUSH1 0x20 DUP3 ADD SWAP1 POP SWAP2 SWAP1 POP JUMP JUMPDEST PUSH1 0x0 PUSH1 0x20 DUP3 ADD SWAP1 POP DUP2 DUP2 SUB PUSH1 0x0 DUP4 ADD MSTORE PUSH2 0x4A84 DUP2 PUSH2 0x4A48 JUMP JUMPDEST SWAP1 POP SWAP2 SWAP1 POP JUMP JUMPDEST PUSH32 0x4E487B7100000000000000000000000000000000000000000000000000000000 PUSH1 0x0 MSTORE PUSH1 0x12 PUSH1 0x4 MSTORE PUSH1 0x24 PUSH1 0x0 REVERT INVALID LOG2 PUSH5 0x6970667358 0x22 SLT KECCAK256 SUB SWAP16 LOG0 0x5F SMOD SDIV PUSH27 0x8E3E30FDA1E1E4D6EB72C3453089AC141C93C6CF5637E4D7066473 PUSH16 0x6C634300081200330000000000000000 "},"methodIdentifiers":{"addOwner(address)":"7065cb48","approve(address,uint256)":"095ea7b3","balanceOf(address)":"70a08231","burn(uint256)":"42966c68","externalProposeConnect(address)":"75da616b","getApproved(uint256)":"081812fc","isApprovedForAll(address,address)":"e985e9c5","isOwner(address)":"2f54bf6e","isProposedConnection(address)":"07f3c85c","listPosts()":"256dd92e","listProposedConnections()":"0fc88d84","mintpostNFT(string)":"13ee616f","name()":"06fdde03","onERC721Received(address,address,uint256,bytes)":"150b7a02","owner()":"8da5cb5b","ownerOf(uint256)":"6352211e","owners(uint256)":"025e7c27","postToCID(uint256)":"8fe55bd8","posts(uint256)":"0b1e7f83","profileDescription()":"a3e39811","profileName()":"c5da7604","profilePictureLink()":"78fd967f","proposeConnect(address)":"4939bd5e","removeOwner(address)":"173825d9","removePost(uint256)":"1721ed48","renounceOwnership()":"715018a6","safeTransferFrom(address,address,uint256)":"42842e0e","safeTransferFrom(address,address,uint256,bytes)":"b88d4fde","setApprovalForAll(address,bool)":"a22cb465","supportsInterface(bytes4)":"01ffc9a7","symbol()":"95d89b41","tokenURI(uint256)":"c87b56dd","transferFrom(address,address,uint256)":"23b872dd","transferOwnership(address)":"f2fde38b","updateProfile(string,string,string)":"1105a5eb"}}}}}